:020000040800F2
:10000000182B0020AD020008BD050008CF03000832
:10001000B905000895050008A506000800000000C5
:10002000000000000000000000000000FF050008C4
:100030009D050008000000001B03000801060008E1
:10004000C7020008C7020008C7020008C70200086C
:10005000C7020008C7020008C7020008C70200085C
:10006000C7020008C7020008C7020008C70200084C
:10007000C7020008C7020008C7020008C70200083C
:10008000C7020008C7020008C7020008C70200082C
:10009000C7020008C7020008C7020008C70200081C
:1000A000C7020008C7020008C7020008C70200080C
:1000B000C7020008C7020008C7020008C7020008FC
:1000C000C7020008C7020008C7020008C7020008EC
:1000D000C7020008C7020008C7020008C7020008DC
:1000E000C7020008C7020008C7020008C7020008CC
:1000F000C7020008C7020008C7020008C7020008BC
:10010000C7020008C7020008C7020008C7020008AB
:10011000C7020008C7020008C7020008C70200089B
:10012000990500089B050008C7020008C7020008DF
:10013000C7020008C7020008C7020008C70200087B
:10014000C7020008C7020008C7020008C70200086B
:10015000C7020008C702000800000000C70200082C
:10016000C7020008C70200080000000000000000ED
:10017000C7020008C7020008C7020008000000000C
:1001800000000000C7020008C7020008C7020008FC
:10019000C70200080000000000000000000000008E
:1001A000000000000000000000000000C70200087E
:1001B000C702000800000000C7020008000000009D
:1001C000000000000000000000000000000000002F
:1001D0000000000000000000C7020008C70200087D
:1001E000C7020008C7020008C7020008C7020008CB
:1001F000C7020008C7020008C7020008C7020008BB
:10020000C7020008C7020008C702000800F002F891
:1002100000F03CF80AA090E8000C82448344AAF164
:100220000107DA4501D100F031F8AFF2090EBAE862
:100230000F0013F0010F18BFFB1A43F0010318471A
:10024000342F0000542F0000103A24BF78C878C122
:10025000FAD8520724BF30C830C144BF04680C60CC
:10026000704700000023002400250026103A28BF14
:1002700078C1FBD8520728BF30C148BF0B60704718
:100280001FB502F0BBFE1FBD10B510BD00F042F956
:100290001146FFF7F5FF00F076F900F060F903B4BE
:1002A000FFF7F2FF03BC00F067F900000948804740
:1002B00009480047FEE7FEE7FEE7FEE7FEE7FEE748
:1002C000FEE7FEE7FEE7FEE704480549054A064B60
:1002D00070470000150600080D02000818250020D0
:1002E000182B00201827002018270020EFF310807B
:1002F00072B6704780F310887047434A1368012B29
:1003000004D04FF001031360404A1060404A11606E
:1003100040484FF0805101607047EFF3108272B691
:100320003948016851B34FF0000101603748016856
:1003300091B1EFF309811EF0100F08BF21ED108B72
:1003400021E9F00F4FF000041EF0100F08BF012448
:1003500041F8044D006801602D490968096808C921
:10036000B1E8F00F002B18BFB1EC108B81F30988B6
:100370004EF0100E002B18BF2EF0100E82F31088D6
:100380004EF0040E704722490860EFF3148222F009
:10039000040282F314881D494FF0000008601A49D6
:1003A0004FF0010008601C484FF47F01D0F8002096
:1003B00041EA0201016017484FF08051016017487F
:1003C0000068006880F3088861B662B670471EF066
:1003D000040F0CBFEFF30880EFF3098020E9F00F62
:1003E00040F804ED40F804ED1EF0040F0CBF80F35C
:1003F000088880F3098800B500F0D2FF5DF804EBAF
:100400004EF0040E7047000010000020080000208D
:100410000C00002004ED00E020ED00E008ED00E01D
:1004200053EA020C00F069802DE9F04B4FF0000612
:10043000002B1FBFB3FA83F503FA05F424FA05F67F
:100440005E4012BF1643B2FA82F502FA05F4C5F116
:1004500020051EBF22FA05FC44EA0C04203556EAAA
:10046000044C4FEA144418BF641C4FF000084FF0CE
:100470000009904271EB030C39D3002919BFB1FA7E
:1004800081F701FA07F6B0FA80F700FA07F6C7F12C
:1004900020071EBF20FA07FC46EA0C062037B6FBF1
:1004A000F4FCA7EB0507103F07F01F0BCBF120066C
:1004B0000CFA0BFB2CFA06F644BFB3460026202F9D
:1004C000A4BF5E464FF0000B5BEA060C08BF4FF07E
:1004D000010B19EB0B09ABFB027C48EB0608C01BB8
:1004E00006FB02CC0BFB03CC71EB0C01C1E70B4606
:1004F000024641464846BDE8F08B13B54FF0000078
:100500004FF00001AFF30080BDE81C40704770471A
:1005100070477047754600F02BF8AE4605006946F7
:10052000534620F00700854618B020B5FFF7CCFEF3
:10053000BDE820404FF000064FF000074FF00008E4
:100540004FF0000B21F00701AC46ACE8C009ACE865
:10055000C009ACE8C009ACE8C0098D46704710B5C9
:100560000446AFF300802046BDE81040FFF797BE79
:1005700000487047B824002001491820ABBEFEE7B0
:1005800026000200704710B5FFF7B0FE02F0EEF94A
:10059000002010BD00BFFEE77047704770470000A5
:1005A00007E004480068401C02490860012001F08F
:1005B0004AFDF6E70400002000BFFEE77047F0B5F3
:1005C00003460C4603F00701C1F10700042801D9D6
:1005D000042001E0C1F107000646081D072801D2EA
:1005E000002000E0C81E05460120B040401E20400B
:1005F000A8400127AF407F1E17403843F0BD704729
:1006000010B501F007F801F0BBFE01F01DF810BDB8
:10061000704700001F48006840F470001D490860E2
:100620001D48006820F00100401C1B49086000BF05
:1006300019480068C0F340000028F9D01648083077
:10064000006820F0030014490831086000BF124818
:1006500008300068C0F381000028F8D10E48006817
:100660000E4908400C49086000200B490831086019
:100670000B48091F086000200749A03108604FF4AB
:100680001F0005490C3108604FF0006001498039B6
:100690000860704788ED00E000380240FFFFF2FE7E
:1006A0000230030000BFFEE70146481EB0F1807F24
:1006B00001D301207047481E4FF0E0225061FF2017
:1006C000044A107000204FF0E02290610720106172
:1006D0000020EFE723ED00E002480068C0F30220AD
:1006E000704700000CED00E010B5002804DB0A079D
:1006F000130E054A135406E00A07140E034A00F0CD
:100700000F031B1FD45410BD00E400E018ED00E0FF
:10071000014609B900207047C8B220B1C8B20E4ADC
:10072000105C401CF7E701F47F4028B10A48C1F390
:100730000722805C0930EEE701F47F0028B106480B
:10074000C1F30742805C1130E5E7034800EB11601C
:1007500000781930DFE700004230000803490868DC
:10076000884201D0012070470020FCE7DC00002017
:100770002DE9FC5F04468B4615461E46DDE90C9AC2
:10078000DDE90E7804F114004060006000BF1C3405
:100790006560A660C4F80C90C4F810A02321D4E9C9
:1007A000030201F0D7F8D4E9033C63441A1F144B49
:1007B000D4E9010100F006FF2060A77667760020EB
:1007C000E061C4F82880C4F82C8060612076E06580
:1007D00020661C3C009023460A4A2146019004F101
:1007E0004C0001F065FE00BF0748006818B12046C4
:1007F00005490968884700BF0020BDE8FC9F00004C
:1008000055200008F1220008F00000202DE9F047F3
:1008100004460E4617469846DDF8209084F8099065
:10082000607A20F001006072E66127620020A06219
:10083000C4F82480002506E004F1140101EBC50092
:1008400000F082FF6D1C012DF6DBBDE8F08710B5CE
:100850000246002001460EE002F1140303EBC10042
:10086000D0E900436360D0E9003423604060006059
:1008700000BF481C01460129EEDB10BD0349096891
:1008800060F30711014A1160704700000838024008
:100890000349096860F38C21014A11607047000028
:1008A000083802400349096860F34F31014A11607A
:1008B0007047000008380240012807D1074909683D
:1008C00021F030013031054A116005E00349096823
:1008D00021F03001014A116070470000A438024045
:1008E00005282BD2DFE800F0030A11182100154A71
:1008F000126861F30002134B1A6020E0114A12687B
:1009000061F310420F4B1A6019E00E4A126861F34E
:1009100018620C4B1A6012E00A4A7032126861F3D6
:100920000002084B70331A6009E0064A74321268FC
:1009300061F30002034B74331A6000E000BF00BF94
:1009400070470000003802402DE9FE4F04464FF08A
:100950000009CA46CB4600200290019000250026DF
:1009600000F050F90090009820B1012812D0022820
:100970003FD112E031480068C0F3803038B12F48D1
:100980000068C0F3003010B12D48206001E02D4810
:10099000206031E02C4820602EE028489C38006818
:1009A000C0F38050029025489C380068C0F3881935
:1009B00022489C38006800F00F0A20489C380068E4
:1009C000C0F30240214911F800B0029810B91D4847
:1009D000019001E01C4801900AFB0BFC0198A0FB70
:1009E00009700146624600233846FFF719FD206072
:1009F00002E01448206000BF00BF1048983800682B
:100A0000C0F303151248465D2068F04060600B4853
:100A100098380068C0F382250E48465D6068F04053
:100A2000E060064898380068C0F342350A48465DE1
:100A30006068F040A060BDE8FE8F0000A038024072
:100A4000006CDC0200127A000024F400263000085A
:100A500006300008163000081E30000810B50146A8
:100A60000020094B03EB1142D2F8002801F01F04CB
:100A70000123A3401A4001F01F040123A3409A421E
:100A800000D000E0012010BD0030024030B500244D
:100A9000002500E0641C1120FFF7E0FF012802D0D0
:100AA000B4F5405FF6D31120FFF7D8FF012801D03D
:100AB000002500E00125284630BD000010B50129C1
:100AC0000FD1104B03EB1042D2F8002800F01F04A6
:100AD0000123A3401A430B4C04EB1043C3F8002836
:100AE0000EE0084B03EB1042D2F8002800F01F0480
:100AF0000123A3409A43034C04EB1043C3F800289E
:100B000010BD00000030024030B538B90F4C2468E9
:100B100024F4805404F580540C4D2C600B4C9C3C08
:100B2000246860F39654094D9C3D2C602C46246843
:100B300061F38E142C602C46246862F303042C604D
:100B40002C46246863F312442C6030BDA038024068
:100B50001A48006820F00100401C1849086000BFD6
:100B600016480068C0F340000028F9D01348083048
:100B7000006820F0030011490831086000BF0F48E9
:100B800008300068C0F381000028F8D10B480068E5
:100B90000B490840094908600020084908310860ED
:100BA0000848091F086000200449A03108604FF47C
:100BB0001F0002490C3108607047000000380240F5
:100BC000FFFFF2FE023003000D49096860F30101E6
:100BD0000B4A116000BF00BF00BF00BF00BF00BFD5
:100BE00000BF00BF00BF00BF00BF00BF00BF00BF0D
:100BF00000BF00BF00BF00BF00BF00BF70470000C4
:100C00000838024002480068C0F3810070470000C5
:100C100008380240026861F3000202607047002158
:100C20000160416001814181017341738173C1732E
:100C300001744174704702684BF6EF731A4002600A
:100C400002680B891A4302604B7C026863F30D3221
:100C50000260CB7B026863F38B2202608B7B0268AD
:100C600063F3092202604B7B026863F3C7120260E0
:100C70000B7B026863F3861202600B7C026863F3ED
:100C8000451202604B89426863F30F0242600A68B2
:100C900082604A68C26070470021026822F0010247
:100CA00002600022026042608260C260014640F23F
:100CB000FF620A40B2F5C16F0DD2CAB2083A1423DE
:100CC000B2FBF3F293000F229A400D4B1B681A43BC
:100CD0000B4B1A6012E040F2FF620A40B2F5D16F8E
:100CE0000CD2CAB2083A1423B2FBF3F293000F22DB
:100CF0009A40044B1B681A43024B1A60704700006D
:100D00000464024004660240D0F8002161F300024E
:100D1000C0F800217047026861F306020260704764
:100D20004FF6FF7101600021817101714171012154
:100D3000C171704770B50A4600211488A3B233E030
:100D400003F001046CB304684E000325B540AC43C6
:100D5000046094794D00AC4005682C4304604468FD
:100D600001258D40AC434460446815798D402C4387
:100D7000446084684E000325B540AC438460D47958
:100D80004D00AC4085682C438460C4684E00032548
:100D9000B540AC43C46054794D00AC40C5682C43A9
:100DA000C4605B104C1CA1B2002BC9DC70BDF0B557
:100DB000002300244D07ED0E02FA05F3CD105DB1BE
:100DC000456A4E07F70E0F26BE40B5434562456A99
:100DD00045EA030444620AE0056A4E07F70E0F264F
:100DE000BE40B5430562056A45EA03040462F0BDEE
:100DF0001FB5642009214FF40062074BCDE9003292
:100E0000CDE902100023054A05A1084801F0C0F908
:100E1000064801F029FA1FBD08010020A1050008BD
:100E2000496D755F5461736B000000000809002074
:100E300002F026F802F006F84FF47A7001F04CFE4A
:100E400001F096FF01F038FF00231A460D490E48C5
:100E500001F08AFF01210C48FFF7DCFE01F058FF8A
:100E600000231A4607490848143001F07DFF01218C
:100E700005481430FFF7CEFE02F066F801F04EFE92
:100E800000BFFEE7041001400864024010B50446AC
:100E900000F0AAF9FFF7CCFF10BD00002DE9F047E4
:100EA0000B4614464FF0000C00BF2C4A1268C2F3E8
:100EB00002211D4626460A46C2F10709B9F1040F70
:100EC00002D94FF0040901E0C2F10709C84602F156
:100ED0000409B9F1070F02D24FF0000901E0A2F1B5
:100EE00003094F464FF0010909FA08F9A9F1010970
:100EF00009EA050909FA07F94FF0010A0AFA07FA9F
:100F0000AAF1010A0AEA060A49EA0A09CC46014698
:100F10006246002904DB15072E0E114D6E5407E0C2
:100F200015072F0E0D4D0C3501F00F06361FAF556E
:100F300000BF014600290DDB00BF00BF01F01F0507
:100F40000122AA404D09AD0005F1E025C5F80021B8
:100F500000BF00BF00BFBDE8F08700000CED00E05F
:100F600000E400E000BF00F00702064B19684FF6EE
:100F7000FF031940044B0B4343EA0221014B196064
:100F800000BF70470CED00E00000FA0530B51A4CC8
:100F9000436824681919884215D04B889BB9174BB0
:100FA0001B6899420FD0164B1B688B4201D1144B22
:100FB00018604B684360104B1B68C31A0E4D4C6899
:100FC0002D682C44A3600C4C836824681A19824253
:100FD00011D053887BB90A4B1B68834201D1084B5F
:100FE0001A6043685360044B1B68D31A024D44686F
:100FF0002D682C44A36030BD300000203400002058
:10100000380000202DE9F04F86B00D469C46DDE902
:10101000106401960F9B04F04008B8F1000F02D055
:10102000DFF8708101E0DFF87081CDF8008004F016
:101030001008B8F1000F01D024F0010404F00108F9
:10104000B8F1000F02D04FF0300801E04FF0200857
:10105000C246002704F00208B8F1000F11D0002AA0
:1010600002DA2D2752420CE004F00408B8F1000F18
:1010700001D02B2705E004F00808B8F1000F00D0DC
:101080002027002142B94FF0300B8846491C0DF152
:10109000080909F808B01DE01AE0E146B9F10A0FA5
:1010A00008D14FF00A0BB2FBFBFE0BFB1E28B2FB74
:1010B000FBF202E002F00F08120900BFDDF8009019
:1010C00019F808B08846491C0DF1080909F808B05C
:1010D000002AE2D1B14200DD0E469B1B04F011084C
:1010E000B8F1000F10D117B1002B00DD5B1E06E038
:1010F000A84203D84FF0200880F80080401CB3F1CC
:101100000008A3F10103F3DC27B1A84201D807705E
:101110005B1E401C04F01008B8F1000F0AD104E077
:10112000A84201D880F800A0401CB3F10008A3F148
:101130000103F5DC06E0A84203D84FF0300880F840
:101140000080401CB046761E8845F4DC08E0A842CA
:1011500005D80DF1080818F8018080F80080401CBF
:10116000B1F10008A1F1010104DDDDF80480B8F15E
:10117000000FECD106E0A84203D84FF0200880F819
:101180000080401CB3F10008A3F10103F3DC06B0BA
:10119000BDE8F08F53310008423100081CB514201F
:1011A0000A214FF480630022CDE90010044905A014
:1011B00000F021FF0446204601F056F81CBD000057
:1011C0008D0E00086D61696E0000000010B5044CC2
:1011D00002E020688047241D02488442F9D310BDF4
:1011E000683100086C31000810B5044C02E020683A
:1011F0008047241D02488442F9D310BD6C31000899
:101200007031000810B5FFF771F8044604480088F3
:10121000401C00B2024908802046FFF76BF810BD61
:10122000CC00002010B5FFF761F804460B48008899
:10123000401E00B2094908800846B0F900000028A5
:1012400007DC002008802046FFF754F800F05CFC23
:1012500002E02046FFF74EF810BD0000CC00002051
:1012600070B5054605B970BD00BF2248006818B1C9
:10127000284620490968884700BF1F480068854202
:1012800003D31E480068854200D3ECE7A5F11004A3
:101290004FF0FF311A4800F019FD608818B120881E
:1012A000B0F5F55F08D017A000F030FA2388628807
:1012B00021461BA000F02AFA002060804FF4F55070
:1012C000208023480068844201D2214804600A49F2
:1012D00060680968611A401A1E490968081A1D49A0
:1012E00008602046FFF752FE054800F0C7FC00BF2B
:1012F000B9E700002C00002030000020340000205E
:10130000980B0020746F2066726565206120626111
:1013100064206461746120626C6F636B3A0A000040
:101320006D656D3A203078253038782C20757365DE
:101330006420666C61673A2025642C206D616769C2
:101340006320636F64653A203078253034780A0072
:10135000380000204000002000487047B80C0020F2
:1013600000487047B824002070B5FFF751F90A48CB
:1013700000684FF47A71B0FBF1F42046FFF794F95E
:10138000FFF724FFFFF7ECFF0446FFF7E5FF0546F4
:10139000214600F067FD70BD00000020704700008E
:1013A0002DE9F041054605F128062C1D314800685D
:1013B00040B130462F490968884707460FB9BDE854
:1013C000F08100BF2CA0216C00F0A0F92EA0616A72
:1013D00000F09CF930A0A16A00F098F932A0E16A0F
:1013E00000F094F934A0216B00F090F936A0616808
:1013F00000F08CF938A0A16800F088F93AA0E16803
:1014000000F084F93CA0216900F080F93EA06169F8
:1014100000F07CF940A0A16900F078F942A0E169F0
:1014200000F074F944A0216A00F070F946A0616BE5
:1014300000F06CF948A0A16B00F068F94AA0E16BDC
:1014400000F064F9287800F0040038B100F0E4FE00
:101450000746394648A000F059F902E04EA000F0D6
:1014600055F9287800F0100010B952A000F04EF99C
:1014700000BFFEE7140000207073723A2030782518
:101480003038780A000000007230303A2030782579
:101490003038780A000000007230313A2030782568
:1014A0003038780A000000007230323A2030782557
:1014B0003038780A000000007230333A2030782546
:1014C0003038780A000000007230343A2030782535
:1014D0003038780A000000007230353A2030782524
:1014E0003038780A000000007230363A2030782513
:1014F0003038780A000000007230373A2030782502
:101500003038780A000000007230383A20307825F0
:101510003038780A000000007230393A20307825DF
:101520003038780A000000007231303A20307825D7
:101530003038780A000000007231313A20307825C6
:101540003038780A000000007231323A20307825B5
:101550003038780A00000000206C723A203078257C
:101560003038780A000000002070633A2030782577
:101570003038780A00000000686172642066617586
:101580006C74206F6E207468726561643A202573F4
:101590000D0A0D0A00000000686172642066617522
:1015A0006C74206F6E2068616E646C65720D0A0D3C
:1015B0000A00000046505520616374697665210D6C
:1015C0000A000000F0B504460D461646301D20F016
:1015D000070044380146002203E00D4F41F8227015
:1015E000521C112AF9D34D624FF0000CC1F828C0EB
:1015F000C1F82CC0C1F830C0C1F834C08B63CC63D3
:101600004FF0807CC1F840C000270F60F0BD0000A3
:10161000EFBEADDE10B5FEF769FE0446084800785F
:10162000401C0749087000BF0648006810B1054813
:101630000068804700BF2046FEF75CFE10BD00003A
:10164000240000201C00002010B5FEF74FFE0446C9
:1016500008480078401E0749087000BF0648006827
:1016600010B105480068804700BF2046FEF742FEE3
:1016700010BD0000240000202000002070B50446AA
:101680002068A0F11405284600F09CFD002070BDE4
:101690002DE9F04105460C469046204600F0FAFD43
:1016A000B8F1000F03D0B8F1010F23D105E004F128
:1016B0001401284600F060F81CE02E680FE0A6F147
:1016C000140794F8350097F83510884206DA04F1CB
:1016D000140107F1140000F04FF802E03668AE4242
:1016E000EDD100BFAE4204D104F11401284600F050
:1016F00043F800BF00BF0020BDE8F08110B50446EC
:1017000004F1140000F01AF8002010BD0FB438B531
:1017100005A800907F210848009B049A00F08AFFEA
:1017200004467F2C00D97F240348FFF737FE0020B2
:10173000009038BC5DF814FB180B0020406000607E
:10174000704740600060704740600060704702680A
:10175000516002680A600160486070470268516029
:1017600002680A6001604860704702685160026860
:101770000A600160486070474268116042684A60D0
:1017800041600860704701460868884201D1012025
:1017900070470020FCE701460868884201D101201B
:1017A00070470020FCE7D0E900215160D0E9001229
:1017B0001160406000607047D0E900215160D0E9BD
:1017C0000012116040600060704700002DE9F04198
:1017D000054615B90020BDE8F081E81D20F0070599
:1017E00054480068854201D90020F4E7102D00D24A
:1017F00010254FF0FF31504800F068FA4F4800685C
:101800004F490968461A8AE04D4800688419608883
:1018100000287CD106F110006168081AA8427AD32A
:1018200006F110006168091A05F12000814230D3E9
:1018300006F1100000EB05084148006800EB0807BE
:101840004FF4F55038800020788060687860BE6082
:10185000C4F8048001206080364879680068103040
:10186000814205D03649786809680844C0F8088084
:101870003448016805F110000844324908603248D4
:1018800000680968884219D22E4800682E4908600D
:1018900014E0012060802A4960680968611A401AD2
:1018A00028490968084427490860274800680968EA
:1018B000884203D223480068234908604FF4F5505A
:1018C00020801E480068844212D107E01B4800684F
:1018D00040681B49096808441849086017480068AF
:1018E000408828B115480068184909688842EDD138
:1018F000114800F0C3F900BF1548006828B1294617
:1019000004F11000124A1268904700BF00E002E0A4
:1019100004F110005FE70A48006830444668054853
:101920000068401BB0423FF66FAF034800F0A6F9D5
:10193000002050E73C000020980B002038000020D9
:10194000300000204000002044000020340000202F
:1019500028000020F0B50C460546E6B2042A15D34F
:1019600000F0030797B9014646EA062343EA03431A
:1019700004E008C108C108C108C1103A102AF8D211
:1019800001E008C1121F042AFBD20D4601E005F850
:10199000016B171EA2F10102F9D1F0BD2DE9F04152
:1019A00006460F46304600F067F80546E868FFF740
:1019B0000DFF044614B90020BDE8F0810021204647
:1019C000EA68FFF7C7FF26720020607208223946D6
:1019D000204600F02CFA00BF0A48006818B12046E3
:1019E00008490968884700BFFEF780FC804604F17B
:1019F0000C01281DFFF7ABFE4046FEF77BFC20469E
:101A0000DAE70000B800002070B5044600BF0C48BB
:101A1000006818B120460A490968884700BF0020BD
:101A20002072FEF763FC054604F10C00FFF7BBFED5
:101A30002846FEF75FFC2046FFF712FC70BD000051
:101A4000BC00002070B5044600BF0A48006818B109
:101A5000204608490968884700BF00202072FEF729
:101A600045FC054604F10C00FFF79DFE2846FEF7F5
:101A700041FC70BDBC000020024600210AE007487E
:101A800000EB01100078904203D1044800EB0110F4
:101A90007047491C0729F2DB0020F9E748000020C5
:101AA0002DE9F04104460D4616462846FFF7E4FFAF
:101AB000074645F08000207208223146204600F09B
:101AC000B6F900BF0A48006818B1204608490968FD
:101AD000884700BFFEF70AFC804604F10C01381D60
:101AE000FFF735FE4046FEF705FCBDE8F08100003B
:101AF000B80000200146087A00F0800008B10120FB
:101B000070470020FCE700002DE9F041FEF7EEFBF6
:101B1000074620480088002837D11F480068FEF794
:101B2000F7FD461E1D4850F83600A0F114041C486D
:101B30000068844225D01B490E701948056804606E
:101B400000BF1948006820B121462846164A12688D
:101B5000904700BF1548007848B904F11C0105F111
:101B60001C00FEF7CAFB3846FEF7C4FB0CE004F18C
:101B70001C0105F11C00FEF7C0FB3846FEF7BAFB5E
:101B800002E03846FEF7B6FB02E03846FEF7B2FB4D
:101B9000BDE8F081CC000020D8000020B80B002068
:101BA000D0000020D4000020E40000202400002009
:101BB00070B50446FEF79AFB054614F8340F20F082
:101BC0000F0040F0010020706278343C0A4B03EBB8
:101BD000C20004F114014268116042684A60416029
:101BE000086000BF0549A06B096808430349086005
:101BF0002846FEF77FFB70BDB80B0020D800002000
:101C000070B50446FEF772FB054604F11400D0E9F6
:101C100000215160D0E9001211604060006000BFF7
:101C200094F83510094A02EBC1000168814201D1E4
:101C3000012100E0002129B10548A16B006888431B
:101C4000034908602846FEF755FB70BDB80B00201D
:101C5000D80000202DE9F04104460D4616461F46E7
:101C60002A4601212046FFF71BFF2046FFF746FDCD
:101C7000A68367720020BDE8F081000070B50446BD
:101C800000BF1148006818B120460F49096888470D
:101C900000BF0025FEF72AFB064604F11400FFF7FB
:101CA00072FD28B904F11400FFF7E8FC012502E0F9
:101CB000A08B401CA0833046FEF71CFB012D01D1F8
:101CC000FFF722FF002070BDC800002073B5054655
:101CD00000BF2448006818B128462249096888478F
:101CE00000BFFEF703FB0646A88B002806DDA88B85
:101CF000401EA8833046FEF7FDFA28E0019828B977
:101D00003046FEF7F7FA6FF001007CBD00F084FA70
:101D10000446002020636A7A214605F11400FFF78B
:101D2000B7FC0198002809DD01AA002104F14C004C
:101D300000F092FB04F14C0000F0D2FB3046FEF7BD
:101D4000D9FAFFF7E1FE206B08B1206BDDE700BF99
:101D50000548006818B1284603490968884700BF4C
:101D60000020D2E7C0000020C400002008B509A070
:101D7000FFF7CCFC0AA0FFF7C9FC12A00223012246
:101D80000321009012A0FFF7C1FC19A0FFF7BEFCD1
:101D900008BD00000A205C207C202F0A0000000003
:101DA0002D205254202D202020202054687265615F
:101DB00064204F7065726174696E67205379737423
:101DC000656D0A00417567202037203230323600B9
:101DD000202F207C205C202020202025642E2564BC
:101DE0002E2564206275696C642025730A0000004A
:101DF0002032303036202D203230313920436F7080
:101E00007972696768742062792072742D746872BF
:101E1000656164207465616D0A00000001460A4630
:101E200000E0521C10780028FBD1501A704770B5A2
:101E30000346A2B118460C4600BF14F8016B00F827
:101E4000016B3EB902E0002500F8015B551E2A1E19
:101E5000F9D102E0551E2A1EEFD100BF00BF18467F
:101E600070BD00002DE9F04105460E46E81D20F04A
:101E7000070726F00708B8F1200F09D9A8F12000BC
:101E8000B84205D3A8EB070020381E49086006E0D9
:101E9000324629461CA0FFF739FCBDE8F0812948ED
:101EA000076004684FF4F550208016480068103031
:101EB00060600020A0606080224960680968084472
:101EC000214908604FF4F5500968088001201E4937
:101ED000096848800B48006810301B490968486051
:101EE00008480068103018490968886000230122FA
:101EF00016A11848FFF7AEFE1248006816490860A0
:101F000000BFCAE73C0000206D656D20696E6974F2
:101F10002C206572726F7220626567696E20616441
:101F2000647265737320307825782C20616E64208C
:101F3000656E6420616464726573732030782578FF
:101F40000A00000030000020340000206865617045
:101F500000000000980B00203800002010B5002081
:101F60000B490880002405E00A4901EBC400FFF793
:101F7000E8FB641C202CF7DB1F20074908700020B9
:101F800006490860064908600648FFF7DAFB10BDFD
:101F9000CC000020B80B0020D4000020D00000208E
:101FA000D8000020DC00002070B508480068FEF76B
:101FB000AFFB451E064850F83500A0F11404054853
:101FC000046004F11C00FEF7DEF970BDD8000020AB
:101FD000B80B0020D000002010B5002405E0044913
:101FE00001EBC400FFF7B0FB641C002CF7D010BD60
:101FF000F400002070472DE9FF5F06460F4690462B
:102000001D46DDE90EAB31460020FFF7C7FC8146D7
:10201000B9F1000F03D1002004B0BDE8F09F2846BD
:10202000FFF7D4FB044624B94846FFF7EDFC002037
:10203000F2E743463A46314648468DE8300CFEF713
:1020400097FB4846E8E710B50446204600F0EAF85A
:1020500010BD000070B512480468FEF747F9054648
:102060002046FFF7CDFD042084F8340004F14C0035
:1020700000F00EFA2046FFF73DFD012805D1A06FC4
:1020800018B92046FFF7DEFC04E004F1140105480E
:10209000FFF764FB2846FEF72DF9FFF735FD70BD0D
:1020A000D0000020DC0000200FE0002408E00748FA
:1020B00050F8240018B1054951F824008047641CE9
:1020C000042CF4D300F004F800BFEEE7080B002066
:1020D00070B537E0FEF70AF90546FEF73FFB18B387
:1020E0001B480068A0F1140404F11400D0E9002199
:1020F0005160D0E9001211604060006000BFFFF73E
:1021000081F8A06F10B12046A16F88472046FFF7E5
:10211000F1FC012805D1FFF785F82846FEF7EAF81B
:1021200070BDFFF77FF803E02846FEF7E3F8F7E716
:102130002846FEF7DFF8A06AFFF792F82046FFF77F
:1021400063FC00BFFEF70AFB0028C3D100BFE7E72E
:10215000DC0000201FB520201F21C200074BCDE965
:102160000032CDE902100023054A06A1074800F01D
:102170000FF8064800F078F81FBD0000080A00209C
:10218000A92000087469646C6500000088090020BB
:102190002DE9FF5F05460C4616461F46DDE910ABEC
:1021A000DDE90E89224600212846FFF779FC3B46EF
:1021B0003246214628468DE8000FFEF7D9FA04B0D2
:1021C000BDE8F09F70B5044694F8340000F00F00AD
:1021D000022802D04FF0FF3070BDFEF787F80546A9
:1021E00004F11400FFF7E8FA04F14C0000F0FEF9E6
:1021F0002846FEF77FF82046FFF7DAFC00BF0548C7
:10220000006818B1204603490968884700BF0020CC
:10221000E2E70000EC000020014800687047000081
:10222000D000002031B5FEF761F805460D4804687E
:10223000204600F02FF86A46002104F14C0000F01F
:102240000BF904F14C0000F04BF92846FEF752F868
:10225000FFF75AFC206B801C08B900202063002087
:1022600038BD0000D000002010B504463434A078FA
:1022700060706178012088406060022004F83409B1
:102280002046FFF79FFFFFF7C7FF08B1FFF73CFCB1
:10229000002010BD70B5044694F8340000F00F0023
:1022A000012802D04FF0FF3070BDFEF71FF8054641
:1022B00094F8340020F00F0040F0020084F834005D
:1022C0002046FFF79DFC04F14C0000F08FF92846F2
:1022D000FEF710F800BF0548006818B12046034912
:1022E0000968884700BF0020DEE70000E800002002
:1022F00070B5044625466FF00100286305F114000F
:10230000FFF75AFA2846FFF753FCFFF7FDFB70BDB5
:1023100070B5FDF7EBFF05461448046894F83400E7
:1023200000F00F0001281CD1D4E90510814218D01B
:1023300004F11400FFF740FA94F835200C4B03EB3E
:10234000C20004F114014268116042684A604160B1
:10235000086000BF2846FDF7CDFFFFF7D5FB002042
:1023600070BD2846FDF7C6FF0020F9E7D000002029
:10237000B80B0020014800687047000018000020DA
:1023800010B50A480068401C08490860FFF744FF80
:102390000446A06C401EA064A06C18B9606CA064D8
:1023A000FFF7B6FF00F004F810BD00001800002091
:1023B00070B5FFF7DFFF0546FDF798FF06463AE0E8
:1023C00022480068A0F11404A06A281A6FF00041A6
:1023D00088422FD200BF1E48006818B120461C4911
:1023E0000968884700BF2046FEF731FAD4E9071094
:1023F0008847FFF7BFFF054600BF1648006818B1C1
:10240000204614490968884700BF607A00F002003E
:1024100058B1607A00F0010038B1607A20F0010014
:102420006072204600F05CF805E0607A20F0010060
:10243000607200E004E00548FFF7ADF90028BFD066
:1024400000BF3046FDF756FF70BD0000F4000020CD
:10245000FC00002000010020034649B1012904D0FE
:10246000022908D0032910D10AE0586A10600CE054
:102470001068586209E0587A20F00200587204E0AF
:10248000587A40F00200587200BF00BF0020704729
:1024900070B50446FDF72AFF05462046FEF7D7F93A
:1024A0002846FDF727FF2046FFF7CCFA002070BD35
:1024B0002DE9F84307460C4615461E46DDE9088916
:1024C000224609213846FFF7EBFA434632462946B1
:1024D0003846CDF80090FEF799F9BDE8F883000082
:1024E0002DE9F8430546FDF701FF80462846FEF733
:1024F000AEF9687A20F0010068724046FDF7FAFEF6
:1025000000BF3748006818B1284635490968884730
:1025100000BFFFF72FFF696A0844A862FDF7E6FED7
:102520008046304E009600242AE019E05DF8242011
:102530001168142202EBC402881A826AAB6AD21AAA
:1025400000D108E0826AAB6AD21A6FF000439A4267
:1025500000D20CE000BF5DF8240000684DF82400B4
:102560005DF8240006EBC40149688842DED100BF53
:102570002CB15DF824000830611C4DF82100641C6A
:10258000002CD2D018480068401C17490860084643
:10259000076805F114010098FFF7E7F8022412E03C
:1025A00007F0030060B9C4F1010305F1140202EB66
:1025B000C301C4F101025DF82200FFF7D6F800E084
:1025C00003E0BF08641C012CEAD900BF687A40F020
:1025D000010068724046FDF78DFE0020BDE8F883DB
:1025E000C4000020F40000200401002070B504465F
:1025F000607A00F0010010B94FF0FF3070BD00BFED
:102600000B48006818B1204609490968884700BF8F
:10261000FDF76CFE05462046FEF719F92846FDF742
:1026200069FE607A20F0010060720020E6E7000099
:10263000C80000202DE9FF4F89B0804644460A9823
:102640004044461E464504D24FF0FF36A6EB080034
:102650000A906FE10B980078252806D0B44202D882
:102660000B9800782070641C61E1002526E00B982F
:10267000401C0B900B9800782D2802D145F01005D6
:102680001CE00B9800782B2802D145F0040515E0DA
:102690000B980078202802D145F008050EE00B9831
:1026A0000078232802D145F0200507E00B98007838
:1026B000302802D145F0010500E000E0D7E700BF77
:1026C0004FF0FF370B98007830380A2804D20BA857
:1026D00000F061F907460EE00B9800782A280AD12D
:1026E0000B98401C0B900C9880C80C90002F02DABD
:1026F0007F4245F010054FF0FF390B9800782E28E7
:102700001CD10B98401C0B900B98007830380A288D
:1027100004D20BA800F03FF981460AE00B9800783C
:102720002A2806D10B98401C0B900C9850F8049B5B
:102730000C90B9F1000F01DA4FF00009002004906D
:102740000B980078682803D00B9800786C2805D186
:102750000B98007804900B98401C0B900A20059071
:102760000B9800786F2875D00CDC632813D004DC3C
:10277000252870D058286FD18DE064286DD0692845
:10278000F9D18FE070286AD0732825D0752878D0C9
:102790007828F0D182E005F0100040B904E0B4429E
:1027A00001D820202070641C781E071EF7DC0C98CE
:1027B00010F8041B0C90C8B20790B44201D80798D7
:1027C0002070641C04E0B44201D820202070641CF6
:1027D000781E071EF7DCAAE00C98006806900C989B
:1027E000001D0C90069808B95AA006900698FFF7AD
:1027F00015FB8346B9F1000F02DDCB4500DDCB466A
:1028000005F0100048B904E0B44201D8202020703F
:10281000641C38467F1E5845F6DC002008900BE00B
:10282000B44202D8069800782070641C0698401CB8
:1028300006900898401C089008985845F0DB04E082
:10284000B44201D820202070641C38467F1E5845B1
:10285000F6DC6CE01CE015E028E022E0FFE7781CE5
:1028600010B9082745F00105CDE9007902950C98CB
:1028700004C8102331460C902046FEF7C3FB0446E3
:1028800055E012E0B44201D825202070641C4EE0CF
:10289000082005901DE045F0400500BF1020059080
:1028A00017E000BF45F0020500BF12E0B44201D8B6
:1028B00025202070641C0B98007830B1B44202D8F7
:1028C0000B9800782070641C02E00B98401E0B905F
:1028D0002DE000BF04986C2807D10C9850F804AB89
:1028E0000C9005F00200B8B116E0049868280BD1EE
:1028F0000C9830F8041B1FFA81FA0C9005F00200C6
:1029000050B10FFA8AFA07E00C9850F804AB0C901B
:1029100005F0020000B100BFCDE9007902955246F2
:1029200031462046059BFEF76DFB044600BF0B9821
:10293000401C0B900B98007800287FF48BAEB442BB
:1029400001D8207001E000203070A4EB08000DB029
:10295000BDE8F08F284E554C4C29000000207047F0
:1029600000207047002070470020704710B5FDF729
:10297000BDFCFEF7F9FCFFF7F9F9FFF72DFBFFF7B8
:10298000EDFAFEF70BFCFFF735FBFFF7E3FBFFF774
:102990000BFB002010BD0146002009E00B685A1C0B
:1029A0000A601A7800EB800302EB4302A2F13000C8
:1029B0000A681278303A0A2AF0D370472DE9FC5F92
:1029C000002400250026A146A246A346002001902F
:1029D000FEF718F90090009820B1012814D00228C1
:1029E00041D115E02B480068C0F3803040B1294840
:1029F0000068C0F3003018B127482849086002E099
:102A000027482649086032E02648244908602EE01D
:102A100020489C380068C0F380591E489C380068E4
:102A2000C0F388141B489C38006800F00F05194853
:102A30009C380068C0F302401B490E5CB9F1000FDE
:102A400002D1DFF85CA001E0DFF858A005FB06FC2E
:102A5000AAFB04700146624600233846FDF7E0FCFD
:102A60000E49086003E00E480C49086000BF00BF33
:102A7000084898380068C0F3031B0C4810F80B0096
:102A80000190064800680199C84004490860BDE803
:102A9000FC9F0000A0380240006CDC020000002017
:102AA00000127A000024F4003C3000082C300008AA
:102AB000042808D14FF0E021096941F004014FF0EA
:102AC000E022116107E04FF0E021096921F00401E3
:102AD0004FF0E022116170477FB5044600260025C3
:102AE0006846FDF731FF0198C6080020FFF7E0FFB8
:102AF000B6FBF4F5681EB0F1807F02D3002004B06D
:102B000070BD681E4FF0E0214861002088610846D2
:102B1000006940F0030008610120F0E710B572B6CB
:102B2000FEF766F962B610BD426961F38612426132
:102B30007047426961F3C71242617047C26861F32E
:102B40004D32C260704741B9426922F480724261DD
:102B5000426922F40072426127E001290AD14269E8
:102B600022F4807202F580724261426922F400729E
:102B700042611AE002290AD1426922F4807242615C
:102B8000426922F4007202F5007242610DE00329ED
:102B90000BD1426922F4807202F58072426142696F
:102BA00022F4007202F50072426170472DE9FF477E
:102BB00004468846164699466846FDF7C5FE2448F1
:102BC000844202D02348844201D1029F00E0039F47
:102BD00007EB87004000B0FBF8F50A20B5FBF0F1E9
:102BE00000FB1150052803D20A20B5FBF0F503E0E5
:102BF0000A20B5FBF0F0451CA06865F30F00A0604B
:102C000056B9E06820F0805000F18050E060E06844
:102C100020F48050E06014E0012E08D1E06820F03C
:102C20008050E060E06820F48050E06009E0E068F7
:102C300020F08050E060E06820F4805000F5805083
:102C4000E060206969F30D302061BDE8FF87000076
:102C5000001001400014014041B9C26822F4007222
:102C6000C260C26822F48062C2601AE001290AD1FF
:102C7000C26822F40072C260C26822F4806202F567
:102C80008062C2600DE002290BD1C26822F400729A
:102C900002F50072C260C26822F4806202F58062AE
:102CA000C2607047C26861F38202C2607047C26846
:102CB00061F3C302C260704700B585B01348FDF7E9
:102CC000EBFF6846FDF7ABFF0020ADF808008DF87C
:102CD0000F0001208DF80D0000208DF80E008DF8FA
:102CE0000C008DF811008DF8100069460748FDF7BB
:102CF000A2FF012105480838FEF706F8182103480D
:102D0000FC30FEF708F805B000BD00000864024082
:102D100000B585B01348FDF7BFFF6846FDF77FFF9C
:102D20001020ADF8080000208DF80F0001208DF86C
:102D30000D0000208DF80E008DF80C008DF81100AC
:102D40008DF8100069460748FDF775FF0121054819
:102D50001C38FDF7D9FF19210248EC30FDF7DBFFE5
:102D600005B000BD1C64024043608160C2607047D2
:102D700070B50320FEF7F6F8FDF7AEFC054600221D
:102D80001146FDF71CFC044621466FF00B00FDF7D1
:102D9000ABFCFDF7A1FC054600221146FDF70FFC38
:102DA000044621466FF00A00FDF79EFCFDF794FCF7
:102DB000054600221146FDF702FC044621466FF04D
:102DC0000900FDF791FCFDF787FC0546002211463E
:102DD000FDF7F5FB044621466FF00400FDF784FC87
:102DE000FDF77AFC054600221146FDF7E8FB044694
:102DF00021466FF00300FDF777FCFDF76DFC0546FB
:102E000000220F21FDF7DBFB044621466FF0010095
:102E1000FDF76AFCFDF760FC054600221146FDF750
:102E2000CEFB044621464FF0FF30FDF75DFC00224B
:102E300011463820FEF732F8002211463920FEF7FD
:102E40002DF870BD10B501214FF44010FDF736FE8E
:102E500001210948FDF732FE01210748801DFDF7D9
:102E60002DFE012104481530FDF728FE01210348FD
:102E7000FDF724FE10BD00000100300004004400F6
:102E800010B5FDF765FE01212B48FDF717FE2B4815
:102E9000006920F00700401C2849086128480068A4
:102EA00020F00300401C2649086001210420FDF7A2
:102EB00017FD00BF2348FDF7D1FD0128FAD10121FC
:102EC0000846FDF70DFD00BFFDF7E0FD0028FBD033
:102ED00001210020FDF704FD00BF0120FDF7BEFD2C
:102EE0000128FAD10223012290210020FDF70CFED7
:102EF00001210220FDF7F4FC00BF1920FDF7AEFD13
:102F00000128FAD10020FDF7B9FC0420FDF7CAFC26
:102F10000420FDF7BDFC0120FDF7CEFC0220FDF7EB
:102F200053FE00BFFDF76EFE0228FBD10020FDF727
:102F3000C3FCFFF743FD10BD1C00400000700040C3
:102F4000603C0240010074001CB56846FDF7E8FED5
:102F5000072209212748FDF72AFF02208DF80700E4
:102F600000208DF8040002208DF806000002009079
:102F700000208DF8050069461E48FDF7DBFE07229C
:102F80000A211C48FDF713FF02208DF807000020DE
:102F90008DF8040002208DF8060040020090002009
:102FA0008DF8050069461348FDF7C4FE0023012291
:102FB0004FF461211048FFF7F9FD01210E48FFF79A
:102FC00076FE01210C48FFF76DFE00210A48FFF74D
:102FD00043FE01210848FFF7ACFD01210648FFF739
:102FE000A3FD00210448FFF7AEFD01210248FFF7D1
:102FF000A5FD1CBD00000240001001404FF04070D4
:10300000E1EE100A7047000000000000000001021D
:103010000304060708090000000001020304000081
:103020000000010203040102040810200000000057
:103030000000000001020304060708090102040859
:103040001020000001000200010003000100020046
:103050000100040001000200010003000100020061
:103060000100050001000200010003000100020050
:103070000100040001000200010003000100020041
:10308000010006000100020001000300010002002F
:103090000100040001000200010003000100020021
:1030A0000100050001000200010003000100020010
:1030B0000100040001000200010003000100020001
:1030C00001000700010002000100030001000200EE
:1030D00001000400010002000100030001000200E1
:1030E00001000500010002000100030001000200D0
:1030F00001000400010002000100030001000200C1
:1031000001000600010002000100030001000200AE
:1031100001000400010002000100030001000200A0
:10312000010005000100020001000300010002008F
:103130000100040001000200010003000100020080
:1031400001003031323334353637383961626364E7
:1031500065660030313233343536373839414243D1
:103160004445460069290008612900085D290008D6
:1031700065290008943100080000002008010000C3
:10318000480200089C32000808010020102A0000B4
:103190006402000800127A00000000000000000035
:1031A000000000000000000000000000000000001F
:1031B000000000000000000000000000000000000F
:1031C00000000000000000000000000000000000FF
:1031D00000000000000000000000000000000000EF
:1031E0004C0000204C000020800000000100000086
:1031F0005C0000205C0000202000000002000000B5
:103200006C0000206C00002024000000030000007F
:103210007C0000207C000020200000000400000052
:103220008C0000208C000020300000000500000011
:103230009C0000209C0000203400000009000000D9
:10324000AC000020AC0000202C00000000000000BA
:10325000000000000000000000000000000000006E
:10326000000000000000000000000000000000005E
:10327000000000000000000000000000000000004E
:10328000000000000000000000000000000000003E
:0C32900000000000000000000000000032
:040000050800020DE0
:00000001FF
