:020000040800F2
:10000000184E0020ED020008390F00080F04000808
:10001000350F0008D50500081D130008000000007A
:10002000000000000000000000000000DF100008D9
:1000300025070008000000005B0300084D120008BF
:100040000703000807030008070300080703000868
:100050000703000807030008070300080703000858
:100060000703000807030008070300080703000848
:100070000703000807030008070300080703000838
:100080000703000807030008070300080703000828
:1000900007030008070300080703000829070008F2
:1000A0000703000807030008070300080703000808
:1000B000F1120008070300080703000807030008FF
:1000C00007030008070300080703000807030008E8
:1000D00007030008070300080703000807030008D8
:1000E00007030008070300080703000807030008C8
:1000F00007030008070300080703000807030008B8
:1001000007030008070300080703000807030008A7
:100110000703000807030008070300080703000897
:10012000290600082D060008070300080703000839
:10013000610600080703000807030008070300081A
:100140000703000807030008070300080703000867
:10015000F906000807030008000000000703000874
:10016000070300080703000800000000000000006B
:100170000703000807030008070300080000000049
:100180000000000007030008070300080703000839
:10019000070300080000000000000000000000004D
:1001A000000000000000000000000000070300083D
:1001B000070300080000000007030008000000001B
:1001C000000000000000000000000000000000002F
:1001D00000000000000000000703000807030008FB
:1001E00007030008070300080703000807030008C7
:1001F00007030008070300080703000807030008B7
:1002000007030008070300080703000800F002F8CE
:1002100000F05CF80AA090E8000C82448344AAF144
:100220000107DA4501D100F051F8AFF2090EBAE842
:100230000F0013F0010F18BFFB1A43F0010318471A
:10024000E0540000005500000A444FF0000C10F884
:10025000013B13F0070408BF10F8014B1D1108BF44
:1002600010F8015B641E05D010F8016B641E01F8E4
:10027000016BF9D113F0080F1EBF10F8014BAD1C34
:100280000C1B09D16D1E58BF01F801CBFAD505E052
:1002900014F8016B01F8016B6D1EF9D59142D6D3AC
:1002A000704700000023002400250026103A28BFD4
:1002B00078C1FBD8520728BF30C148BF0B607047D8
:1002C0001FB504F0EFFB1FBD10B510BD00F042F9E3
:1002D0001146FFF7F5FF00F076F900F060F903B47E
:1002E000FFF7F2FF03BC00F067F900000948804700
:1002F00009480047FEE7FEE7FEE7FEE7FEE7FEE708
:10030000FEE7FEE7FEE7FEE704480549054A064B1F
:1003100070470000611200080D0200081848002014
:10032000184E0020184A0020184A0020EFF31080D1
:1003300072B6704780F310887047434A1368012BE8
:1003400004D04FF001031360404A1060404A11602E
:1003500040484FF0805101607047EFF3108272B651
:100360003948016851B34FF0000101603748016816
:1003700091B1EFF309811EF0100F08BF21ED108B32
:1003800021E9F00F4FF000041EF0100F08BF012408
:1003900041F8044D006801602D490968096808C9E1
:1003A000B1E8F00F002B18BFB1EC108B81F3098876
:1003B0004EF0100E002B18BF2EF0100E82F3108896
:1003C0004EF0040E704722490860EFF3148222F0C9
:1003D000040282F314881D494FF0000008601A4996
:1003E0004FF0010008601C484FF47F01D0F8002056
:1003F00041EA0201016017484FF08051016017483F
:100400000068006880F3088861B662B670471EF025
:10041000040F0CBFEFF30880EFF3098020E9F00F21
:1004200040F804ED40F804ED1EF0040F0CBF80F31B
:10043000088880F3098800B501F0C0FE5DF804EB80
:100440004EF0040E70470000540000204C000020C5
:100450005000002004ED00E020ED00E008ED00E099
:1004600053EA020C00F069802DE9F04B4FF00006D2
:10047000002B1FBFB3FA83F503FA05F424FA05F63F
:100480005E4012BF1643B2FA82F502FA05F4C5F1D6
:1004900020051EBF22FA05FC44EA0C04203556EA6A
:1004A000044C4FEA144418BF641C4FF000084FF08E
:1004B0000009904271EB030C39D3002919BFB1FA3E
:1004C00081F701FA07F6B0FA80F700FA07F6C7F1EC
:1004D00020071EBF20FA07FC46EA0C062037B6FBB1
:1004E000F4FCA7EB0507103F07F01F0BCBF120062C
:1004F0000CFA0BFB2CFA06F644BFB3460026202F5D
:10050000A4BF5E464FF0000B5BEA060C08BF4FF03D
:10051000010B19EB0B09ABFB027C48EB0608C01B77
:1005200006FB02CC0BFB03CC71EB0C01C1E70B46C5
:10053000024641464846BDE8F08B13B54FF0000037
:100540004FF00001AFF30080BDE81C4070477047DA
:1005500070477047754600F02BF8AE4605006946B7
:10056000534620F00700854618B020B5FFF7CCFEB3
:10057000BDE820404FF000064FF000074FF00008A4
:100580004FF0000B21F00701AC46ACE8C009ACE825
:10059000C009ACE8C009ACE8C0098D46704710B589
:1005A0000446AFF300802046BDE81040FFF797BE39
:1005B00000487047B847002001491820ABBEFEE74D
:1005C00026000200704710B5FFF7B0FE03F058FC9C
:1005D000002010BD00BFFEE770B502460B460020AC
:1005E00000210AE0545C84EA2025EDB2044E36F87E
:1005F000155085EA0025A8B2491C9942F2DB70BD6E
:10060000EC4B000870B502460023002005E0145CA6
:1006100083EA0405034E735D401C8842F7DB1846ED
:1006200070BD0000EC4A00087047000010B50A4891
:100630000068C0F3401070B101F0FAFE202001F014
:100640003DF9002104481C3001F026F9002003493F
:10065000086001F007FF10BD0064024008000020A0
:1006600010B586B01F480068C0F34040002837D05E
:1006700001F0DEFE4FF4003001F020F94FF480303D
:1006800001F01CF91848446914B340690088012836
:1006900014D10122C103154801F0FAF90120ADF887
:1006A00004000F2212490DF1060002F0D1F91222C6
:1006B00001A91048006802F00FFB00BF00200A49A2
:1006C00048612146084803F087FB00200649087668
:1006D00000210448583001F0DFF801F0C3FE00BFEC
:1006E00006B010BD00640240081F00200000024058
:1006F000772C00201C00002010B509480068C0F3CA
:10070000405060B101F094FE4FF4001001F0D6F8B3
:10071000002103486C3001F0BFF801F0A3FE10BDCA
:10072000006402407047000010B501F081FE4020D7
:1007300001F05AF904480078012802D1034800F07A
:10074000A9FB01F08FFE10BD00000020081F002053
:100750007FB500F0EFF80546124C13482168C0F849
:100760006C136168C0F87013A168C0F87413C0F806
:1007700078534FF4007200F1180100F0FEFB0A20DC
:1007800009214FF40072094BCDE90032CDE9021086
:100790000023074A07A10B4802F0EAFE094802F0CD
:1007A00053FF7FBDE8F7FF1FD0030020500100205A
:1007B000C90700084644494C696E6B4D616E61671C
:1007C00065720000500300202CE04FF4C8721649F7
:1007D000A1F55F7000F00EFC0446002C21DD0FE057
:1007E000012002F020FE114801680068401C0F4AF9
:1007F000106041F28830814202DB00200C49086021
:100800000B4800680028EBD1012009490860A3B219
:10081000054A0849084803F0E9FE0121064801F0AD
:100820003BF800BFD1E700004C0700200C0000207F
:1008300008000020041001401C64024038B5044642
:100840000D46B7EE000A1C4880EDD10AB0EE000A52
:1008500080EDD20AB0EE080A80EDD30AB1EE000AAC
:1008600080EDCE0AB1EE040A80EDCF0AB1EE080A9F
:1008700080EDD00AB1EE0C0A80EDD40AB2EE000A87
:1008800080EDD50AB2EE020A80EDD60AB2EE040A75
:1008900080EDD70A00F54E70C0E90B454420074BA8
:1008A000F32207490090074800F00EF84C22054952
:1008B000014800F06AFB38BDD00300200807002083
:1008C000E0080020280A00202DE9F05F04460E46CB
:1008D000904699460A9DFC20207084F80180A570FE
:1008E00096F82010306A401C3062E17004212046E6
:1008F000FFF788FE834684F804B015B90520BDE8EB
:10090000F09F04F1070A002004E019F800100AF82B
:100910000010401CA842F8DBE9B25046FFF75CFE2D
:10092000074638126071A771FD21E81D2154401C53
:10093000E5E7000002480088C0F30B0070470000A4
:10094000002004E010B50448006800B910BD034859
:1009500002F084FB00BFF9E714000020A813002078
:1009600008E04FF0FF31044802F0A0FB6F200021A7
:10097000FFF764FFF5E70000A813002008B5022286
:100980006946152000F000F99DF8000020F02000D5
:1009900000909DF8000020F0400000909DF80000BD
:1009A00020F08000009002229DF80010152000F039
:1009B00045F908BD1CB5022201A9102000F0E4F899
:1009C0009DF8040020F0F00001909DF8040040F034
:1009D0008000019002229DF80410102000F02EF9F2
:1009E00002226946112000F0CFF89DF8000020F0A7
:1009F000F00000909DF8000040F08000009002227E
:100A00009DF80010112000F019F91CBD1CB5022240
:100A100001A9102000F0B8F89DF8040020F00C00A7
:100A200001909DF8040040F00C00019002229DF816
:100A30000410102000F002F902226946112000F093
:100A4000A3F89DF8000020F00F0000909DF8000032
:100A500040F00C00009002229DF80010112000F0E0
:100A6000EDF81CBD0EB5022202A9152000F08CF88D
:100A70009DF8080020F01000029002229DF8081056
:100A8000152000F0DBF8022201A9102000F07CF80C
:100A90009DF8040020F00200019002229DF804104D
:100AA000102000F0CBF802226946172000F06CF805
:100AB0009DF8000020F0040000909DF8000020F058
:100AC000080000909DF8000020F0100000909DF8B4
:100AD000000020F0E000009002229DF80010172096
:100AE00000F0ACF80EBD08B502226946132000F0F4
:100AF0004BF89DF8000020F00200009002229DF8C3
:100B00000010132000F09AF808BD0EB5022202A9C9
:100B1000122000F039F89DF8080020F01000029033
:100B20009DF8080020F0200002909DF8080040F099
:100B30000400029002229DF80810122000F07EF8B6
:100B4000022201A90D2000F01FF8012001900222CD
:100B50009DF804100D2000F071F8022201A90D206B
:100B600000F012F8022269460B2000F00DF89DF803
:100B7000000040F08000009002229DF800100B2041
:100B800000F05CF80EBD00007CB506460C4615462C
:100B900046F08000124908700020487000224FF48F
:100BA0000041104800F074FF0F480D4B0F4A1049E8
:100BB000CDE900050E48143000F073FA00BF0B4871
:100BC0000C388068C0F3C0100028F8D10122D1038E
:100BD000044800F05DFF0448407820707CBD0000B0
:100BE00048000020000002404A0000200C30014074
:100BF0005864024008B5022269461220FFF7C4FF7C
:100C00009DF8000020F00800009002229DF80010DE
:100C1000122000F013F808BD08B502226946122020
:100C2000FFF7B2FF9DF8000040F040000090022264
:100C30009DF80010122000F001F808BD7CB50446B4
:100C40000E46154604F07F001049087008464670AD
:100C500000224FF400410E4800F01AFF0D480B4BE4
:100C60000D4A0E49CDE900050C48143000F019FA80
:100C700000BF09480C388068C0F3C0100028F8D1C4
:100C80000122D103024800F003FF7CBD4800002090
:100C9000000002404A0000200C300140586402402D
:100CA00070B5044600BFEFF310800546012000F048
:100CB00091FB204600F0A8F800EE100AB8EEC00A3A
:100CC000DFED4D0A80EE201AB3EE090A31EE000A7C
:100CD0004A4880ED1C0A04F1080000F095F800EE87
:100CE000100AB8EEC00ADFED460A20EE200A43489B
:100CF00080ED1D0A04F10A0000F086F800EE100AEB
:100D0000B8EEC00ADFED3E0A20EE200A3B4880ED37
:100D10001E0A04F10C0000F077F800EE100AB8EE9D
:100D2000C00ADFED370A20EE200A344880ED1F0AA2
:100D3000A01C00F069F800EE100AB8EEC00ADFED62
:100D4000310A20EE200A2D4880ED200A201D00F0F7
:100D50005BF800EE100AB8EEC00ADFED2A0A20EEBA
:100D6000200A264880ED210AA01D00F04DF800EE73
:100D7000100AB8EEC00ADFED230A20EE200A1F4851
:100D800080ED220AD0ED1D0AB0EE600A303000F08E
:100D900071F91A48D0ED1E0AB0EE600A403000F03A
:100DA00069F91648D0ED1F0AB0EE600A503000F025
:100DB00061F91248D0ED200AB0EE600A00F05AF94D
:100DC0000E48D0ED210AB0EE600A103000F052F962
:100DD0000A48D0ED220AB0EE600A203000F04AF94D
:100DE0000648D0ED1C0AB0EE600A603000F042F90F
:100DF000284600F0EFFA70BD00008043C82B0020A9
:100E000017B71C3B57A08B3A014648788A7840EACE
:100E1000022000B2704708B5022269461820FFF789
:100E2000B3FE9DF8000040F00200009002229DF801
:100E300000101820FFF702FF08BD000010B50222C5
:100E400001211220FFF7FAFE022210490F20FFF7BE
:100E50009BFE0E4800786B2800D010BDFFF7DBFF2B
:100E6000FFF7C8FEFFF7D8FEFFF74FFEFFF786FD3E
:100E7000FFF7CCFDFFF79EFDFFF7F4FDFFF733FE14
:100E800001200349087000BFE7E7000028000020A8
:100E90002900002070B50546284602F057FF044699
:100EA00004B970BD07486060002060802146284674
:100EB00002F0CCFF29460448006801F037FD00BF6E
:100EC000EFE70000CD0E0008180000207CB50646B4
:100ED0000C4600BFEFF310800546012000F07AFABF
:100EE0000F2200210E4801F0F1FD01202080A020FA
:100EF0000B49087000224FF400410A4800F0C8FD79
:100F00000F200949064B094ACDE900100849084855
:100F1000143000F0C6F8284600F05CFA7CBD0000F2
:100F2000682C002000000240772C00200C3001408B
:100F30005864024000BFFEE77047F0B503460C4618
:100F400003F00701C1F10700042801D9042001E0E2
:100F5000C1F107000646081D072801D2002000E065
:100F6000C81E05460120B040401E2040A840012771
:100F7000AF407F1E17403843F0BD0161026000237F
:100F800043608360C360436170472DE9F0410446CC
:100F90000E46154600BFEFF310800746012000F013
:100FA0001CFAE06828442168884209DD6069284409
:100FB0006061384600F011FA4FF0FF30BDE8F08173
:100FC000E0682844E06000200DE0315C636822693D
:100FD000D1546268521C236892FBF3FC03FB1C2271
:100FE000626000BF401CA842EFDB384600F0F5F914
:100FF0000020E3E72DE9F04707468846144600BF86
:10100000EFF310808146012000F0E7F9FD684846C3
:1010100000F0E3F9A54200DD2546002605E038464C
:1010200000F008F808F80600761CAE42F7DB284608
:10103000BDE8F08770B504464FF0FF3500BFEFF311
:1010400010800646012000F0C8F9E06868B1A16888
:101050002069455CA068401C216890FBF1F201FB0F
:101060001200A060E068401EE060304600F0B5F974
:10107000284670BD0168491C0160D0ED010A70EE80
:10108000800AC0ED010AD0ED020AF4EE400AF1EE4A
:1010900010FA03D1C168491CC16001E00021C160A0
:1010A00070472DE9F04780460C4615461E46DDE99F
:1010B0000897BBB232462946404603F097FABBB2C6
:1010C0004A462946204603F091FA0121404600F0A5
:1010D000E3FB0121204600F0DFFBBDE8F08770470D
:1010E00086B010E04FF0FF33122201A906480068D5
:1010F00001F05EFDBDF80400012803D10DF10600EA
:10110000FFF7CEFD00BFEDE71C0000201FB5204A11
:101110006421204802F038FE1F4AC8211F4802F00F
:1011200033FE002208211EA001F03CFB204908608C
:10113000642005214FF400721E4BCDE90032CDE949
:10114000021000231C4A1DA1204802F011FA1F487A
:1011500002F07AFA0023322212211DA001F0DAFCFB
:101160001F490860642005214FF400721D4BCDE932
:101170000032CDE9021000231B4A1CA11F4802F0D7
:10118000F7F91E4802F060FA01201D4908701FBDE2
:10119000081F0020C8180020A82B0020281F0020AE
:1011A00073656E736F725F7371655F6D71000000C0
:1011B00018000020C81300200512000853656E7344
:1011C0006F725F5371655F5461736B00C8150020C7
:1011D00073656E736F725F6371655F6D71000000A0
:1011E0001C00002048160020E110000853656E73B3
:1011F0006F725F4371655F5461736B004818002024
:101200002000002008B51DE04FF0FF3269460E486F
:10121000006801F0F1FA009D287E80B9284602F0AE
:10122000F3FD044604B90DE0012028766C612146E7
:1012300028466268904702F08DFAE86101E002F00A
:1012400089FA00BFE0E700001800002010B501F0A7
:10125000EFF802F085FA01F005F910BD70470000C3
:101260001F48006840F470001D4908601D48006870
:1012700020F00100401C1B49086000BF19480068AD
:10128000C0F340000028F9D016480830006820F06C
:10129000030014490831086000BF12480830006894
:1012A000C0F381000028F8D10E4800680E490840BC
:1012B0000C49086000200B49083108600B48091FE1
:1012C000086000200749A03108604FF41F0005495D
:1012D0000C3108604FF000600149803908607047A8
:1012E00088ED00E000380240FFFFF2FE023003000C
:1012F00010B54FF08040006900F0010068B101F0C6
:1013000097F8FFF71FFB4FF08040006920F00100C5
:101310004FF08041086101F0A5F810BD00BFFEE765
:101320000146481EB0F1807F01D301207047481E5E
:101330004FF0E0225061FF20044A107000204FF06F
:10134000E0229061072010610020EFE723ED00E02C
:1013500002480068C0F30220704700000CED00E076
:1013600010B5002804DB0A07130E054A135406E0E3
:101370000A07140E034A00F00F031B1FD45410BDBC
:1013800000E400E018ED00E0014609B900207047D4
:10139000C8B220B1C8B20E4A105C401CF7E701F495
:1013A0007F4028B10A48C1F30722805C0930EEE78C
:1013B00001F47F0028B10648C1F30742805C113078
:1013C000E5E7034800EB116000781930DFE7000023
:1013D000EC55000880F31088704780F31088704740
:1013E00003490868884201D0012070470020FCE7CB
:1013F000200100202DE9FC5F04468B4615461E4661
:10140000DDE90C9ADDE90E7804F11400406000601B
:1014100000BF1C346560A660C4F80C90C4F810A02E
:101420002321D4E9030201F051FBD4E9033C6344D6
:101430001A1F144BD4E9010100F0D2FF2060A776F7
:1014400067760020E061C4F82880C4F82C806061D1
:101450002076E06520661C3C009023460A4A21461F
:10146000019004F14C0002F013FA00BF0748006835
:1014700018B1204605490968884700BF0020BDE82B
:10148000FC9F000035340008D136000834010020EC
:101490002DE9F04704460E4617469846DDF82090A1
:1014A00084F80990607A20F001006072E66127629A
:1014B0000020A062C4F82480002506E004F1140195
:1014C00001EBC50001F068F86D1C012DF6DBBDE8ED
:1014D000F08710B50246002001460EE002F1140329
:1014E00003EBC100D0E900436360D0E9003423601E
:1014F0004060006000BF481C01460129EEDB10BDC2
:101500000349096860F30711014A11607047000040
:10151000083802400349096860F38C21014A1160D0
:1015200070470000083802400349096860F34F31F2
:10153000014A11607047000008380240012807D1B5
:101540000749096821F030013031054A116005E092
:101550000349096821F03001014A11607047000019
:10156000A438024005282BD2DFE800F0030A111846
:101570002100154A126861F30002134B1A6020E043
:10158000114A126861F310420F4B1A6019E00E4ABB
:10159000126861F318620C4B1A6012E00A4A70324A
:1015A000126861F30002084B70331A6009E0064AC2
:1015B0007432126861F30002034B74331A6000E066
:1015C00000BF00BF70470000003802402DE9FE4F09
:1015D00004464FF00009CA46CB4600200290019015
:1015E0000025002600F050F90090009820B1012855
:1015F00012D002283FD112E031480068C0F3803099
:1016000038B12F480068C0F3003010B12D48206079
:1016100001E02D48206031E02C4820602EE0284871
:101620009C380068C0F38050029025489C380068C0
:10163000C0F3881922489C38006800F00F0A20483F
:101640009C380068C0F30240214911F800B00298AC
:1016500010B91D48019001E01C4801900AFB0BFCE9
:101660000198A0FB09700146624600233846FEF748
:10167000F7FE206002E01448206000BF00BF104861
:1016800098380068C0F303151248465D2068F040A2
:1016900060600B4898380068C0F382250E48465DAC
:1016A0006068F040E060064898380068C0F3423552
:1016B0000A48465D6068F040A060BDE8FE8F00000B
:1016C000A0380240006CDC0200127A000024F40012
:1016D000CE4A0008AE4A0008BE4A0008C64A0008C2
:1016E00010B501460020094B03EB1142D2F8002847
:1016F00001F01F040123A3401A4001F01F0401233D
:10170000A3409A4200D000E0012010BD003002400A
:1017100030B50024002500E0641C1120FFF7E0FF35
:10172000012802D0B4F5405FF6D31120FFF7D8FFAF
:10173000012801D0002500E00125284630BD000029
:1017400010B501290FD1104B03EB1042D2F800283D
:1017500000F01F040123A3401A430B4C04EB104379
:10176000C3F800280EE0084B03EB1042D2F8002823
:1017700000F01F040123A3409A43034C04EB1043E1
:10178000C3F8002810BD00000030024030B538B961
:101790000F4C246824F4805404F580540C4D2C60C4
:1017A0000B4C9C3C246860F39654094D9C3D2C6086
:1017B0002C46246861F38E142C602C46246862F356
:1017C00003042C602C46246863F312442C6030BD63
:1017D000A03802401A48006820F00100401C184957
:1017E000086000BF16480068C0F340000028F9D028
:1017F00013480830006820F00300114908310860E0
:1018000000BF0F4808300068C0F381000028F8D1FD
:101810000B4800680B490840094908600020084946
:10182000083108600848091F086000200449A031F9
:1018300008604FF41F0002490C3108607047000037
:1018400000380240FFFFF2FE023003000D49096834
:1018500060F301010B4A116000BF00BF00BF00BF71
:1018600000BF00BF00BF00BF00BF00BF00BF00BF80
:1018700000BF00BF00BF00BF00BF00BF00BF00BF70
:10188000704700000838024002480068C0F3810039
:101890007047000008380240026861F300020260ED
:1018A00070470021016041600181418101734173F2
:1018B0008173C1730174417470470000B0F1805F9F
:1018C00004D920F07041034A116001E00249086028
:1018D00070470000046602400464024002684BF650
:1018E000EF731A40026002680B891A4302604B7C56
:1018F000026863F30D320260CB7B026863F38B22D4
:1019000002608B7B026863F3092202604B7B0268F2
:1019100063F3C71202600B7B026863F386120260F6
:101920000B7C026863F3451202604B89426863F3E3
:101930000F0242600A6882604A68C26070471AB14A
:1019400003680B43036002E003688B430360704746
:101950000021026822F0010202600022026042605F
:101960008260C260014640F2FF620A40B2F5C16F78
:101970000DD2CAB2083A1423B2FBF3F293000F223D
:101980009A400D4B1B681A430B4B1A6012E040F251
:10199000FF620A40B2F5D16F0CD2CAB2083A1423E2
:1019A000B2FBF3F293000F229A40044B1B681A43D8
:1019B000024B1A6070470000046402400466024053
:1019C000D0F8002161F30002C0F8002170470268DE
:1019D00061F30602026070470021417241600121FB
:1019E00001720170704700000149086070470000F3
:1019F000143C0140014600204868234A1268824393
:101A0000214B1A601A1D126882431B1D1A604A7A04
:101A10000AB30A782AB91A1F126802431B1F1A60F8
:101A200006E0194A121D12680243174B1B1D1A606B
:101A3000154A083212688243134B08331A601A1D84
:101A4000126882431B1D1A600A7A2AB91A1F12688B
:101A500002431B1F1A6016E00A7A012A07D10A4ABC
:101A60000C3212680243084B0C331A600BE0064A32
:101A7000083212680243044B08331A601A1D1268B8
:101A800002431B1D1A607047003C01408162704791
:101A90000AB1816100E0816270474FF6FF71016019
:101AA00000218171017141710121C171704770B5CF
:101AB0000A4600211488A3B233E003F001046CB39A
:101AC00004684E000325B540AC43046094794D0092
:101AD000AC4005682C430460446801258D40AC434C
:101AE0004460446815798D402C43446084684E00FE
:101AF0000325B540AC438460D4794D00AC40856883
:101B00002C438460C4684E000325B540AC43C460D8
:101B100054794D00AC40C5682C43C4605B104C1C2C
:101B2000A1B2002BC9DC70BDF0B5002300244D0725
:101B3000ED0E02FA05F3CD105DB1456A4E07F70EC2
:101B40000F26BE40B5434562456A45EA0304446238
:101B50000AE0056A4E07F70E0F26BE40B543056240
:101B6000056A45EA03040462F0BD00001FB5642065
:101B700009214FF400620D4BCDE90032CDE902108E
:101B800000230B4A0BA10E4801F0F2FC0C4801F0B7
:101B90005BFD00231A4609A10A4801F04BFA0A48E6
:101BA0000068401C084908601FBD0000280B002089
:101BB00061090008496D755F5461736B0000000096
:101BC00028130020A81300201400002002F07CFE3F
:101BD00002F0D6FD4FF47A7002F02AFB02F052FDBB
:101BE00002F032FD02F03EFC00231A462A492B483F
:101BF00002F0FCFC01212948FFF74EFE02F05EFCDA
:101C000000231A4624492548143002F0EFFC012134
:101C100022481430FFF740FE02F082FC00231A46EF
:101C20001F491E48503002F0E1FC01211B48503092
:101C3000FFF732FE02F0A6FC00231A4618491748A7
:101C4000643002F0D3FC012114486430FFF724FE15
:101C500002F0CEFE02F0C0FD02F0CCFC02F098FED5
:101C600000210E48FFF718FE00210C481430FFF742
:101C700013FE002109485030FFF70EFE00210748EF
:101C80006430FFF709FEFFF7D9F802F0F3FA0120FC
:101C90000449087000BFFEE70410014008640240D8
:101CA0000C3001400000002010B5044600F0AAF9F5
:101CB000FFF78CFF10BD00002DE9F0470B461446DE
:101CC0004FF0000C00BF2C4A1268C2F302211D46DF
:101CD00026460A46C2F10709B9F1040F02D94FF0AE
:101CE000040901E0C2F10709C84602F10409B9F18B
:101CF000070F02D24FF0000901E0A2F103094F469D
:101D00004FF0010909FA08F9A9F1010909EA0509E1
:101D100009FA07F94FF0010A0AFA07FAAAF1010ACB
:101D20000AEA060A49EA0A09CC460146624600293F
:101D300004DB15072E0E114D6E5407E015072F0E0C
:101D40000D4D0C3501F00F06361FAF5500BF014693
:101D500000290DDB00BF00BF01F01F050122AA40D2
:101D60004D09AD0005F1E025C5F8002100BF00BF19
:101D700000BFBDE8F08700000CED00E000E400E0EB
:101D800000BF00F00702064B19684FF6FF03194029
:101D9000044B0B4343EA0221014B196000BF70471B
:101DA0000CED00E00000FA0530B51A4C43682468D9
:101DB0001919884215D04B889BB9174B1B6899425B
:101DC0000FD0164B1B688B4201D1144B18604B6827
:101DD0004360104B1B68C31A0E4D4C682D682C4491
:101DE000A3600C4C836824681A19824211D053886E
:101DF0007BB90A4B1B68834201D1084B1A604368C8
:101E00005360044B1B68D31A024D44682D682C4460
:101E1000A36030BD74000020780000207C0000200A
:101E20002DE9F04F86B00D469C46DDE91064019621
:101E30000F9B04F04008B8F1000F02D0DFF870816A
:101E400001E0DFF87081CDF8008004F01008B8F1EF
:101E5000000F01D024F0010404F00108B8F1000FD4
:101E600002D04FF0300801E04FF02008C2460027B2
:101E700004F00208B8F1000F11D0002A02DA2D2771
:101E800052420CE004F00408B8F1000F01D02B27F7
:101E900005E004F00808B8F1000F00D02027002169
:101EA00042B94FF0300B8846491C0DF1080909F87A
:101EB00008B01DE01AE0E146B9F10A0F08D14FF071
:101EC0000A0BB2FBFBFE0BFB1E28B2FBFBF202E08F
:101ED00002F00F08120900BFDDF8009019F808B0F1
:101EE0008846491C0DF1080909F808B0002AE2D11A
:101EF000B14200DD0E469B1B04F01108B8F1000F43
:101F000010D117B1002B00DD5B1E06E0A84203D8FC
:101F10004FF0200880F80080401CB3F10008A3F1C6
:101F20000103F3DC27B1A84201D807705B1E401CF7
:101F300004F01008B8F1000F0AD104E0A84201D85B
:101F400080F800A0401CB3F10008A3F10103F5DC08
:101F500006E0A84203D84FF0300880F80080401C0B
:101F6000B046761E8845F4DC08E0A84205D80DF19D
:101F7000080818F8018080F80080401CB1F10008C2
:101F8000A1F1010104DDDDF80480B8F1000FECD10E
:101F900006E0A84203D84FF0200880F80080401CDB
:101FA000B3F10008A3F10103F3DC06B0BDE8F08F44
:101FB000FD560008EC5600081CB514200A214FF409
:101FC00080630022CDE90010044905A001F003FA66
:101FD0000446204601F038FB1CBD0000A91C000887
:101FE0006D61696E0000000010B5044C02E02068CD
:101FF0008047241D02488442F9D310BD14570008BD
:102000001857000810B5044C02E020688047241DD2
:1020100002488442F9D310BD185700081C57000825
:1020200010B5FEF783F9044604480088401C00B24E
:10203000024908802046FEF77DF910BD10010020FE
:1020400010B5FEF773F904460B480088401E00B235
:10205000094908800846B0F90000002807DC002084
:1020600008802046FEF766F900F03EFF02E02046B9
:10207000FEF760F910BD00001001002070B50546A4
:1020800005B970BD00BF2248006818B12846204934
:102090000968884700BF1F480068854203D31E486F
:1020A0000068854200D3ECE7A5F110044FF0FF3142
:1020B0001A4800F0FBFF608818B12088B0F5F55F82
:1020C00008D017A000F04AFA2388628821461BA096
:1020D00000F044FA002060804FF4F550208023483F
:1020E0000068844201D2214804600A496068096896
:1020F000611A401A1E490968081A1D4908602046DD
:10210000FFF752FE054800F0A9FF00BFB9E7000045
:10211000700000207400002078000020982E00201D
:10212000746F20667265652061206261642064615D
:10213000746120626C6F636B3A0A00006D656D3AE2
:10214000203078253038782C207573656420666CD3
:1021500061673A2025642C206D6167696320636F95
:1021600064653A203078253034780A007C000020FD
:102170008400002000487047B82F002000487047B6
:10218000B847002070B5FFF769F80A4800684FF4B7
:102190007A71B0FBF1F42046FFF7C2F8FFF724FF95
:1021A000FFF7ECFF0446FFF7E5FF0546214601F087
:1021B00049F870BD04000020704700002DE9F0418F
:1021C000054605F128062C1D3148006840B130460F
:1021D0002F490968884707460FB9BDE8F08100BF5D
:1021E0002CA0216C00F0BAF92EA0616A00F0B6F9BB
:1021F00030A0A16A00F0B2F932A0E16A00F0AEF9B5
:1022000034A0216B00F0AAF936A0616800F0A6F9AD
:1022100038A0A16800F0A2F93AA0E16800F09EF9A8
:102220003CA0216900F09AF93EA0616900F096F99E
:1022300040A0A16900F092F942A0E16900F08EF996
:1022400044A0216A00F08AF946A0616B00F086F98B
:1022500048A0A16B00F082F94AA0E16B00F07EF982
:10226000287800F0040038B101F0C6F90746394675
:1022700048A000F073F902E04EA000F06FF9287852
:1022800000F0100010B952A000F068F900BFFEE79E
:10229000580000207073723A203078253038780A60
:1022A000000000007230303A203078253038780A4B
:1022B000000000007230313A203078253038780A3A
:1022C000000000007230323A203078253038780A29
:1022D000000000007230333A203078253038780A18
:1022E000000000007230343A203078253038780A07
:1022F000000000007230353A203078253038780AF6
:10230000000000007230363A203078253038780AE4
:10231000000000007230373A203078253038780AD3
:10232000000000007230383A203078253038780AC2
:10233000000000007230393A203078253038780AB1
:10234000000000007231303A203078253038780AA9
:10235000000000007231313A203078253038780A98
:10236000000000007231323A203078253038780A87
:1023700000000000206C723A203078253038780A4E
:10238000000000002070633A203078253038780A49
:102390000000000068617264206661756C74206FD3
:1023A0006E207468726561643A2025730D0A0D0A07
:1023B0000000000068617264206661756C74206FB3
:1023C0006E2068616E646C65720D0A0D0A00000073
:1023D00046505520616374697665210D0A0000003E
:1023E000F0B504460D461646301D20F0070044386F
:1023F0000146002203E00D4F41F82270521C112AC1
:10240000F9D34D624FF0000CC1F828C0C1F82CC0C0
:10241000C1F830C0C1F834C08B63CC634FF0807C0E
:10242000C1F840C000270F60F0BD0000EFBEADDE78
:1024300010B5FDF77BFF044608480078401C0749AB
:10244000087000BF0648006810B105480068804762
:1024500000BF2046FDF76EFF10BD000068000020A1
:102460006000002010B5FDF761FF044608480078C1
:10247000401E0749087000BF0648006810B10548B3
:102480000068804700BF2046FDF754FF10BD0000E4
:10249000680000206400002070B504462068A0F1A8
:1024A0001405284601F07EF8002070BD70B5054681
:1024B0000EE0FDF73BFF06462868A0F114044FF03C
:1024C000FF302063204601F06DF83046FDF732FF03
:1024D000284600F080F80028EBD0002070BD2DE9E0
:1024E000F04105460C469046204601F0C3F8B8F18D
:1024F000000F03D0B8F1010F23D105E004F114015E
:10250000284600F061F81CE02E680FE0A6F11407E1
:1025100094F8350097F83510884206DA04F1140172
:1025200007F1140000F050F802E03668AE42EDD139
:1025300000BFAE4204D104F11401284600F044F873
:1025400000BF00BF0020BDE8F08110B5044604F1D3
:10255000140000F01BF8002010BD00000FB438B5C7
:1025600005A800907F210848009B049A01F052FAC8
:1025700004467F2C00D97F240348FFF71DFE00206E
:10258000009038BC5DF814FB182E002040600060FD
:1025900070474060006070474060006070470268AC
:1025A000516002680A6001604860704702685160CB
:1025B00002680A6001604860704702685160026802
:1025C0000A600160486070474268116042684A6072
:1025D00041600860704701460868884201D10120C7
:1025E00070470020FCE701460868884201D10120BD
:1025F00070470020FCE7D0E900215160D0E90012CB
:102600001160406000607047D0E900215160D0E95E
:102610000012116040600060704700002DE9F04139
:10262000054615B90020BDE8F081E81D20F007053A
:1026300054480068854201D90020F4E7102D00D2EB
:1026400010254FF0FF31504800F030FD4F48006832
:102650004F490968461A8AE04D4800688419608825
:1026600000287CD106F110006168081AA8427AD3CC
:1026700006F110006168091A05F12000814230D38B
:1026800006F1100000EB05084148006800EB080760
:102690004FF4F55038800020788060687860BE6024
:1026A000C4F80480012060803648796800681030E2
:1026B000814205D03649786809680844C0F8088026
:1026C0003448016805F11000084432490860324876
:1026D00000680968884219D22E4800682E490860AF
:1026E00014E0012060802A4960680968611A401A74
:1026F000284909680844274908602748006809688C
:10270000884203D223480068234908604FF4F550FB
:1027100020801E480068844212D107E01B480068F0
:1027200040681B4909680844184908601748006850
:10273000408828B115480068184909688842EDD1D9
:10274000114800F08BFC00BF1548006828B12946ED
:1027500004F11000124A1268904700BF00E002E046
:1027600004F110005FE70A480068304446680548F5
:102770000068401BB0423FF66FAF034800F06EFCAC
:10278000002050E780000020982E00207C000020D0
:1027900074000020840000208800002078000020C1
:1027A0006C0000202DE9F04105460E4617462946EB
:1027B000042000F0E3FA044614B92046BDE8F08195
:1027C00067722046FFF7C1FE2684218C8800FFF740
:1027D00025FFE061E06920B9204600F005FB0020FC
:1027E000ECE700206084A084E08404F12800FFF777
:1027F000CDFE2046E2E700002DE9F74304460E46F1
:10280000002700F0F9FE054600BF4648006818B1F1
:10281000204644490968884700BFFDF787FD804688
:10282000608C40B9029830B94046FDF783FD6FF0E7
:102830000100BDE8FE833AE000202863029830B929
:102840004046FDF777FD6FF001002863F1E7627AFB
:10285000294604F11400FFF742FE029800280CDD1F
:1028600000F078FF074602AA002105F14C0000F0B5
:10287000E3FF05F14C0001F023F84046FDF75AFD57
:1028800000F032FB286B08B1286BD2E7FDF74EFD54
:102890008046029800280ADD00F05CFFC71B029802
:1028A000C01B02900298002801DA00200290608C80
:1028B0000028C1D0E18CE06950F821003060E08C44
:1028C000401CE084E08C218C884201DB0020E08405
:1028D000608C401E608404F12800FFF77CFE98B9EC
:1028E00004F12800FFF7D8FD4046FDF723FD00BFA7
:1028F0000D48006818B120460B490968884700BF99
:1029000000F0F2FA002094E74046FDF713FD00BF07
:102910000548006818B1204603490968884700BF88
:10292000002086E7040100200801002070B504465D
:102930000D4600222946204600F002F870BD000036
:102940002DE9F74304460E46002700F055FE0546E4
:1029500000BF3E48006818B120463C4909688847D6
:1029600000BFFDF7E3FC8046608C218C884208D1D3
:10297000029830B94046FDF7DDFC6FF00200BDE87B
:10298000FE8339E000202863029828B94046FDF70D
:10299000D1FC6FF00200F2E7627A294604F12800C8
:1029A000FFF79DFD029800280CDD00F0D3FE0746DE
:1029B00002AA002105F14C0000F03EFF05F14C0099
:1029C00000F07EFF4046FDF7B5FC00F08DFA286B65
:1029D00008B1286BD3E7FDF7A9FC804602980028D0
:1029E0000ADD00F0B7FEC71B0298C01B02900298D8
:1029F000002801DA00200290608C218C8842C1D02E
:102A0000A18CE06940F82160A08C401CA084A08CBF
:102A1000218C884201DB0020A084608C401C6084F3
:102A200004F11400FFF7D7FD50B904F11400FFF7CB
:102A300033FD4046FDF77EFC00F056FA00209EE78D
:102A40004046FDF777FC002099E700000C010020CC
:102A50002DE9F0410F46164604463D463346102BFD
:102A600028D305F0030C04F003084CEA080CBCF171
:102A7000000F1FD121462A4610E052F804CB41F83E
:102A800004CB52F804CB41F804CB52F804CB41F804
:102A900004CB52F804CB41F804CB103B102BECD202
:102AA00004E052F804CB41F804CB1B1F042BF8D2EE
:102AB0000C46154603E015F801CB04F801CBB3F141
:102AC000000CA3F10103F6D1BDE8F081F0B50C468E
:102AD0000546E6B2042A15D300F0030797B901466C
:102AE00046EA062343EA034304E008C108C108C1DB
:102AF00008C1103A102AF8D201E008C1121F042AB6
:102B0000FBD20D4601E005F8016B171EA2F1010290
:102B1000F9D1F0BD2DE9F0470746884691469A461F
:102B20003946052000F02AF9044614B92046BDE8CC
:102B3000F08784F809A02046FFF707FD08F1070099
:102B400020F007002084A4F82290218C091D628CBB
:102B500001FB02F0FFF762FDE061E06920B9204669
:102B600000F018F80020E2E70020A062E062206395
:102B7000002508E0208C001DE16905FB0016206B94
:102B8000306026636D1C608CA842F3DC0020A084BA
:102B90002046CCE710B5044604F11400FFF786FC8C
:102BA000E069FFF76BFA204600F01EF9002010BD27
:102BB0002DE9FF4704460F4690464FF0000900F00C
:102BC0001BFD054600BF4248006818B12046404939
:102BD0000968884700BFFDF7A9FB8246A08C48B969
:102BE000039838B95046FDF7A5FB6FF0010004B01B
:102BF000BDE8F0873CE000202863039830B95046D8
:102C0000FDF798FB6FF001002863F0E7627A294630
:102C100004F11400FFF763FC039800280CDD00F0BA
:102C200099FD814603AA002105F14C0000F004FE45
:102C300005F14C0000F044FE5046FDF77BFB00F030
:102C400053F9286B08B1286BD1E7FDF76FFB82467B
:102C5000039800280CDD00F07DFDA0EB0909039826
:102C6000A0EB090003900398002801DA00200390EC
:102C7000A08C0028BFD0A66A3068A062E06AB0428B
:102C800001D10020E062A08C401EA0845046FDF7D8
:102C900051FB208C404501D2208C00E0404602468A
:102CA000311D3846FFF7D4FEFDF740FB8246206B0E
:102CB000306026635046FDF73DFB00BF05480068C5
:102CC00018B1204603490968884700BF00208EE7F5
:102CD00004010020080100202DE9F04104460F46C0
:102CE0001646208CB04203D24FF0FF30BDE8F08191
:102CF00000BF2148006818B120461F49096888476D
:102D000000BFFDF713FB8046256B2DB94046FDF74C
:102D100011FB6FF00200E9E7286820634046FDF7E9
:102D200009FB0020286032463946281DFFF790FE37
:102D3000FDF7FCFA8046E06A08B1E06A0560E562EA
:102D4000A06A00B9A562A08C401CA08404F1140004
:102D5000FFF741FC50B904F11400FFF79DFB40461A
:102D6000FDF7E8FA00F0C0F80020BFE74046FDF7A5
:102D7000E1FA0020BAE700000C0100202DE9F04143
:102D800006460F46304600F067F80546E868FFF74C
:102D900045FC044614B90020BDE8F081002120461E
:102DA000EA68FFF793FE2672002060720822394617
:102DB000204600F02CFA00BF0A48006818B12046EF
:102DC00008490968884700BFFDF7B0FA804604F15A
:102DD0000C01281DFFF7E3FB4046FDF7ABFA204648
:102DE000DAE70000FC00002070B5044600BF0C4884
:102DF000006818B120460A490968884700BF0020CA
:102E00002072FDF793FA054604F10C00FFF7F3FB7F
:102E10002846FDF78FFA2046FFF730F970BD000015
:102E20000001002070B5044600BF0A48006818B1D0
:102E3000204608490968884700BF00202072FDF736
:102E400075FA054604F10C00FFF7D5FB2846FDF79F
:102E500071FA70BD00010020024600210AE0074817
:102E600000EB01100078904203D1044800EB011000
:102E70007047491C0729F2DB0020F9E78C0000208D
:102E80002DE9F04104460D4616462846FFF7E4FFBB
:102E9000074645F08000207208223146204600F0A7
:102EA000B6F900BF0A48006818B120460849096809
:102EB000884700BFFDF73AFA804604F10C01381D3F
:102EC000FFF76DFB4046FDF735FABDE8F0810000E5
:102ED000FC0000200146087A00F0800008B10120C3
:102EE00070470020FCE700002DE9F041FDF71EFAD5
:102EF000074620480088002837D11F480068FEF7A1
:102F000043FA461E1D4850F83600A0F114041C4830
:102F10000068844225D01B490E701948056804607A
:102F200000BF1948006820B121462846164A126899
:102F3000904700BF1548007848B904F11C0105F11D
:102F40001C00FDF7FAF93846FDF7F4F90CE004F13E
:102F50001C0105F11C00FDF7F0F93846FDF7EAF910
:102F600002E03846FDF7E6F902E03846FDF7E2F9FF
:102F7000BDE8F081100100201C010020B82E0020C7
:102F80001401002018010020280100206800002002
:102F900070B50446FDF7CAF9054614F8340F20F061
:102FA0000F0040F0010020706278343C0A4B03EBC4
:102FB000C20004F114014268116042684A60416035
:102FC000086000BF0549A06B096808430349086011
:102FD0002846FDF7AFF970BDB82E00201C01002077
:102FE00070B50446FDF7A2F9054604F11400D0E9D6
:102FF00000215160D0E9001211604060006000BF04
:1030000094F83510094A02EBC1000168814201D1F0
:10301000012100E0002129B10548A16B0068884327
:10302000034908602846FDF785F970BDB82E0020D9
:103030001C0100202DE9F04104460D4616461F46AE
:103040002A4601212046FFF71BFF2046FFF77DFAA5
:10305000A68367720020BDE8F081000070B50446C9
:1030600000BF1148006818B120460F490968884719
:1030700000BF0025FDF75AF9064604F11400FFF7DA
:10308000AAFA28B904F11400FFF706FA012502E0B4
:10309000A08B401CA0833046FDF74CF9012D01D1D7
:1030A000FFF722FF002070BD0C01002073B505461C
:1030B00000BF2448006818B128462249096888479B
:1030C00000BFFDF733F90646A88B002806DDA88B64
:1030D000401EA8833046FDF72DF928E0019828B955
:1030E0003046FDF727F96FF001007CBD00F084FA4F
:1030F0000446002020636A7A214605F11400FFF798
:10310000EEF90198002809DD01AA002104F14C0024
:1031100000F092FB04F14C0000F0D2FB3046FDF7CA
:1031200009F9FFF7E1FE206B08B1206BDDE700BF76
:103130000548006818B1284603490968884700BF58
:103140000020D2E7040100200801002008B509A0F2
:10315000FFF704FA0AA0FFF701FA12A002230122E6
:103160000321009012A0FFF7F9F919A0FFF7F6F973
:1031700008BD00000A205C207C202F0A000000000F
:103180002D205254202D202020202054687265616B
:1031900064204F7065726174696E6720537973742F
:1031A000656D0A00417567202038203230323600C4
:1031B000202F207C205C202020202025642E2564C8
:1031C0002E2564206275696C642025730A00000056
:1031D0002032303036202D203230313920436F708C
:1031E0007972696768742062792072742D746872CC
:1031F000656164207465616D0A00000001460A463D
:1032000000E0521C10780028FBD1501A704770B5AE
:103210000346A2B118460C4600BF14F8016B00F833
:10322000016B3EB902E0002500F8015B551E2A1E25
:10323000F9D102E0551E2A1EEFD100BF00BF18468B
:1032400070BD00002DE9F04105460E46E81D20F056
:10325000070726F00708B8F1200F09D9A8F12000C8
:10326000B84205D3A8EB070020381E49086006E0E5
:10327000324629461CA0FFF771F9BDE8F0812948C4
:10328000076004684FF4F55020801648006810303D
:1032900060600020A060608022496068096808447E
:1032A000214908604FF4F5500968088001201E4943
:1032B000096848800B48006810301B49096848605D
:1032C0000848006810301849096888600023012206
:1032D00016A11848FFF7AEFE1248006816490860AC
:1032E00000BFCAE7800000206D656D20696E6974BB
:1032F0002C206572726F7220626567696E2061644E
:10330000647265737320307825782C20616E642098
:10331000656E64206164647265737320307825780B
:103320000A000000740000207800002068656170C9
:1033300000000000982E00207C00002010B5002026
:103340000B490880002405E00A4901EBC400FFF79F
:1033500020F9641C202CF7DB1F200749087000208F
:1033600006490860064908600648FFF712F910BDD3
:1033700010010020B82E00201801002014010020A8
:103380001C0100202001002070B508480068FDF7EE
:10339000FBFF451E064850F83500A0F1140405480F
:1033A000046004F11C00FDF70EF870BD1C01002044
:1033B000B82E00201401002010B5002405E00449B7
:1033C00001EBC400FFF7E8F8641C002CF7D010BD37
:1033D0003801002070472DE9FF5F06460F469046F2
:1033E0001D46DDE90EAB31460020FFF7C7FC8146E4
:1033F000B9F1000F03D1002004B0BDE8F09F2846CA
:10340000FFF70CF9044624B94846FFF7EDFC00200D
:10341000F2E743463A46314648468DE8300CFDF720
:10342000E9FF4846E8E710B50446204600F0EAF810
:1034300010BD000070B512480468FCF777FF054620
:103440002046FFF7CDFD042084F8340004F14C0041
:1034500000F00EFA2046FFF73DFD012805D1A06FD0
:1034600018B92046FFF7DEFC04E004F1140105481A
:10347000FFF79CF82846FCF75DFFFFF735FD70BDB0
:1034800014010020200100200FE0002408E007487C
:1034900050F8240018B1054951F824008047641CF5
:1034A000042CF4D300F004F800BFEEE7082E00204F
:1034B00070B537E0FCF73AFF0546FDF791FF18B30A
:1034C0001B480068A0F1140404F11400D0E90021A5
:1034D0005160D0E9001211604060006000BFFEF74B
:1034E0009FFDA06F10B12046A16F88472046FFF7CF
:1034F000F1FC012805D1FEF7A3FD2846FCF71AFFD1
:1035000070BDFEF79DFD03E02846FCF713FFF7E7CB
:103510002846FCF70FFFA06AFEF7B0FD2046FFF734
:1035200063FC00BFFDF75CFF0028C3D100BFE7E7E5
:10353000200100201FB520201F21C200074BCDE92C
:103540000032CDE902100023054A06A1074800F029
:103550000FF8064800F078F81FBD0000082D002085
:10356000893400087469646C65000000882C0020B0
:103570002DE9FF5F05460C4616461F46DDE910ABF8
:10358000DDE90E89224600212846FFF779FC3B46FB
:103590003246214628468DE8000FFDF72BFF04B088
:1035A000BDE8F09F70B5044694F8340000F00F00B9
:1035B000022802D04FF0FF3070BDFCF7B7FE054681
:1035C00004F11400FFF720F804F14C0000F0FEF9BC
:1035D0002846FCF7AFFE2046FFF7DAFC00BF05489F
:1035E000006818B1204603490968884700BF0020D9
:1035F000E2E7000030010020014800687047000049
:103600001401002031B5FCF791FE05460D48046811
:10361000204600F02FF86A46002104F14C0000F02B
:103620000BF904F14C0000F04BF92846FCF782FE40
:10363000FFF75AFC206B801C08B900202063002093
:1036400038BD00001401002010B504463434A078C1
:1036500060706178012088406060022004F83409BD
:103660002046FFF79FFFFFF7C7FF08B1FFF73CFCBD
:10367000002010BD70B5044694F8340000F00F002F
:10368000012802D04FF0FF3070BDFCF74FFE054619
:1036900094F8340020F00F0040F0020084F8340069
:1036A0002046FFF79DFC04F14C0000F08FF92846FE
:1036B000FCF740FE00BF0548006818B120460349EA
:1036C0000968884700BF0020DEE700002C010020C9
:1036D00070B5044625466FF00100286305F114001B
:1036E000FEF792FF2846FFF753FCFFF7FDFB70BD86
:1036F00070B5FCF71BFE05461448046894F83400C6
:1037000000F00F0001281CD1D4E90510814218D027
:1037100004F11400FEF778FF94F835200C4B03EB0E
:10372000C20004F114014268116042684A604160BD
:10373000086000BF2846FCF7FDFDFFF7D5FB002021
:1037400070BD2846FCF7F6FD0020F9E714010020C3
:10375000B82E002001480068704700005C0000207F
:1037600010B50A480068401C08490860FFF744FF8C
:103770000446A06C401EA064A06C18B9606CA064E4
:10378000FFF7B6FF00F004F810BD00005C00002059
:1037900070B5FFF7DFFF0546FCF7C8FD06463AE0C7
:1037A00022480068A0F11404A06A281A6FF00041B2
:1037B00088422FD200BF1E48006818B120461C491D
:1037C0000968884700BF2046FDF783FED4E907104B
:1037D0008847FFF7BFFF054600BF1648006818B1CD
:1037E000204614490968884700BF607A00F002004B
:1037F00058B1607A00F0010038B1607A20F0010021
:103800006072204600F05CF805E0607A20F001006C
:10381000607200E004E00548FEF7E5FE0028BFD036
:1038200000BF3046FCF786FD70BD00003801002067
:103830004001002044010020034649B1012904D081
:10384000022908D0032910D10AE0586A10600CE060
:103850001068586209E0587A20F00200587204E0BB
:10386000587A40F00200587200BF00BF0020704735
:1038700070B50446FCF75AFD05462046FDF729FEC3
:103880002846FCF757FD2046FFF7CCFA002070BD14
:103890002DE9F84307460C4615461E46DDE9088922
:1038A000224609213846FFF7EBFA434632462946BD
:1038B0003846CDF80090FDF7EBFDBDE8F883000039
:1038C0002DE9F8430546FCF731FD80462846FDF713
:1038D00000FE687A20F0010068724046FCF72AFD7D
:1038E00000BF3748006818B128463549096888473D
:1038F00000BFFFF72FFF696A0844A862FCF716FDB6
:103900008046304E009600242AE019E05DF824201D
:103910001168142202EBC402881A826AAB6AD21AB6
:1039200000D108E0826AAB6AD21A6FF000439A4273
:1039300000D20CE000BF5DF8240000684DF82400C0
:103940005DF8240006EBC40149688842DED100BF5F
:103950002CB15DF824000830611C4DF82100641C76
:10396000002CD2D018480068401C1749086008464F
:10397000076805F114010098FEF71FFE022412E00B
:1039800007F0030060B9C4F1010305F1140202EB72
:10399000C301C4F101025DF82200FEF70EFE00E053
:1039A00003E0BF08641C012CEAD900BF687A40F02C
:1039B000010068724046FCF7BDFC0020BDE8F883BA
:1039C00008010020380100204801002070B504469D
:1039D000607A00F0010010B94FF0FF3070BD00BFF9
:1039E0000B48006818B1204609490968884700BF9C
:1039F000FCF79CFC05462046FDF76BFD2846FCF7CE
:103A000099FC607A20F0010060720020E6E7000077
:103A10000C0100202DE9FF4F89B0804644460A98EA
:103A20004044461E464504D24FF0FF36A6EB080040
:103A30000A906FE10B980078252806D0B44202D88E
:103A40000B9800782070641C61E1002526E00B983B
:103A5000401C0B900B9800782D2802D145F01005E2
:103A60001CE00B9800782B2802D145F0040515E0E6
:103A70000B980078202802D145F008050EE00B983D
:103A80000078232802D145F0200507E00B98007844
:103A9000302802D145F0010500E000E0D7E700BF83
:103AA0004FF0FF370B98007830380A2804D20BA863
:103AB00000F056FA07460EE00B9800782A280AD143
:103AC0000B98401C0B900C9880C80C90002F02DAC9
:103AD0007F4245F010054FF0FF390B9800782E28F3
:103AE0001CD10B98401C0B900B98007830380A289A
:103AF00004D20BA800F034FA81460AE00B98007853
:103B00002A2806D10B98401C0B900C9850F8049B67
:103B10000C90B9F1000F01DA4FF000090020049079
:103B20000B980078682803D00B9800786C2805D192
:103B30000B98007804900B98401C0B900A2005907D
:103B40000B9800786F2875D00CDC632813D004DC48
:103B5000252870D058286FD18DE064286DD0692851
:103B6000F9D18FE070286AD0732825D0752878D0D5
:103B70007828F0D182E005F0100040B904E0B442AA
:103B800001D820202070641C781E071EF7DC0C98DA
:103B900010F8041B0C90C8B20790B44201D80798E3
:103BA0002070641C04E0B44201D820202070641C02
:103BB000781E071EF7DCAAE00C98006806900C98A7
:103BC000001D0C90069808B95AA006900698FFF7B9
:103BD00015FB8346B9F1000F02DDCB4500DDCB4676
:103BE00005F0100048B904E0B44201D8202020704C
:103BF000641C38467F1E5845F6DC002008900BE018
:103C0000B44202D8069800782070641C0698401CC4
:103C100006900898401C089008985845F0DB04E08E
:103C2000B44201D820202070641C38467F1E5845BD
:103C3000F6DC6CE01CE015E028E022E0FFE7781CF1
:103C400010B9082745F00105CDE9007902950C98D7
:103C500004C8102331460C902046FEF7E1F80446D4
:103C600055E012E0B44201D825202070641C4EE0DB
:103C7000082005901DE045F0400500BF102005908C
:103C800017E000BF45F0020500BF12E0B44201D8C2
:103C900025202070641C0B98007830B1B44202D803
:103CA0000B9800782070641C02E00B98401E0B906B
:103CB0002DE000BF04986C2807D10C9850F804AB95
:103CC0000C9005F00200B8B116E0049868280BD1FA
:103CD0000C9830F8041B1FFA81FA0C9005F00200D2
:103CE00050B10FFA8AFA07E00C9850F804AB0C9028
:103CF00005F0020000B100BFCDE9007902955246FF
:103D000031462046059BFEF78BF8044600BF0B9812
:103D1000401C0B900B98007800287FF48BAEB442C7
:103D200001D8207001E000203070A4EB08000DB035
:103D3000BDE8F08F284E554C4C29000000207047FC
:103D400000207047002070470020704770B505467E
:103D50000DB9002070BDFCF7E9FA0646286820B9C5
:103D60003046FCF7E7FA0020F4E72C68E0682860AA
:103D70000020E060012020720020606060803046FA
:103D8000FCF7D8FA2046E5E730B50346002010607E
:103D900000BF18E0002403EB00156C8003EB001556
:103DA000EC6003EB00152C7203EB00156C6018B986
:103DB00003EB0014146005E003EB0015441E03EB55
:103DC0000414E560401C8842E4DB00201061D060F0
:103DD00090605060107630BD2DE9F04105460C46EC
:103DE00005B10CB9BDE8F081FCF7A0FA0746002048
:103DF0002072606060802E682C602868C66038463B
:103E0000FCF798FA00BFEDE770B50446FCF78EFAB0
:103E1000064624B93046FCF78DFA002070BD606874
:103E200020B93046FCF786FA0020F7E76568E868B5
:103E30006060606808B90020A0600020E86004208D
:103E400028723046FCF776FA2846E7E770B5054653
:103E50000C4605B104B970BDFCF768FA06460020AF
:103E6000E06002202072A86810B96C60AC6002E0CB
:103E7000A868C460AC603046FCF75CFA00BFEAE7B3
:103E800010B5FCF753FAFEF77DF9FFF75FF9FFF77E
:103E900093FAFFF753FAFEF78FF8FFF79BFAFFF755
:103EA00049FBFFF771FA002010BD000010B5002299
:103EB0008B071C0F0F2303FA04F28B1033B1012B75
:103EC00013D0022B23D0032B45D132E0234B1B68A8
:103ED0009343224C236023461B688C07240F00FA6F
:103EE00004F423431D4C236036E01C4B1B1D1B6850
:103EF00093431A4C241D236023461B688C07240F10
:103F000000FA04F42343154C241D236024E0134BD2
:103F100008331B689343114C0834236023461B6805
:103F20008C07240F00FA04F423430C4C083423605C
:103F300012E00A4B0C331B689343084C0C3423608B
:103F400023461B688C07240F00FA04F42343034C18
:103F50000C34236000E000BF00BF10BD08380140F2
:103F60000146002009E00B685A1C0A601A7800EB31
:103F7000800302EB4302A2F130000A681278303A63
:103F80000A2AF0D370470021017041708170C1701E
:103F90000171417181710121C1717047026861F342
:103FA000861202607047426861F300024260704707
:103FB000426861F3410242607047C26922F40062C4
:103FC000C2610A7862B9026822F4004202600268A3
:103FD00022F480420260026822F48062026036E0CD
:103FE0000A78012A0ED1026822F4004202600268B7
:103FF00022F480420260026822F4806202F580624C
:10400000026024E00A78022A0ED1026822F40042FB
:1040100002F500420260026822F4804202600268F7
:1040200022F48062026012E00A78032A0FD102684B
:1040300022F4004202F500420260026822F480424B
:1040400002F580420260026822F480620260CB794D
:10405000026863F3492202604A78012A09D1CA79C9
:10406000012A06D1026822F4807202F58072026091
:1040700003E0026822F4807202604B78026863F306
:10408000820202608A78072A0DDC426822F40072FC
:104090004260426822F4807242608B78026863F367
:1040A000C502026020E08A780A2A0ED1426822F412
:1040B000007202F500724260426822F4807242602F
:1040C000026822F0380202600EE0426822F40072B8
:1040D0004260426822F4807202F5807242608A78FF
:1040E000036862F3C5030360CB78026863F3C71209
:1040F00002600B79026863F3CB2202604B7902689D
:1041000063F3410202608B79026863F3000202608C
:10411000704700002DE9FC5F002400250026A14621
:10412000A246A34600200190FDF7AEFB0090009848
:1041300020B1012814D0022841D115E02B48006895
:10414000C0F3803040B129480068C0F3003018B196
:1041500027482849086002E027482649086032E0DD
:104160002648244908602EE020489C380068C0F3A7
:1041700080591E489C380068C0F388141B489C383E
:10418000006800F00F0519489C380068C0F3024031
:104190001B490E5CB9F1000F02D1DFF85CA001E011
:1041A000DFF858A005FB06FCAAFB04700146624636
:1041B00000233846FCF754F90E49086003E00E4826
:1041C0000C49086000BF00BF084898380068C0F379
:1041D000031B0C4810F80B00019006480068019979
:1041E000C84004490860BDE8FC9F0000A0380240B8
:1041F000006CDC020400002000127A000024F400AD
:10420000E44A0008D44A0008042808D14FF0E0210D
:10421000096941F004014FF0E022116107E04FF01D
:10422000E021096921F004014FF0E022116170479B
:104230007FB50446002600256846FDF7C7F90198BA
:10424000C6080020FFF7E0FFB6FBF4F5681EB0F1EA
:10425000807F02D3002004B070BD681E4FF0E021C3
:104260004861002088610846006940F00300086149
:104270000120F0E710B572B6FCF76AFAFDF776FC9C
:10428000FCF744FF62B610BDC1628262436923F04D
:1042900001035B1C43617047026861F309220260FD
:1042A0007047026861F3061202607047026861F3AA
:1042B000000202607047026861F3C7120260704733
:1042C000426861F3061242607047826861F3C71268
:1042D00082607047426961F38612426170474269A9
:1042E00061F3C71242617047C26861F34D32C26028
:1042F000704741B9426922F480724261426922F4F6
:104300000072426127E001290AD1426922F48072D9
:1043100002F580724261426922F4007242611AE041
:1043200002290AD1426922F480724261426922F470
:10433000007202F5007242610DE003290BD142695F
:1043400022F4807202F580724261426922F40072A6
:1043500002F50072426170472DE9FF470446884626
:10436000164699466846FDF731F92448844202D042
:104370002348844201D1029F00E0039F07EB87009E
:104380004000B0FBF8F50A20B5FBF0F100FB11503E
:10439000052803D20A20B5FBF0F503E00A20B5FB9F
:1043A000F0F0451CA06865F30F00A06056B9E06806
:1043B00020F0805000F18050E060E06820F48050F0
:1043C000E06014E0012E08D1E06820F08050E06049
:1043D000E06820F48050E06009E0E06820F0805060
:1043E000E060E06820F4805000F58050E0602069D3
:1043F00069F30D302061BDE8FF8700000010014027
:104400000014014041B9C26822F40072C260C2685F
:1044100022F48062C2601AE001290AD1C26822F443
:104420000072C260C26822F4806202F58062C260DB
:104430000DE002290BD1C26822F4007202F500726D
:10444000C260C26822F4806202F58062C260704776
:10445000C26861F38202C2607047C26861F3C3023E
:10446000C260704700B585B01348FDF771FA684621
:10447000FDF717FA0020ADF808008DF80F000120B5
:104480008DF80D0000208DF80E008DF80C008DF8D1
:1044900011008DF8100069460748FDF71FFA012149
:1044A00005480838FDF78CFA18210348FC30FDF761
:1044B0008EFA05B000BD00000864024000B585B06A
:1044C0001648FDF745FA6846FDF7EBF91020ADF800
:1044D000080000208DF80F0001208DF80D0000204D
:1044E0008DF80E008DF80C008DF811008DF810007D
:1044F00069460A48FDF7F2F9012108481C38FDF722
:104500005FFA19210548EC30FDF761FA012202211A
:104510000248FDF714FA05B000BD00001C6402401B
:1045200000B585B01648FDF713FA6846FDF7B9F9EE
:104530000020ADF808008DF80F0001208DF80D0067
:1045400000208DF80E008DF80C0003208DF811006E
:1045500000208DF8100069460948FDF7BFF90121D8
:1045600007485838FDF72CFA0A210548BC30FDF7FA
:104570002EFA012202210248FDF7E1F905B000BD43
:104580005864024000B585B01748FDF7E1F9684668
:10459000FDF787F91020ADF8080000208DF80F0016
:1045A00001208DF80D0000208DF80E008DF80C0014
:1045B00003208DF8110000208DF8100069460A488C
:1045C000FDF78CF9012108486C38FDF7F9F90B214A
:1045D0000548AC30FDF7FBF9012202210248FDF746
:1045E000AEF905B000BD00006C640240436081601C
:1045F000C260704700B585B003A8FDF74EFA0020F1
:104600008DF812004020039000208DF8110003A9BE
:104610000C48FDF74CFA06210020FFF747FC6846DE
:10462000FDF7DAF901208DF8090000208DF800006F
:104630004020019000208DF808006846FDF7DAF967
:1046400005B000BD000002401CB56846FDF725FA24
:104650004FF400410A48FDF719FA02208DF80700CF
:1046600000208DF8040001208DF80600C0030090A2
:1046700000208DF8050069460148FDF718FA1CBDB9
:104680000000024070B50320FDF77AFBFCF760FEE6
:10469000054600221146FCF750FC044621466FF007
:1046A0000B00FCF75DFEFCF753FE054600221146A9
:1046B000FCF743FC044621466FF00A00FCF750FE6D
:1046C000FCF746FE054600221146FCF736FC044680
:1046D00021466FF00900FCF743FEFCF739FE054662
:1046E00000221146FCF729FC044621466FF0040025
:1046F000FCF736FEFCF72CFE054600221146FCF7BF
:104700001CFC044621466FF00300FCF729FEFCF771
:104710001FFE054600220F21FCF70FFC0446214630
:104720006FF00100FCF71CFEFCF712FE05460022AC
:104730001146FCF702FC044621464FF0FF30FCF71F
:104740000FFE002211461720FDF7B6FA002211468F
:104750001C20FDF7B1FA002211463820FDF7ACFA13
:10476000002211463920FDF7A7FA002211463C200D
:10477000FDF7A2FA002211464420FDF79DFA70BD14
:1047800010B501214FF44010FCF7DAFF0121104869
:10479000FCF7D6FF01210E48801DFCF7D1FF012157
:1047A0000B481530FCF7CCFF01218805FCF7C8FF4A
:1047B00001210848FCF7C4FF012106480830FCF736
:1047C000BFFF012103480A30FCF7BAFF10BD00000B
:1047D00001003000040044001FB502A8FDF75DF998
:1047E0006846FFF7D0FB052203213548FDF79CF909
:1047F00002208DF80F0000208DF80C0002208DF8AB
:104800000E000820029000208DF80D0002A92C480F
:10481000FDF74DF9052204212948FDF785F902200D
:104820008DF80F0000208DF80C0002208DF80E008E
:104830001020029000208DF80D0002A92048FDF7FD
:1048400036F9052211461E48FDF76EF902208DF853
:104850000F0000208DF80C0002208DF80E002020A3
:10486000029000208DF80D0002A91548FDF71FF9F0
:1048700000208DF8000001208DF8010000208DF847
:1048800004008DF8030003208DF8020000208DF84D
:1048900005008DF8060001208DF8070069460948DB
:1048A000FFF78BFB01210748FFF782FB0121054839
:1048B000FFF779FB01210348FFF770FB1FBD0000E4
:1048C000000402400030014010B5FCF783FF0121D5
:1048D0002B48FCF735FF2B48006920F00700401CEF
:1048E000284908612848006820F00300401C264938
:1048F000086001210420FCF735FE00BF2348FCF7C7
:10490000EFFE0128FAD101210846FCF72BFE00BF7B
:10491000FCF7FEFE0028FBD001210020FCF722FE60
:1049200000BF0120FCF7DCFE0128FAD1022301229E
:1049300090210020FCF72AFF01210220FCF712FE43
:1049400000BF1920FCF7CCFE0128FAD10020FCF7AB
:10495000D7FD0420FCF7E8FD0420FCF7DBFD012077
:10496000FCF7ECFD0220FCF771FF00BFFCF78CFFA9
:104970000228FBD10020FCF7E1FDFFF7CBFB10BDC7
:104980001C00400000700040603C024001007400C8
:1049900010B500214FF08040FFF783FC00214FF05D
:1049A0008040FFF779FC00214FF08040FFF783FC47
:1049B00040F21F1240F6C3114FF08040FFF764FC35
:1049C00000214FF08040FFF780FC00214FF0804035
:1049D000FFF776FC01218807FFF768FC4FF0804065
:1049E000C06820F00100401C4FF08041C86010BD3D
:1049F0001CB56846FDF751F8072206212748FDF748
:104A000093F802208DF8070000208DF804000220A2
:104A10008DF806004020009000208DF805006946C2
:104A20001E48FDF744F8072211461C48FDF77CF8A4
:104A300002208DF8070000208DF8040002208DF878
:104A400006008020009000208DF80500694613487C
:104A5000FDF72DF8002301224FF461211048FFF7E4
:104A60007BFC01210E48FFF7F8FC01210C48FFF701
:104A7000EFFC00210A48FFF7C5FC01210848FFF7B9
:104A80002EFC01210648FFF725FC00210448FFF712
:104A900030FC01210248FFF727FC1CBD0004024046
:104AA000001001404FF04070E1EE100A7047000026
:104AB00000000000000001020304060708090000CE
:104AC00000000102030400000000010203040102CF
:104AD0000408102000000000000000000102030490
:104AE000060708090102040810200000005EBCE26D
:104AF000613FDD83C29C7E20A3FD1F419DC3217FBA
:104B0000FCA2401E5F01E3BD3E6082DC237D9FC1AD
:104B1000421CFEA0E1BF5D0380DE3C62BEE0025CA1
:104B2000DF81633D7C22C09E1D43A1FF4618FAA48D
:104B300027799BC584DA3866E5BB5907DB85673979
:104B4000BAE406581947A5FB7826C49A653BD9876D
:104B5000045AB8E6A7F91B45C6987A24F8A6441A61
:104B600099C7257B3A6486D85B05E7B98CD2306E4D
:104B7000EDB3510F4E10F2AC2F7193CD114FADF339
:104B8000702ECC92D38D6F31B2EC0E50AFF1134D2D
:104B9000CE90722C6D33D18F0C52B0EE326C8ED021
:104BA000530DEFB1F0AE4C1291CF2D73CA9476280D
:104BB000ABF517490856B4EA6937D58B5709EBB5F9
:104BC00036688AD495CB2977F4AA4816E9B7550BED
:104BD00088D6346A2B7597C94A14F6A8742AC896E1
:104BE000154BA9F7B6E80A54D7896B350000211098
:104BF000422063308440A550C660E7700881299147
:104C00004AA16BB18CC1ADD1CEE1EFF131121002EE
:104C100073325222B5529442F772D6623993188396
:104C20007BB35AA3BDD39CC3FFF3DEE362244334BA
:104C300020040114E664C774A44485546AA54BB5E6
:104C400028850995EEE5CFF5ACC58DD5533672268E
:104C500011163006D776F6669556B4465BB77AA736
:104C600019973887DFF7FEE79DD7BCC7C448E558DA
:104C70008668A7784008611802282338CCC9EDD986
:104C80008EE9AFF9488969990AA92BB9F55AD44A2E
:104C9000B77A966A711A500A333A122AFDDBDCCBD6
:104CA000BFFB9EEB799B588B3BBB1AABA66C877CFA
:104CB000E44CC55C222C033C600C411CAEED8FFD26
:104CC000ECCDCDDD2AAD0BBD688D499D977EB66ECE
:104CD000D55EF44E133E322E511E700E9FFFBEEF76
:104CE000DDDFFCCF1BBF3AAF599F788F8891A98138
:104CF000CAB1EBA10CD12DC14EF16FE18010A10022
:104D0000C230E3200450254046706760B983989311
:104D1000FBA3DAB33DC31CD37FE35EF3B102901271
:104D2000F322D2323542145277625672EAB5CBA5DD
:104D3000A89589856EF54FE52CD50DC5E234C324C1
:104D4000A01481046674476424540544DBA7FAB7B1
:104D50009987B8975FE77EF71DC73CD7D326F23611
:104D60009106B01657667676154634564CD96DC9FD
:104D70000EF92FE9C899E9898AB9ABA94458654861
:104D800006782768C018E1088238A3287DCB5CDB51
:104D90003FEB1EFBF98BD89BBBAB9ABB754A545AB1
:104DA000376A167AF10AD01AB32A923A2EFD0FED1D
:104DB0006CDD4DCDAABD8BADE89DC98D267C076C01
:104DC000645C454CA23C832CE01CC10C1FEF3EFFF1
:104DD0005DCF7CDF9BAFBABFD98FF89F176E367E51
:104DE000554E745E932EB23ED10EF01E00000000B0
:104DF000963007772C610EEEBA51099919C46D07E8
:104E00008FF46A7035A563E9A395649E3288DB0E42
:104E1000A4B8DC791EE9D5E088D9D2972B4CB60925
:104E2000BD7CB17E072DB8E7911DBF906410B71D02
:104E3000F220B06A4871B9F3DE41BE847DD4DA1A3B
:104E4000EBE4DD6D51B5D4F4C785D38356986C136C
:104E5000C0A86B647AF962FDECC9658A4F5C0114E5
:104E6000D96C0663633D0FFAF50D088DC8206E3BC3
:104E70005E10694CE44160D5727167A2D1E4033CD5
:104E800047D4044BFD850DD26BB50AA5FAA8B535FC
:104E90006C98B242D6C9BBDB40F9BCACE36CD832EB
:104EA000755CDF45CF0DD6DC593DD1ABAC30D92692
:104EB0003A00DE518051D7C81661D0BFB5F4B42195
:104EC00023C4B3569995BACF0FA5BDB89EB8022892
:104ED0000888055FB2D90CC624E90BB1877C6F2F17
:104EE000114C6858AB1D61C13D2D66B69041DC7612
:104EF0000671DB01BC20D2982A10D5EF8985B171EB
:104F00001FB5B606A5E4BF9F33D4B8E8A2C9077899
:104F100034F9000F8EA8099618980EE1BB0D6A7F30
:104F20002D3D6D08976C6491015C63E6F4516B6BE9
:104F300062616C1CD83065854E0062F2ED95066C9E
:104F40007BA5011BC1F4088257C40FF5C6D9B06513
:104F500050E9B712EAB8BE8B7C88B9FCDF1DDD6270
:104F6000492DDA15F37CD38C654CD4FB5861B24DD6
:104F7000CE51B53A7400BCA3E230BBD441A5DF4AA0
:104F8000D795D83D6DC4D1A4FBF4D6D36AE9694363
:104F9000FCD96E34468867ADD0B860DA732D04440E
:104FA000E51D03335F4C0AAAC97C0DDD3C71055039
:104FB000AA41022710100BBE86200CC925B56857E0
:104FC000B3856F2009D466B99FE461CE0EF9DE5E29
:104FD00098C9D9292298D0B0B4A8D7C7173DB359DA
:104FE000810DB42E3B5CBDB7AD6CBAC02083B8ED6B
:104FF000B6B3BF9A0CE2B6039AD2B1743947D5EA78
:10500000AF77D29D1526DB048316DC73120B63E3A6
:10501000843B64943E6A6D0DA85A6A7A0BCF0EE405
:105020009DFF099327AE000AB19E077D44930FF0C0
:10503000D2A3088768F2011EFEC206695D5762F7B7
:10504000CB67658071366C19E7066B6E761BD4FEF4
:10505000E02BD3895A7ADA10CC4ADD676FDFB9F9D1
:10506000F9EFBE8E43BEB717D58EB060E8A3D6D693
:105070007E93D1A1C4C2D83852F2DF4FF167BBD1C1
:105080006757BCA6DD06B53F4B36B248DA2B0DD8C4
:105090004C1B0AAFF64A0336607A0441C3EF60DF67
:1050A00055DF67A8EF8E6E3179BE69468CB361CB50
:1050B0001A8366BCA0D26F2536E2685295770CCC75
:1050C00003470BBBB91602222F260555BE3BBAC5B6
:1050D000280BBDB2925AB42B046AB35CA7FFD7C2A7
:1050E00031CFD0B58B9ED92C1DAEDE5BB0C2649B98
:1050F00026F263EC9CA36A750A936D02A906099CCB
:105100003F360EEB8567077213570005824ABF953D
:10511000147AB8E2AE2BB17B381BB60C9B8ED292C0
:105120000DBED5E5B7EFDC7C21DFDB0BD4D2D38617
:1051300042E2D4F1F8B3DD686E83DA1FCD16BE818A
:105140005B26B9F6E177B06F7747B718E65A08885B
:10515000706A0FFFCA3B06665C0B0111FF9E658FEC
:1051600069AE62F8D3FF6B6145CF6C1678E20AA096
:10517000EED20DD75483044EC2B30339612667A71C
:10518000F71660D04D476949DB776E3E4A6AD1AE6B
:10519000DC5AD6D9660BDF40F03BD83753AEBCA9FA
:1051A000C59EBBDE7FCFB247E9FFB5301CF2BDBD67
:1051B0008AC2BACA3093B353A6A3B4240536D0BA70
:1051C0009306D7CD2957DE54BF67D9232E7A66B30D
:1051D000B84A61C4021B685D942B6F2A37BE0BB4BA
:1051E000A18E0CC31BDF055A8DEF022D00000000BD
:1051F000FB4C86000DD58A00F6990C00E1E6930081
:105200001AAA1500EC331900177F9F003981A100FD
:10521000C2CD270034542B00CF18AD00D867320020
:10522000232BB400D5B2B8002EFE3E00894EC50037
:1052300072024300849B4F007FD7C90068A85600C4
:1052400093E4D000657DDC009E315A00B0CF64004D
:105250004B83E200BD1AEE00465668005129F70064
:10526000AA6571005CFC7D00A7B0FB00E9D10C00D1
:10527000129D8A00E40486001F48000008379F0042
:10528000F37B190005E21500FEAE9300D050AD008F
:105290002B1C2B00DD85270026C9A10031B63E005E
:1052A000CAFAB8003C63B400C72F3200609FC9003F
:1052B0009BD34F006D4A43009606C50081795A0082
:1052C0007A35DC008CACD00077E05600591E6800BF
:1052D000A252EE0054CBE200AF876400B8F8FB00A6
:1052E00043B47D00B52D71004E61F700D2A31900C3
:1052F00029EF9F00DF769300243A150033458A009A
:10530000C8090C003E900000C5DC8600EB22B80006
:10531000106E3E00E6F732001DBBB4000AC42B003D
:10532000F188AD000711A100FC5D27005BEDDC00FA
:10533000A0A15A0056385600AD74D000BA0B4F00E9
:105340004147C900B7DEC5004C924300626C7D0046
:105350009920FB006FB9F70094F57100838AEE0085
:1053600078C668008E5F64007513E2003B7215001A
:10537000C03E930036A79F00CDEB1900DA9486005B
:1053800021D80000D7410C002C0D8A0002F3B40094
:10539000F9BF32000F263E00F46AB800E31527007B
:1053A0001859A100EEC0AD00158C2B00B23CD00006
:1053B00049705600BFE95A0044A5DC0053DA4300A7
:1053C000A896C5005E0FC900A5434F008BBD7100B4
:1053D00070F1F7008668FB007D247D006A5BE200C7
:1053E00091176400678E68009CC2EE00A4473300EA
:1053F0005F0BB500A992B90052DE3F0045A1A000A5
:10540000BEED260048742A00B338AC009DC6920059
:10541000668A1400901318006B5F9E007C200100C8
:10542000876C870071F58B008AB90D002D09F60095
:10543000D645700020DC7C00DB90FA00CCEF6500E4
:1054400037A3E300C13AEF003A76690014885700A9
:10545000EFC4D100195DDD00E2115B00F56EC40000
:105460000E224200F8BB4E0003F7C8004D963F00E5
:10547000B6DAB9004043B500BB0F3300AC70AC00E6
:10548000573C2A00A1A526005AE9A00074179E00E7
:105490008F5B180079C21400828E920095F10D0086
:1054A0006EBD8B009824870063680100C4D8FA00A1
:1054B0003F947C00C90D70003241F600253E690022
:1054C000DE72EF0028EBE300D3A76500FD595B0017
:1054D0000615DD00F08CD1000BC057001CBFC800C2
:1054E000E7F34E00116A4200EA26C40076E42A007F
:1054F0008DA8AC007B31A000807D26009702B9000A
:105500006C4E3F009AD73300619BB5004F658B000E
:10551000B4290D0042B00100B9FC8700AE83180029
:1055200055CF9E00A3569200581A1400FFAAEF0010
:1055300004E66900F27F65000933E3001E4C7C003D
:10554000E500FA001399F600E8D57000C62B4E006E
:105550003D67C800CBFEC40030B2420027CDDD005D
:10556000DC815B002A185700D154D1009F352600FA
:105570006479A00092E0AC0069AC2A007ED3B5004B
:10558000859F330073063F00884AB900A6B48700A0
:105590005DF80100AB610D00502D8B0047521400E7
:1055A000BC1E92004A879E00B1CB1800167BE30018
:1055B000ED3765001BAE6900E0E2EF00F79D70007B
:1055C0000CD1F600FA48FA0001047C002FFA4200E0
:1055D000D4B6C400222FC800D9634E00CE1CD1001F
:1055E00035505700C3C95B003885DD00000001005D
:1055F000020001000300010002000100040001009C
:10560000020001000300010002000100050001008A
:10561000020001000300010002000100040001007B
:105620000200010003000100020001000600010069
:10563000020001000300010002000100040001005B
:10564000020001000300010002000100050001004A
:10565000020001000300010002000100040001003B
:105660000200010003000100020001000700010028
:10567000020001000300010002000100040001001B
:10568000020001000300010002000100050001000A
:1056900002000100030001000200010004000100FB
:1056A00002000100030001000200010006000100E9
:1056B00002000100030001000200010004000100DB
:1056C00002000100030001000200010005000100CA
:1056D00002000100030001000200010004000100BB
:1056E00002000100030001000200010030313233EA
:1056F000343536373839616263646566003031327B
:10570000333435363738394142434445460000008A
:10571000493D0008413D00083D3D0008453D000869
:1057200000080108000000204C01000048020008A9
:10573000440801084C010020CC4C0000A4020008E1
:105740000000000000000000000000000000000059
:105750000000000000000000000000000000000049
:105760000000000000000000000000000000000039
:105770000000000000000000000000000000000029
:020000040801F1
:1004000000000000000000000000060100000000E5
:1004100000000000000000000000070001000000D4
:1004200000000000000000000000000000000000CC
:1004300000000000000000000000000000000000BC
:1004400000000000000000000000000000000000AC
:10045000000000000000000000000000000000009C
:10080000510389127A22902A2004328032011AA0E0
:100810000C2904322032021AB00C2904322432038B
:100820001AC00C2904292032041AD00C29043230B1
:1008300032051AE00C2904323432091AF00C29046A
:0408400002532C0033
:040000050800020DE0
:00000001FF
