:020000040801F1
:1000000000000000000000000000000000000000F0
:1000100000000000000000000000000000000000E0
:1000200000000000000000000000000000000000D0
:1000300000000000000000000000000000000000C0
:1004000000000000000000000000060100000000E5
:1004100000000000000000000000070001000000D4
:1004200000000000000000000000000000000000CC
:1004300000000000000000000000000000000000BC
:1004400000000000000000000000000000000000AC
:10045000000000000000000000000000000000009C
:020000040801F1
:10080000505D0020ED0A0108472201081F0C010875
:1008100043220108010F01083D30010800000000DB
:100820000000000000000000000000003D2D010855
:1008300099120108000000006B0B0108DD2E010871
:100840000F0B01080F0B01080F0B01080F0B01081C
:100850000F0B01080F0B01080F0B01080F0B01080C
:100860000F0B01080F0B01080F0B01080F0B0108FC
:100870000F0B01080F0B01080F0B01080F0B0108EC
:100880000F0B01080F0B01080F0B01080F0B0108DC
:100890000F0B01080F0B01080F0B01089D12010837
:1008A0000F0B01080F0B01080F0B01080F0B0108BC
:1008B000852F01080F0B0108B12F01080F0B01084C
:1008C0000F0B01080F0B01080F0B01080F0B01089C
:1008D0000F0B01080F0B01080F0B01080F0B01088C
:1008E0000F0B01080F0B01080F0B01080F0B01087C
:1008F0000F0B01080F0B01080F0B01080F0B01086C
:100900000F0B01080F0B0108ED2F01080F0B010859
:100910000F0B01080F0B01080F0B01080F0B01084B
:10092000C9100108CD1001080F0B01080F0B0108B9
:10093000111101080F0B01080F0B01080F0B010823
:100940000F0B01080F0B01080F0B01080F0B01081B
:10095000A91101080F0B0108000000000F0B01088E
:100960000F0B01080F0B0108000000000000000041
:100970000F0B01080F0B01080F0B0108000000000E
:10098000000000000F0B01080F0B01080F0B0108FE
:100990000F0B010800000000000000000000000034
:1009A0000000000000000000000000000F0B010824
:1009B0000F0B0108000000000F0B010800000000F1
:1009C0000000000000000000000000000000000027
:1009D00000000000000000000F0B01080F0B0108D1
:1009E0000F0B01080F0B01080F0B01080F0B01087B
:1009F0000F0B01080F0B01080F0B0108D51101089F
:100A0000691201080F0B01080F0B010800F002F832
:100A100000F05CF80AA090E8000C82448344AAF13C
:100A20000107DA4501D100F051F8AFF2090EBAE83A
:100A30000F0013F0010F18BFFB1A43F00103184712
:100A4000907E0000B07E00000A444FF0000C10F8C9
:100A5000013B13F0070408BF10F8014B1D1108BF3C
:100A600010F8015B641E05D010F8016B641E01F8DC
:100A7000016BF9D113F0080F1EBF10F8014BAD1C2C
:100A80000C1B09D16D1E58BF01F801CBFAD505E04A
:100A900014F8016B01F8016B6D1EF9D59142D6D3A4
:100AA000704700000023002400250026103A28BFCC
:100AB00078C1FBD8520728BF30C148BF0B607047D0
:100AC0001FB507F0BFF81FBD10B510BD00F0DCF971
:100AD0001146FFF7F5FF00F00CFA00F0FAF903B445
:100AE000FFF7F2FF03BC00F0FDF900000B4885465C
:100AF0000B4880470B4880470B480047FEE7FEE75E
:100B0000FEE7FEE7FEE7FEE7FEE7FEE7FEE7FEE7BD
:100B100006480749074A084B7047000000000420B8
:100B20006D150108F12E01080D0A0108505700202B
:100B3000505D00205059002050590020EFF31080E4
:100B400072B6704780F310887047434A1368012BD0
:100B500004D04FF001031360404A1060404A116016
:100B600040484FF0805101607047EFF3108272B639
:100B70003948016851B34FF00001016037480168FE
:100B800091B1EFF309811EF0100F08BF21ED108B1A
:100B900021E9F00F4FF000041EF0100F08BF0124F0
:100BA00041F8044D006801602D490968096808C9C9
:100BB000B1E8F00F002B18BFB1EC108B81F309885E
:100BC0004EF0100E002B18BF2EF0100E82F310887E
:100BD0004EF0040E704722490860EFF3148222F0B1
:100BE000040282F314881D494FF0000008601A497E
:100BF0004FF0010008601C484FF47F01D0F800203E
:100C000041EA0201016017484FF080510160174826
:100C10000068006880F3088861B662B670471EF00D
:100C2000040F0CBFEFF30880EFF3098020E9F00F09
:100C300040F804ED40F804ED1EF0040F0CBF80F303
:100C4000088880F3098800B504F014F85DF804EB17
:100C50004EF0040E7047000000010020F800002054
:100C6000FC00002004ED00E020ED00E008ED00E0D5
:100C700053EA020C00F069802DE9F04B4FF00006BA
:100C8000002B1FBFB3FA83F503FA05F424FA05F627
:100C90005E4012BF1643B2FA82F502FA05F4C5F1BE
:100CA00020051EBF22FA05FC44EA0C04203556EA52
:100CB000044C4FEA144418BF641C4FF000084FF076
:100CC0000009904271EB030C39D3002919BFB1FA26
:100CD00081F701FA07F6B0FA80F700FA07F6C7F1D4
:100CE00020071EBF20FA07FC46EA0C062037B6FB99
:100CF000F4FCA7EB0507103F07F01F0BCBF1200614
:100D00000CFA0BFB2CFA06F644BFB3460026202F44
:100D1000A4BF5E464FF0000B5BEA060C08BF4FF025
:100D2000010B19EB0B09ABFB027C48EB0608C01B5F
:100D300006FB02CC0BFB03CC71EB0C01C1E70B46AD
:100D4000024641464846BDE8F08B13B54FF000001F
:100D50004FF00001AFF30080BDE81C407047B2F1D6
:100D600020030AD5C2F1200320FA02F001FA03F3AE
:100D700021FA02F140EA0300704721FA03F04FF034
:100D80000001704710B5203AC0F00B80B1E8185050
:100D9000203AA0E81850B1E81850A0E81850BFF465
:100DA000F5AF5FEA027C24BFB1E81850A0E8185004
:100DB00044BF18C918C0BDE810405FEA827C24BF58
:100DC00051F8043B40F8043B08BF7047D20728BFE6
:100DD00031F8023B48BF11F8012B28BF20F8023B35
:100DE00048BF00F8012B70474FF000020429C0F003
:100DF000128010F0030C00F01B80CCF1040CBCF14D
:100E0000020F18BF00F8012BA8BF20F8022BA1EB9E
:100E10000C0100F00DB85FEAC17C24BF00F8012B83
:100E200000F8012B48BF00F8012B70474FF000027B
:100E300000B5134694469646203922BFA0E80C50D0
:100E4000A0E80C50B1F12001BFF4F7AF090728BFAB
:100E5000A0E80C5048BF0CC05DF804EB890028BF27
:100E600040F8042B08BF704748BF20F8022B11F050
:100E7000804F18BF00F8012B7047704770477047CC
:100E800000487047F05600207546FFF7F9FFAE4660
:100E900005006946534620F00700854618B020B586
:100EA000FFF736FEBDE820404FF000064FF0000788
:100EB0004FF000084FF0000B21F00701AC46ACE802
:100EC000C009ACE8C009ACE8C009ACE8C0098D466F
:100ED000704710B50446AFF300802046BDE81040CF
:100EE000FFF7FDBD01491820ABBEFEE7260002005A
:100EF000704710B5FFF722FE05F038FD002010BD49
:100F000000BFFEE770B502460B46002000210AE054
:100F1000545C84EA2025EDB2044E36F8155085EA7B
:100F20000025A8B2491C9942F2DB70BD9C7D0108E6
:100F30002DE9FC47074688466FF0FF010A0C07EAD7
:100F4000010008EA0201CDE90001FF242F2519E084
:100F50002A46DDE9006930464946FFF700FF0121D6
:100F6000084000F0FF0A04F0800030B12F2080EA32
:100F70004400C0B280EA0A0002E060064AEA10605B
:100F800004466D1E002DE3DA2046BDE8FC87000014
:100F900070B502460023002005E0145C83EA0405D6
:100FA000034E735D401C8842F7DB184670BD00009D
:100FB0009C7C01081CB500200190012301AA762128
:100FC000314803F0BBFA0020009001236A467521E6
:100FD0002D4803F099FA01200190012301AA112163
:100FE000294803F0ABFA0A2005F038F800200190F8
:100FF000012301AA7621244803F0A0FA00200190E1
:10100000012301AA4E21204803F098FA012005F09F
:1010100025F806200190012301AA4F211A4803F068
:101020008DFA26200190012301AA5021164803F0D1
:1010300085FA0F200190012301AA4E21124803F0E6
:101040007DFA12200190012301AA51210E4803F0DC
:1010500075FA05200190012301AA53210A4803F0E3
:101060006DFA00200190012301AA5221064803F0E5
:1010700065FA322004F0F2FF00F0FCFA00F0A8FA62
:10108000402002F089FB1CBDA03B00200CB515E000
:101090000B48006801900B48006800900848006801
:1010A0000199884200D209E000210B46DDE90002E7
:1010B000114340EA0302084611460CBDE8E7000070
:1010C000240C0040000000207047000010B50D48BF
:1010D0000068C0F3401098B103F006FF202002F032
:1010E000AFFA002107481C3002F098FAFFF7CEFF54
:1010F0000020054908600549086003F00FFF00BFA4
:1011000010BD0000006402401C00002020000020F0
:1011100010B586B01F480068C0F34040002837D0A3
:1011200003F0E2FE4FF4003002F08AFA4FF4803010
:1011300002F086FA1848446914B34069008806280A
:1011400014D10122D103154802F073FC0620ADF83A
:1011500004000E2212490DF1060004F0D5F9122206
:1011600001A91048006804F013FB00BF00200A49E1
:1011700048612146084805F0A5FB0020064908768D
:1011800000210448583002F049FA03F0C7FE00BFBE
:1011900006B010BD0064024040290020000002405B
:1011A000CF3100203000002010B509480068C0F39E
:1011B000405060B103F098FE4FF4001002F040FA86
:1011C000002103486C3002F029FA03F0A7FE10BD9D
:1011D0000064024010B586B01D480068C0F340307E
:1011E000002832D003F080FE1A4802F029FA1A488B
:1011F000446914B340690088042814D101224102D3
:10120000164802F016FC0420ADF804000722144929
:101210000DF1060004F078F9122201A911480068C6
:1012200004F0B6FA00BF00200B49486121460A4885
:1012300005F048FB002008490876002104484430A6
:1012400002F0ECF903F06AFE00BF06B010BD00002A
:101250000066024000200010A02F00200000024085
:101260005F0000203000002010B509480068C0F37E
:10127000404058B103F038FE064802F0E1F9002181
:101280000348583002F0CAF903F048FE10BD0000D0
:1012900000660240000002107047000010B503F025
:1012A00023FEFFF7F3FE0D490860084600680C496D
:1012B0000968401A0B490860084800680849086036
:1012C000402002F069FA08480078012802D1074856
:1012D00000F07CFC03F022FE10BD0000080000209E
:1012E0000C000020100000201400002040290020E5
:1012F0007FB500F065F90546154C16482168C0F821
:101300009C136168C0F8A013A168C0F8A413C0F8CA
:10131000A8534FF4007200F1180100F0B5FF6420EB
:1013200009214FF400620C4BCDE90032CDE90210E7
:1013300000230A4A0AA10D4804F076FE0B4804F087
:10134000E9FE00231A460AA10A4804F0CFFB7FBD3C
:10135000E8F7FF1FF8010020A0080020791301081A
:1013600053657269616C5F5461736B00A01000205B
:10137000000000008008002031E04FF0FF311848E5
:1013800004F0F0FB4FF4C8721649A1F56B7000F041
:10139000B8FF0446002C21DD0FE0012004F09FFD82
:1013A000114801680068401C0F4A106041F2883003
:1013B000814202DB00200D4908600C4800680028CB
:1013C000EBD1012009490860A3B2064A084909483F
:1013D00006F05CF80121074802F020F900BFCCE7D5
:1013E00080080020A4050020200000201C00002010
:1013F000041001401C64024038B504460D463A48CA
:10140000C0E917453948D0F83C0390ED010A384847
:1014100080EDE40A02203649C1F83803334890EDE4
:101420000F0A084680EDCF0A304890ED100A0846B2
:1014300080EDD00A2D4890ED110A084680EDD10AC2
:101440002A4890ED0C0A084680EDD20A274890ED14
:101450000D0A084680EDD30A244890ED0E0A08468E
:1014600080EDD40A214890ED170A084680EDD50A90
:101470001E4890ED730A084680EDD60A1B4890ED91
:10148000740A084680EDD70A184890ED750A084698
:1014900080EDD80A154890ED700A084680EDD90A0B
:1014A000124890ED710A084680EDDA0A0F4890ED77
:1014B000720A084680EDDB0A0C4890ED760A084671
:1014C00080EDDC0A7420084BFB220A4900900A4890
:1014D00000F016F87C220849054800F0DDFE0748B8
:1014E00004F018FB38BD0000300500202012002059
:1014F000F80100203807002020110020800800207B
:101500002DE9F05F04460E46904699460A9DFC2060
:10151000207084F80180A57096F82010306A401C75
:101520003062E17004212046FFF732FD834684F8E3
:1015300004B015B90520BDE8F09F04F1070A0020AA
:1015400004E019F800100AF80010401CA842F8DB6B
:10155000E9B25046FFF7D6FC074638126071A77112
:10156000FD21E81D2154401CE5E7000010B511489D
:10157000008A00F00704042C1AD002F0EDF902F002
:10158000FDF9042002F064F902F09CF900BFBFF3FA
:101590004F8F0948006800F4E06008490843001DC7
:1015A00005490860BFF34F8F00BF00BF00BFFDE7D4
:1015B00010BD000000C0FF1F0CED00E00000FA05A8
:1015C00002480088C0F30B0070470000002004E0D0
:1015D00008B50120009001236A467621244802F0D4
:1015E000ADFF01236A467B21214802F08DFF9DF863
:1015F000000020F0060000909DF8000040F004007C
:10160000009001236A467B21194802F097FF0020D1
:10161000009001236A467621154802F08FFF95203D
:10162000009001236A464D21114802F087FF2020D7
:10163000009001236A4663210D4802F07FFF0820D5
:10164000009001236A466521094802F077FF9DF862
:10165000000020F0080000909DF8000040F0080015
:10166000009001236A465421014802F067FF08BD3B
:10167000A03B002008B50020009001236A46762197
:101680002D4802F05BFF01236A4614212A4802F02C
:101690003BFF9DF8000020F0040000909DF8000042
:1016A00040F0020000909DF8000040F00100009022
:1016B00001236A461421204802F040FF01236A46B4
:1016C00063211D4802F020FF9DF8000020F030004B
:1016D000009001236A466321174802F02FFF01237F
:1016E0006A466421144802F00FFF9DF8000020F0C4
:1016F000100000909DF8000020F0400000909DF840
:10170000000020F02000009001236A4664210A486E
:1017100002F014FF01236A466521074802F0F4FE37
:101720009DF8000040F00800009001236A46652102
:10173000014802F003FF08BDA03B002008B50120CE
:10174000009001236A467621424802F0F7FE012309
:101750006A467B213F4802F0D7FE9DF800103EA06C
:1017600003F058FC01236A467B213A4802F0CCFE84
:101770009DF8001038A003F04DFC002000900123DC
:101780006A467621334802F0D9FE01236A461421C5
:10179000304802F0B9FE9DF8001039A003F03AFC81
:1017A00001236A4663212B4802F0AEFE9DF800102B
:1017B0003AA003F02FFC01236A466421254802F079
:1017C000A3FE9DF800103CA003F024FC01236A4610
:1017D0006521204802F098FE9DF800103DA003F01E
:1017E00019FC01236A462D211A4802F08DFE9DF84E
:1017F00000103FA003F00EFC01236A464E2115485D
:1018000002F082FE9DF8001040A003F003FC0123CB
:101810006A464D210F4802F077FE9DF800103BA06C
:1018200003F0F8FB01236A4650210A4802F06CFEDF
:101830009DF8001035A003F0EDFB01236A464F210F
:10184000044802F061FE9DF8001030A003F0E2FBB6
:1018500008BD0000A03B00204D50555245475F4950
:101860004E54465F434F4E464947355F4231202034
:1018700020203D203078253032580D0A000000002D
:10188000494E545F434F4E464947202020203D207B
:101890003078253032580D0A00000000494E545F60
:1018A000434F4E464947302020203D203078253098
:1018B00032580D0A00000000494E545F434F4E4617
:1018C0004947312020203D203078253032580D0AFC
:1018D00000000000494E545F534F5552434530209D
:1018E00020203D203078253032580D0A00000000BD
:1018F000494E545F535441545553202020203D20DD
:101900003078253032580D0A000000005057525FE1
:101910004D474D545F30202020203D203078253029
:1019200032580D0A000000002DE9FC4104460D4626
:101930001646002744F080001349087000204870C4
:10194000701CC7B200224FF40041104802F071F839
:101950000F480D4B0F4A1049CDE900070E481430CF
:1019600001F0CEF900BF0B480C388068C0F3C010FE
:101970000028F8D10122D103044802F05AF80448A3
:1019800040782870BDE8FC81E9000020000002409A
:10199000EB0000200C3001405864024070B5044652
:1019A00001F0AAFB0546012001F0D6FBFFF76EFB14
:1019B0005E4A03C25D48D0E900205D49D1E90031AB
:1019C000D21A60EB01005B49C1E90020204600F01B
:1019D000BDF800EE100AF8EEC00A9FED571A80EE2F
:1019E000810AF3EE090A30EE200A544880ED000A1D
:1019F000A01C00F0ABF800EE100AB8EEC00ADFED54
:101A0000500A20EE200A4D4880ED010A201D00F00A
:101A10009DF800EE100AB8EEC00ADFED490A20EE8C
:101A2000200A464880ED020AA01D00F08FF800EE63
:101A3000100AB8EEC00ADFED420A20EE200A3F4845
:101A400080ED030A04F1080000F080F800EE100AAF
:101A5000B8EEC00ADFED3B0A20EE200A374880EDE1
:101A6000040A04F10A0000F071F800EE100AB8EE62
:101A7000C00ADFED340A20EE200A304880ED050A66
:101A800004F10C0000F062F800EE100AB8EEC00A93
:101A9000DFED2C0A20EE200A284880ED060AD0ED62
:101AA000010AB0EE600A284800F06BFC2348D0ED34
:101AB000020AB0EE600A2448103000F062FC1F48B1
:101AC000D0ED030AB0EE600A1F48203000F059FC48
:101AD0001A48D0ED040AB0EE600A1B48303800F016
:101AE00050FC1648D0ED050AB0EE600A16482038C2
:101AF00000F047FC1148D0ED060AB0EE600A12482B
:101B0000103800F03EFC0D48D0ED000AB0EE600A3F
:101B10000D48303000F035FC0448D0E90010044A8C
:101B2000C2E90010284601F017FB70BDD00000206C
:101B3000C8000020D8000020E17A0443683A002061
:101B400017B71C3B57A08B3A303B00200146487822
:101B50000A7840EA022000B2704700002DE9FC41FB
:101B600004460D461646002704F07F00124908700F
:101B700008464570701CC7B200224FF400410F4860
:101B800001F057FF0E480C4B0E4A0F49CDE90007F4
:101B90000D48143001F0B4F800BF0A480C388068D2
:101BA000C0F3C0100028F8D10122D103034801F08E
:101BB00040FFBDE8FC810000E90000200000024079
:101BC000EB0000200C3001405864024070B505461F
:101BD0000026284604F030FE044604B970BD0A48C9
:101BE0006060002060802146284604F0A5FE29465A
:101BF0000648006803F0F6FB05480068401C0449ED
:101C0000086000BFEAE70000151C01082C00002056
:101C1000C40000207CB506460C4601F06DFA05466E
:101C2000012001F099FA1E220021114803F0AAFCBC
:101C30001E2200210F4803F0A5FC062020809D20D5
:101C40000B49087000224FF400410B4801F0F1FEEF
:101C50000F200849064B094ACDE9001008490848F9
:101C6000143001F04DF8284601F076FA7CBD0000F2
:101C7000B0310020CE310020000002400C30014085
:101C80005864024010B50448006800B910BD03480C
:101C900003F040FF00BFF9E728000020E01D00200E
:101CA0002DED028B8CB010E24FF0FF31FE4803F0B7
:101CB00059FFFE48D0F8C80200F6C410FB49C1F82D
:101CC000C8020846D0F8C022D0F8C402521C40F125
:101CD0000000C1F8C022C1F8C4020846D0F8CC0206
:101CE000401CC1F8CC0200BFEFF310800646012073
:101CF00080F3108800BFEE4890ED000A8DED090AD0
:101D000090ED010A8DED0A0A90ED020A8DED0B0AA5
:101D1000E84890ED010A8DED060A90ED020A8DED7E
:101D2000070A90ED030A8DED080AE14890ED030AD9
:101D30008DED030A90ED040A8DED040A90ED050A7D
:101D40008DED050ADB4890ED040A8DED000A90ED5B
:101D5000050A8DED010A90ED060A8DED020AD448C0
:101D600090ED060AB0EE408AD24890ED000AF0EEFF
:101D7000408A304680F3108800BF00BF9DED0A0AFC
:101D8000B1EE400A084680ED470A9DED090AB1EE22
:101D9000400A80ED480A9DED0B0AB1EE400A80ED45
:101DA000490A00BF00BF9DED070A80ED700A9DED56
:101DB000060A80ED710A9DED080AB1EE400A80ED39
:101DC000720A00BF00BF9DED050A80ED4A0A9DED35
:101DD000040A80ED4B0A9DED030AB1EE400A80ED46
:101DE0004C0A00BF00BF9DED010A80ED730A9DED16
:101DF000000A80ED740A9DED020AB1EE400A80ED02
:101E0000750A00BF80ED4D8AC0ED768A90ED300AEC
:101E1000D0ED470A30EE200A80ED300A90ED310A0D
:101E2000D0ED480A30EE200A80ED310A90ED320AFA
:101E3000D0ED490A30EE200A80ED320A90ED330AE7
:101E4000D0ED4A0A30EE200A80ED330A90ED340AD4
:101E5000D0ED4B0A30EE200A80ED340A90ED350AC1
:101E6000D0ED4C0A30EE200A80ED350A90ED3B0AA9
:101E7000D0ED4D0A30EE200A80ED3B0A90ED690A64
:101E8000D0ED700A30EE200A80ED690A90ED6A0A02
:101E9000D0ED710A30EE200A80ED6A0A90ED6B0AEF
:101EA000D0ED720A30EE200A80ED6B0A90ED6C0ADC
:101EB000D0ED730A30EE200A80ED6C0A90ED6D0AC9
:101EC000D0ED740A30EE200A80ED6D0A90ED6E0AB6
:101ED000D0ED750A30EE200A80ED6E0A90ED6F0AA3
:101EE000D0ED760A30EE200A80ED6F0AD0F8C802F5
:101EF00041F2883188427DD36C48D0ED300A90EDB4
:101F0000B30AB8EE400A80EE801A80ED0C1AD0EDCC
:101F1000310A90EDB30AB8EE400A80EE801A80EDE7
:101F20000D1AD0ED320A90EDB30AB8EE400A80EEF9
:101F3000801A80ED0E1AD0ED330A90EDB30AB8EE98
:101F4000400A80EE801A80ED0F1AD0ED340A90ED31
:101F5000B30AB8EE400A80EE801A80ED101AD0ED78
:101F6000350A90EDB30AB8EE400A80EE801A80ED93
:101F7000111AD0ED3B0A90EDB30AB8EE400A80EE9C
:101F8000801A80ED171AD0ED690A90EDB30AB8EE09
:101F9000400A80EE801A80ED701AD0ED6A0A90ED4A
:101FA000B30AB8EE400A80EE801A80ED711AD0EDC7
:101FB0006B0A90EDB30AB8EE400A80EE801A80ED0D
:101FC000721AD0ED6C0A90EDB30AB8EE400A80EEBA
:101FD000801A80ED731AD0ED6D0A90EDB30AB8EE59
:101FE000400A80EE801A80ED741AD0ED6E0A90EDF2
:101FF000B30A00E068E0B8EE400A80EE801A80ED97
:10200000751AD0ED6F0A90EDB30AB8EE400A80EE73
:10201000801A80ED761A9FED280A80ED300A9FED38
:10202000260A80ED310A9FED240A80ED320A9FEDE9
:10203000220A80ED330A9FED200A80ED340A9FEDDD
:102040001E0A80ED350A9FED1C0A80ED3B0A9FEDCC
:102050001A0A80ED690A9FED180A80ED6A0A9FED61
:10206000160A80ED6B0A9FED140A80ED6C0A9FED55
:10207000120A80ED6D0A9FED100A80ED6E0A9FED49
:102080000E0A80ED6F0AD0F8C802401A0749C1F85D
:10209000C8020020C1F8CC02FEF7F8FF04460D4646
:1020A000024800F52C7009E0E01D002020120020FD
:1020B00080310020683A00200000000030C0204637
:1020C0002946FFF799F900BF00BFEDE570B504465A
:1020D00000BFEFF310800546012001F037F82046DD
:1020E00000F0A8F800EE100AB8EEC00ADFED4D0AC5
:1020F00080EE201AB3EE090A31EE000A4A4880ED5C
:102100001C0A04F1080000F095F800EE100AB8EE81
:10211000C00ADFED460A20EE200A434880ED1D0A82
:1021200004F10A0000F086F800EE100AB8EEC00ACA
:10213000DFED3E0A20EE200A3B4880ED1E0A04F146
:102140000C0000F077F800EE100AB8EEC00ADFEDE0
:10215000370A20EE200A344880ED1F0AA01C00F048
:1021600069F800EE100AB8EEC00ADFED310A20EE81
:10217000200A2D4880ED200A201D00F05BF800EEBB
:10218000100AB8EEC00ADFED2A0A20EE200A26481F
:1021900080ED210AA01D00F04DF800EE100AB8EE07
:1021A000C00ADFED230A20EE200A1F4880ED220A34
:1021B000D0ED1D0AB0EE600A303000F0E2F81A48A7
:1021C000D0ED1E0AB0EE600A403000F0DAF8164892
:1021D000D0ED1F0AB0EE600A503000F0D2F812487D
:1021E000D0ED200AB0EE600A00F0CBF80E48D0ED3A
:1021F000210AB0EE600A103000F0C3F80A48D0EDB2
:10220000220AB0EE600A203000F0BBF80648D0ED9C
:102210001C0AB0EE600A603000F0B3F8284600F007
:1022200095FF70BD00008043C02F002017B71C3BF6
:1022300057A08B3A014648788A7840EA022000B2DB
:10224000704700BFFEE77047F0B503460C4603F049
:102250000701C1F10700042801D9042001E0C1F100
:1022600007000646081D072801D2002000E0C81E0E
:1022700005460120B040401E2040A8400127AF4045
:102280007F1E17403843F0BD0161026000234360A8
:102290008360C360436170472DE9F04104460E46F8
:1022A000154600BFEFF310800746012000F057FFEE
:1022B000E06828442168884209DD6069284460613B
:1022C000384600F04CFF4FF0FF30BDE8F081E06889
:1022D0002844E06000200DE0315C63682269D1543D
:1022E0006268521C236892FBF3FC03FB1C226260B1
:1022F00000BF401CA842EFDB384600F030FF002052
:10230000E3E72DE9F04707468846144600BFEFF3A0
:1023100010808146012000F022FFFD68484600F051
:102320001EFFA54200DD2546002605E0384600F0E8
:1023300008F808F80600761CAE42F7DB2846BDE830
:10234000F08770B504464FF0FF3500BFEFF3108003
:102350000646012000F003FFE06868B1A16820692B
:10236000455CA068401C216890FBF1F201FB120063
:10237000A060E068401EE060304600F0F0FE2846B5
:1023800070BD0168491C0160D0ED010A70EE800A41
:10239000C0ED010AD0ED020AF4EE400AF1EE10FAA7
:1023A00003D1C168491CC16001E00021C1607047D0
:1023B0002DE9F0410546284600F019F806460F467B
:1023C000300A40EA0760054900EA010404F40020ED
:1023D00008B1080504432046BDE8F081FFFF0F0067
:1023E00010B504462046FFF7E3FF001110BD30B5DD
:1023F0000246107803020021507809430343907885
:102400000024240644EA10240506184641EA050380
:1024100040EA0401D4780020000440EA144043EA72
:102420000443084314790021090241EA146143EA94
:10243000042301435079184330BD2DE9F04141F2A6
:10244000DB21282000F0BDFA282000F08DFA064696
:102450000F463046394601F0E3FA41F2DB2188426B
:1024600003D04FF0FF30BDE8F08141F2DB2129209D
:1024700000F0A7FA292000F077FA04460D4620461E
:10248000294601F0CDFA41F2DB21884202D04FF01B
:10249000FF30E8E70020E6E770B5044614B94FF0D6
:1024A000FF3070BD1C204FF4A16100F0A9FAEB20B1
:1024B0004FF4A96100F0A4FA054601F0B1FA2080BA
:1024C000DD204FF4B16100F09BFA054601F0A8FA57
:1024D00060802A204FF4B96100F092FA000A40EAC5
:1024E0000160A080C4204FF4C16100F089FA000AA5
:1024F00040EA0160E08033204FF4C96100F080FAC7
:10250000000A40EA0160208105204FF4D16100F00B
:1025100077FA000A40EA01606081F2204FF4D96145
:1025200000F06EFA000A40EA0160A08169204FF4D1
:10253000E16100F065FA000A40EA0160E0819E2056
:102540004FF4E96100F05CFA000A40EA0160208281
:102550009E204FF4E96100F053FA000A40EA01605E
:10256000608200209DE701460D290DD01E290BD069
:10257000442909D0EB2907D0B1F58C7F04D0B1F5FF
:10258000B97F01D06F2901D1012070470020FCE7FD
:102590002DE9F0478246884691465046FFF7E3FF13
:1025A00018B96FF00100BDE8F0874046FFF7DBFF88
:1025B00010B96FF00100F6E74846FFF7D4FF10B9F5
:1025C0006FF00100EFE740F26D11252000F0F9F9FE
:1025D000252000F0C9F904460D462046294601F0A1
:1025E0001FFA40F26D11884202D04FF0FF30DAE757
:1025F00040F26D11262000F0E4F9262000F0B4F935
:1026000006460F463046394601F00AFA40F26D118F
:10261000884202D04FF0FF30C5E70020C3E70146F3
:1026200009B90120704708884FF6FF72904201D027
:102630000020F7E748884FF6FF72904201D0002053
:10264000F0E788884FF6FF72904201D00020E9E75A
:10265000C8884FF6FF72904201D00020E2E7088957
:102660004FF6FF72904201D00020DBE748894FF619
:10267000FF72904201D00020D4E788894FF6FF72A4
:10268000904201D00020CDE7C8894FF6FF729042FA
:1026900001D00020C6E7088A4FF6FF72904201D0B1
:1026A0000020BFE7488A4FF6FF72904201D0002019
:1026B000B8E70120B6E700002DE9F0472DED028BC9
:1026C000074600BFEFF310808046012000F041FD77
:1026D0003846FFF78CFE05460E4628463146FEF783
:1026E00027FC814640F2FF3101EA5614E8B2484522
:1026F0007ED1042C0ED006DC012C4FD0022C64D0ED
:10270000032C1CD17AE0052C1AD0062C2FD0102CCB
:10271000F7D18AE03846FFF74BFE00EE100AB8EE1C
:10272000C00ADFED560A80EE201A554880ED001AE7
:10273000D0ED000AB0EE600A5248FFF722FE8DE0AD
:102740003846FFF735FE00EE100AB8EEC00ADFED9E
:102750004B0A80EE201A4A4880ED011AD0ED010A9A
:10276000B0EE600A47481030FFF70BFE76E03846BF
:10277000FFF71EFE00EE100AB8EEC00ADFED3F0ABA
:1027800080EE201A3E4880ED021AD0ED020AB0EE2B
:10279000600A3C482030FFF7F4FD5FE03846FFF761
:1027A00007FE00EE100AB8EEC00ADFED370A80EE31
:1027B000201A334880ED031AD0ED030AB0EE600A08
:1027C00030483038FFF7DDFD48E03846FFF7F0FDD0
:1027D00000EE100AB8EEC00ADFED2B0A80EE201AD8
:1027E000274880ED041AD0ED040AB0EE600A00E03C
:1027F0003BE024482038FFF7C4FD2FE03846FFF7C0
:10280000D7FD00EE100AB8EEC00ADFED1F0A80EE19
:10281000201A1B4880ED051AD0ED050AB0EE600ABB
:1028200018481038FFF7ADFD18E03846FFF7D8FD1F
:1028300008EE100AB8EEC80ADFED140A80EE201A7E
:102840000F4880ED061AD0ED060AB0EE600A0D487A
:102850003030FFF796FD01F089F900BF00BF102C62
:1028600004D00B4800F030FA00E000BE404600F013
:1028700070FCBDEC028BBDE8F0870000000048450D
:1028800080310020103100200000C8440000C84200
:10289000A02F00202DE9F0414FF48C702F490880C3
:1028A000488088800027002400253C2000F05CF848
:1028B000000A40EA016086B22E2E01D0BDE8F08108
:1028C00000243DE0202003F00AFB244B9A8859881D
:1028D0001888FFF75DFEFFF7B0FD40F2D31040F619
:1028E000685100F0B3F9D72003F0F9FA1C48FFF75C
:1028F000D3FD40F28D3040F6685100F0A7F9032077
:1029000003F0EDFA1648FFF7C7FD1548FFF7C4FDC1
:102910001348FFF784FE08B9002501E0012511E006
:102920000F48FFF7B9FD0E48FFF7B6FD0C48FFF75B
:1029300076FE08B9002501E0012503E0601CC4B261
:10294000022CBFDB00BF012D02D06FF0020702E0B6
:1029500001200449087000BFB0E7000048000020D3
:102960009C3100204E0000202DE9F047814600BF39
:10297000002600210A4641EA010742EA891008229E
:1029800040EA020838464146FEF7D2FA0646374387
:102990003846414600F034F83846414600F030F8F9
:1029A00004460D4620462946FEF7C2FA0646E0B226
:1029B000B04203D120462946BDE8F08700200146F9
:1029C000FAE72DE9F0410446884600BF00270020C1
:1029D000202240EA000542EA8411082241EA020668
:1029E0004FEA083045EA101528463146FEF7A0FAAE
:1029F00007463D432846314600F028F9BDE8F081FE
:102A00007FB504460D46280A3E4908704D70200ED9
:102A100040EA05208870200C40EA0540C870200A72
:102A200040EA056008714C7100224FF4006136489D
:102A300000F0FFFF06203549324B354ACDE9001042
:102A400034493448143000F05BF900BF3148143089
:102A500000F006FE0028F9D000BF2E4800F000FE6E
:102A60000028FAD000BF2A48001F0068C0F3C01039
:102A70000028F8D10122D102234800F0DAFF00211A
:102A80000291039121480078DDE9022343EA002006
:102A9000CDE902201D484078DDE902321043CDE93E
:102AA00002301A488078090641EA1021DDE9022344
:102AB00042EA00601943CDE902011448C1780020C0
:102AC000000440EA1140DDE9022342EA01411843D3
:102AD000CDE902100D4801790020000240EA1160A2
:102AE000DDE9023243EA01211043CDE90210074833
:102AF0004079DDE902321843CDE90202DDE9020145
:102B000004B070BD78000020000002407F0000206B
:102B10000C3800404466024070B504460D46254816
:102B20000068072805D2DFE800F0050D151C232AF0
:102B3000320038E02B46224601204FF4A47100F009
:102B40003BF830E02B46224637204FF4C47100F0AA
:102B500033F828E02B462246AC20482100F02CF820
:102B600021E02B4622469A20882100F025F81AE021
:102B70002B4622466D20C82100F01EF813E02B469C
:102B80002246B1204FF4816100F016F80BE02B468D
:102B90002246F6204FF4847100F00EF84FF0FF301B
:102BA0000449086000BF00BF02480068401C01499A
:102BB000086070BD740000202DE9FC4104460D46FC
:102BC00090461E4600BFEFF310800746012000F03C
:102BD000C0FA07220021174802F0D4FC04203080FC
:102BE000280A144908704D70200E40EA05208870AC
:102BF000200C40EA0540C870200A40EA05600871D0
:102C00004C7100224FF400610B4800F012FF0620C7
:102C10000A49084B0A4ACDE900100A49094814300C
:102C200000F06EF8102008490860384600F091FA6C
:102C3000BDE8FC8158000020000002405F00002039
:102C40000C38004044660240500000207CB5044629
:102C50000D46280A174908704D70200E40EA0520DD
:102C60008870200C40EA0540C870200A40EA0560E0
:102C700008714C7100224FF400610F4800F0D9FE3A
:102C800006200E490B4B0E4ACDE900100D490D48A8
:102C9000143000F035F800BF0948001F0068C0F389
:102CA000C0100028F8D10122D102034800F0C1FE73
:102CB0007CBD000078000020000002407F00002062
:102CC0000C3800404466024070B505460026284690
:102CD00003F0B2FD044604B970BD074860600020EF
:102CE00060802146284603F027FE294603480068F5
:102CF00002F078FB00BFEFE7192B01082C00002041
:102D00002DE9F04780460C4615461E46DDE908973A
:102D1000BBB232462946404604F0B8FBBBB24A4635
:102D20002946204604F0B2FB0121404600F076FC23
:102D30000121204600F072FCBDE8F08770470000DA
:102D400086B028E04FF0FF33122201A91248006834
:102D500002F08AFCBDF80400012803D10DF1060041
:102D6000FFF7B4F9BDF80400052803D10DF1060002
:102D700000F066F9BDF80400042803D10DF1060047
:102D8000FFF79AFCBDF80400062803D10DF10600F8
:102D9000FEF704FE00BFD5E7300000201FB5204A33
:102DA0006421204803F066FD1F4A64211F4803F098
:102DB00061FD002208211EA002F050FA204908609F
:102DC000642005214FF400721E4BCDE90032CDE99D
:102DD000021000231C4A1DA1204803F025F91F48BA
:102DE00003F098F90023322212211DA002F0EEFB1D
:102DF0001F490860642005214FF400721D4BCDE986
:102E00000032CDE9021000231B4A1CA11F4803F029
:102E10000BF91E4803F07EF901201D4908701FBD03
:102E20004029002000230020A02F0020602900203E
:102E300073656E736F725F7371655F6D7100000013
:102E40002C000020001E0020952E010853656E7393
:102E50006F725F5371655F5461736B0000200020D7
:102E600073656E736F725F6371655F6D71000000F3
:102E70003000002080200020412D010853656E7332
:102E80006F725F4371655F5461736B008022002035
:102E90003400002008B51DE04FF0FF3269460E48AF
:102EA000006802F005FA009D287E80B9284603F0EC
:102EB00021FD044604B90DE0012028766C6121460D
:102EC00028466268904703F0BBF9E86101E003F02F
:102ED000B7F900BFE0E700002C00002010B502F0B9
:102EE00003F803F0B3F902F019F810BD70470000C1
:102EF0001F48006840F470001D4908601D480068C4
:102F000020F00100401C1B49086000BF1948006800
:102F1000C0F340000028F9D016480830006820F0BF
:102F2000030014490831086000BF124808300068E7
:102F3000C0F381000028F8D10E4800680E4908400F
:102F40000C49086000200B49083108600B48091F34
:102F5000086000200749A03108604FF41F000549B0
:102F60000C3108600648024980390860704700004B
:102F700088ED00E000380240FFFFF2FE023003005F
:102F80000008010810B54FF08040006900F0010012
:102F900068B101F0A9FFFEF775FE4FF080400069AF
:102FA00020F001004FF08041086101F0B7FF10BD33
:102FB00010B50B48006800F0010080B101F094FFEB
:102FC00008480078012802D10748FFF77DFE044831
:102FD000006820F001000249086001F09FFF10BD69
:102FE0001008004014000020A02F002010B5104849
:102FF000006800F00100C8B101F076FF0D480068DC
:10300000401C0C4908600C48007838B901200A4976
:10301000087008480068401E0649086004480068B7
:1030200020F001000249086001F078FF10BD0000A7
:10303000100C0040000000200400002000BFFEE74C
:1030400010B50446204600F013F8DFED060A20EE26
:10305000200A054880ED000A90ED000A0348FFF7BA
:1030600090F910BDE0B882B4380000208030002014
:1030700010B543781B04847843EA0423C47843EAF8
:1030800004021102091200EE101AB8EEC00A10BDB7
:103090000146481EB0F1807F01D301207047481ED1
:1030A0004FF0E0225061FF20044A107000204FF0E2
:1030B000E0229061072010610020EFE723ED00E09F
:1030C00002480068C0F30220704700000CED00E0E9
:1030D00010B5002804DB0A07130E054A135406E056
:1030E0000A07140E034A00F00F031B1FD45410BD2F
:1030F00000E400E018ED00E0EFF3108070470000FE
:10310000014609B900207047C8B220B1C8B20E4AC2
:10311000105C401CF7E701F47F4028B10A48C1F376
:103120000722805C0930EEE701F47F0028B10648F1
:10313000C1F30742805C1130E5E7034800EB116002
:1031400000781930DFE700009C87010880F31088C1
:10315000704780F31088704780F31088704780F3C1
:103160001088704703490868884201D001207047E1
:103170000020FCE7CC0100202DE9FC5F04468B46D3
:1031800015461E46DDE90C9ADDE90E7804F11400BF
:103190004060006000BF1C346560A660C4F80C90FD
:1031A000C4F810A02321D4E9030202F0EBF9D4E91A
:1031B000033C63441A1F144BD4E9010101F06CFE77
:1031C0002060A77667760020E061C4F82880C4F804
:1031D0002C8060612076E06520661C3C00902346D0
:1031E0000A4A2146019004F14C0003F0C7F800BFE1
:1031F0000748006818B1204605490968884700BF9C
:103200000020BDE8FC9F0000ED5E01089D61010803
:10321000E00100202DE9F04704460E461746984687
:10322000DDF8209084F80990607A20F00100607247
:10323000E66127620020A062C4F82480002506E031
:1032400004F1140101EBC50001F002FF6D1C012D1A
:10325000F6DBBDE8F08710B50246002001460EE01F
:1032600002F1140303EBC100D0E900436360D0E92D
:10327000003423604060006000BF481C0146012903
:10328000EEDB10BD0349096860F30711014A1160C4
:1032900070470000083802400349096860F38C2138
:1032A000014A11607047000008380240034909686C
:1032B00060F34F31014A1160704700000838024046
:1032C000012807D10749096821F030013031054A4A
:1032D000116005E00349096821F03001014A1160DD
:1032E00070470000A438024005282BD2DFE800F028
:1032F000030A11182100154A126861F30002134BEA
:103300001A6020E0114A126861F310420F4B1A60F4
:1033100019E00E4A126861F318620C4B1A6012E051
:103320000A4A7032126861F30002084B70331A6067
:1033300009E0064A7432126861F30002034B7433E9
:103340001A6000E000BF00BF704700000038024074
:103350002DE9FE4F04464FF00009CA46CB46002037
:10336000029001900025002600F050F9009000988E
:1033700020B1012812D002283FD112E03148006864
:10338000C0F3803038B12F480068C0F3003010B16E
:103390002D48206001E02D48206031E02C4820605D
:1033A0002EE028489C380068C0F3805002902548E1
:1033B0009C380068C0F3881922489C38006800F0E7
:1033C0000F0A20489C380068C0F30240214911F8D8
:1033D00000B0029810B91D48019001E01C4801900E
:1033E0000AFB0BFC0198A0FB097001466246002312
:1033F0003846FDF73DFC206002E01448206000BF25
:1034000000BF104898380068C0F303151248465DA5
:103410002068F04060600B4898380068C0F382254F
:103420000E48465D6068F040E060064898380068E5
:10343000C0F342350A48465D6068F040A060BDE8D0
:10344000FE8F0000A0380240006CDC0200127A00FF
:103450000024F4006E7C01084E7C01085E7C0108AB
:10346000667C010810B501460020094B03EB1142B0
:10347000D2F8002801F01F040123A3401A4001F0F4
:103480001F040123A3409A4200D000E0012010BD98
:103490000030024030B50024002500E0641C1120FB
:1034A000FFF7E0FF012802D0B4F5405FF6D311200A
:1034B000FFF7D8FF012801D0002500E001252846AC
:1034C00030BD000010B501290FD1104B03EB1042A5
:1034D000D2F8002800F01F040123A3401A430B4C2C
:1034E00004EB1043C3F800280EE0084B03EB104236
:1034F000D2F8002800F01F040123A3409A43034C94
:1035000004EB1043C3F8002810BD00000030024057
:1035100030B538B90F4C246824F4805404F5805435
:103520000C4D2C600B4C9C3C246860F39654094D68
:103530009C3D2C602C46246861F38E142C602C4634
:10354000246862F303042C602C46246863F312445D
:103550002C6030BDA03802401A48006820F00100FD
:10356000401C1849086000BF16480068C0F34000BE
:103570000028F9D013480830006820F003001149F2
:103580000831086000BF0F4808300068C0F38100B0
:103590000028F8D10B4800680B4908400949086029
:1035A00000200849083108600848091F0860002009
:1035B0000449A03108604FF41F0002490C31086033
:1035C0007047000000380240FFFFF2FE02300300A7
:1035D0000D49096860F301010B4A116000BF00BF8B
:1035E00000BF00BF00BF00BF00BF00BF00BF00BFE3
:1035F00000BF00BF00BF00BF00BF00BF00BF00BFD3
:1036000000BF00BF70470000083802400248006851
:10361000C0F381007047000008380240026861F37F
:103620000002026070470021016041600181418118
:10363000017341738173C173017441747047000059
:10364000B0F1805F04D920F07041034A116001E0BD
:1036500002490860704700000466024004640240AA
:1036600001460022B1F1805F02D90648026801E0FC
:103670000548026802EA010008B1012070470020F5
:10368000FCE70000006602400064024002684BF65E
:10369000EF731A40026002680B891A4302604B7C88
:1036A000026863F30D320260CB7B026863F38B2206
:1036B00002608B7B026863F3092202604B7B026825
:1036C00063F3C71202600B7B026863F38612026029
:1036D0000B7C026863F3451202604B89426863F316
:1036E0000F0242600A6882604A68C26070471AB17D
:1036F00003680B43036002E003688B430360704779
:103700000021026822F00102026000220260426091
:103710008260C260014640F2FF620A40B2F5C16FAA
:103720000DD2CAB2083A1423B2FBF3F293000F226F
:103730009A400D4B1B681A430B4B1A6012E040F283
:10374000FF620A40B2F5D16F0CD2CAB2083A142314
:10375000B2FBF3F293000F229A40044B1B681A430A
:10376000024B1A6070470000046402400466024085
:10377000D0F8002161F30002C0F800217047026810
:1037800061F306020260704700214172416001212D
:103790000172017070470000014908607047000025
:1037A000143C0140014600204868234A12688243C5
:1037B000214B1A601A1D126882431B1D1A604A7A37
:1037C0000AB30A782AB91A1F126802431B1F1A602B
:1037D00006E0194A121D12680243174B1B1D1A609E
:1037E000154A083212688243134B08331A601A1DB7
:1037F000126882431B1D1A600A7A2AB91A1F1268BE
:1038000002431B1F1A6016E00A7A012A07D10A4AEE
:103810000C3212680243084B0C331A600BE0064A64
:10382000083212680243044B08331A601A1D1268EA
:1038300002431B1D1A607047003C014003490968A0
:1038400060F3DF71014A116070470000583C02408C
:1038500030B504460325134813490860134808602F
:1038600000BF114808300068C0F340200028F8D09D
:103870000D480830006820F0100010300A49083167
:1038800008600B4804824FF4801000F053F805469E
:1038900005480830006820F010000349083108602E
:1038A000284630BD23016745083C0240AB89EFCD77
:1038B00000C0FF1F02480068C0F3400070470000CE
:1038C0001C3C02400848006820F080008030064917
:1038D000086005484030006820F0800080300249D0
:1038E0004031086070470000103C024003490968FD
:1038F00060F30C31014A116070470000003C024047
:1039000003200B49096801F0010109B100200EE014
:1039100007490968C1F3800109B1012007E00449A2
:103920000968C1F3001109B1022000E003207047CB
:103930000C3C024000B502460323FFF7E1FF0346BB
:1039400003E0FFF7DDFF0346521E0BB9002AF8D152
:1039500002B90423184600BD054806490860064818
:103960000860034803494031086003480860704715
:1039700023016745043C0240AB89EFCD30B50324F9
:10398000A525FFF797FF00B10025214821490860D0
:103990002148086000BF1F4808300068C0F340207D
:1039A0000028F8D01B480830006820F020002030A4
:1039B0001849083108600846006820F0400040308F
:1039C0000860C806FFF7B6FF0446124808300068D2
:1039D00020F020000F4908310860032C16D1A52DD6
:1039E00014D10846006820F01000103008600B4821
:1039F00005804FF48010FFF79DFF0446054808300E
:103A0000006820F01000034908310860204630BDEE
:103A100023016745083C0240AB89EFCD00C0FF1F82
:103A200002460B46100A40EA036080B2704781628A
:103A300070470AB1816100E0816270474FF6FF7103
:103A4000016000218171017141710121C1717047D3
:103A500070B50A4600211488A3B233E003F00104D4
:103A60006CB304684E000325B540AC430460947900
:103A70004D00AC4005682C430460446801258D402E
:103A8000AC434460446815798D402C43446084689D
:103A90004E000325B540AC438460D4794D00AC4062
:103AA00085682C438460C4684E000325B540AC4350
:103AB000C46054794D00AC40C5682C43C4605B10B1
:103AC0004C1CA1B2002BC9DC70BDF0B50023002452
:103AD0004D07ED0E02FA05F3CD105DB1456A4E07B4
:103AE000F70E0F26BE40B5434562456A45EA03041A
:103AF00044620AE0056A4E07F70E0F26BE40B54342
:103B00000562056A45EA03040462F0BD1FB564203E
:103B100009214FF400620D4BCDE90032CDE90210CE
:103B200000230B4A0BA10E4802F07EFA0C4802F06B
:103B3000F1FA00231A4609A10A4801F0D7FF0A4802
:103B40000068401C084908601FBD00006015002087
:103B5000A11C0108496D755F5461736B0000000082
:103B6000601D0020E01D00202800002010B5FDF79A
:103B70008DFA074908600846006806490968401A36
:103B800005490860024800680249086010BD00004D
:103B9000680000206C0000207000002070B586B026
:103BA00005460E46002400200190029003900490E8
:103BB00085F86268002E5ED0012E7DD105AB012212
:103BC0004C21284600F07AFB04439DF8140040F095
:103BD000400005909DF8140000F0DF00059005AB53
:103BE00001224C21284600F073FC044380200590FC
:103BF00005AB01221621284600F06AFC044340F67A
:103C00007200405D40F0010140F67200415505AB85
:103C100001225F21284600F051FB04439DF8140067
:103C200000F0FC0005909DF8140040F00C00059099
:103C30009DF8140040F02000059005AB01225F21A3
:103C4000284600F045FC04430120059005AB012205
:103C50006021284600F03CFC044301A9284600F0FE
:103C6000A8F9044300208DF8050001A9284600F0BA
:103C700040FB044333E00020059005AB01221621F0
:103C8000284600F025FC044305AB01225F212846AD
:103C900000F014FB04439DF8140000F0FC000590B4
:103CA0009DF8140040F00C00059005AB01225F2147
:103CB000284600F00DFC00E00EE0044301A9284670
:103CC00000F077F9044301208DF8050001A928468A
:103CD00000F00FFB044302E04FF0FF3400BF00BFD1
:103CE000204606B070BD38B505460024012128469F
:103CF00000F0D9FB0443287E30B1012830D00228DF
:103D000038D0032840D113E06B4601227C2128469D
:103D100000F0D4FA04439DF8000000F0FC0000908D
:103D20006B4601227C21284600F0D2FB04432EE0A2
:103D30006B4601227C21284600F0C0FA04439DF81E
:103D4000000040F00C0000906B4601227C212846C8
:103D500000F0BEFB04432846E9688847044316E0A8
:103D6000022000906B4601227A21284600F0B0FB29
:103D700004430CE0002000906B4601227A21284683
:103D800000F0A6FB044302E064F00A0400BF00BF99
:103D90000021284600F087FB0443204638BD70B55B
:103DA00004460D46002640F67200005D00F0F70163
:103DB00040F672000155005D284340F67201085537
:103DC00004F6720301225421204600F081FB0643D1
:103DD000304670BDFEB5054600244FF47A760121C9
:103DE000284600F060FB044301AB01227A212846FB
:103DF00000F064FA04436B4601227C21284600F05F
:103E00005DFA04430021284600F04DFB04430120E5
:103E1000029002AB01221121284600F059FB044315
:103E20000CB12046FEBD782000F046FB00BF01210A
:103E3000284600F038FB044301AB01227A212846D2
:103E400000F046FB044302AB01227021284600F03B
:103E500035FA04430021284600F025FB04439DF871
:103E6000080000F0100002900CB12046DAE74FF491
:103E70007A7000F021FB761E002E02DA6FF003004C
:103E8000D0E79DF808001028D1D102AB01222D21E6
:103E9000284600F013FA04439DF8080000F01000D3
:103EA00010B96FF00B00BDE70121284600F0FBFAC6
:103EB00004436B4601227C21284600F009FB0443A1
:103EC0000021284600F0EFFA044305F66E030422B1
:103ED0004D21284600F0F2F9044305F67203012251
:103EE0005421284600F0EAF9044302AB01224C2198
:103EF000284600F0E3F904439DF8080000F01000A4
:103F000085F86008287E032803D12846E968884799
:103F10000443204686E70146002081F86108704787
:103F2000F8B505460E46002496B30121284600F058
:103F3000BAFA04436B4601227B21284600F0BEF901
:103F400004439DF8000000F0F90000909DF8000087
:103F500040F0040000906B4601227B21284600F0CF
:103F6000B7FA04430021284600F09DFA0443952047
:103F700085F86E0805F66E0301224D21284600F0F3
:103F8000A7FA044308212846FFF709FF04430EE07F
:103F9000FFE795F86E0800F0FB0085F86E0805F65F
:103FA0006E0301224D21284600F092FA0443204678
:103FB000F8BDF8B506460C460025002000906B467B
:103FC00002226521304600F079F90543042130468C
:103FD00000F069FA05430DF1020301224D2130463C
:103FE00000F06CF905430021304600F05CFA05430F
:103FF0009DF80000C0F3801020709DF80000C0F311
:10400000C00060709DF80000C0F38000A0709DF8B3
:104010000000C0F34000E0709DF80100C0F3C00054
:1040200020719DF8010000F0010060719DF8010011
:10403000C0F34000A0719DF80100C0F38000E07162
:104040009DF80200C0F3401020729DF80200C0F3FA
:10405000001060729DF80200C0F3C000A0729DF8CD
:104060000200C0F34000E0729DF80200C0F380003F
:1040700020739DF8020000F0010060732846F8BD2F
:104080002DE9F04104460F461646002540F678011A
:104090002046FCF7CBFE1C2239462046FCF772FE78
:1040A00040F6B83000F008FA2046FFF71CFE28431F
:1040B000051E02D02846BDE8F081E661204600F0EA
:1040C0000FF805434FF0FF310020C4F85018C4F832
:1040D0005408C4F85818C4F85C082846EBE70000F8
:1040E00030B585B005460024734B0FCB8DE80F002B
:1040F0002846FFF76FFE044301212846FFF710FF13
:1041000004434FF40760405D00F01F014FF4076067
:104110004155405D4FF40761485505F5076301229D
:104120004F21284600F0D4F9044340F67100405D69
:1041300000F01F0140F671004155405D40F0200144
:1041400040F67100415505F67103012250212846C1
:1041500000F0BEF904430020049004AB01221621B4
:10416000284600F0B5F9044300212846FFF716FD64
:10417000044304AB01226221284600F09FF8044367
:104180009DF8100000F08F00049004AB0122622122
:10419000284600F09DF9044308212846FFF7FFFD5B
:1041A000044304AB01221421284600F087F804439D
:1041B0009DF8100040F0020004909DF8100040F0BF
:1041C0000100049004AB01221421284600F080F97C
:1041D000044304AB01226321284600F06FF8044336
:1041E0009DF8100000F0CF0004909DF8100040F002
:1041F0001000049004AB01226321284600F068F906
:10420000044304AB01226421284600F057F804431C
:104210009DF8100000F0EF00049004AB012264212F
:10422000284600F055F904436946284600F061F835
:10423000044304AB01225121284600F03FF8044317
:104240009DF8100000F0F30004909DF8100040F07D
:104250000400049004AB01225121284600F038F9F3
:10426000044304AB01225321284600F027F80443FD
:104270009DF8100000F0E70004909DF8100040F059
:104280000800049004AB01225321284600F020F9D5
:1042900004432846FFF73FFE0443102140F66C001C
:1042A00041550121401C4155602085F86A080020D5
:1042B000A863204605B030BD8C7C01082DE9F04193
:1042C0000446884615461F4626463069A84203D252
:1042D0006FF00400BDE8F0812B463A464146304677
:1042E000D6F804C0E04710B16FF00200F2E70020FA
:1042F000F0E7F8B506460C460025002000906B4616
:10430000022265213046FFF7D9FF054304213046DC
:1043100000F0C9F805430DF1020301224D2130469A
:10432000FFF7CCFF05439DF8000000F0B1008DF8C9
:1043300000009DF80000217809B1012100E0002172
:1043400040EA81108DF800009DF80000617809B105
:10435000012100E0002140EAC1008DF800009DF835
:104360000000A17809B1012100E0002140EA8100AC
:104370008DF800009DF80000E17809B1012100E00E
:10438000002140EA41008DF800009DF8010000F096
:10439000F0008DF801009DF80100217909B101219B
:1043A00000E0002140EAC1008DF801009DF8010005
:1043B000617909B1012100E0002108438DF8010075
:1043C0009DF80100A17909B1012100E0002140EA36
:1043D00041008DF801009DF80100E17909B101214A
:1043E00000E0002140EA81008DF801009DF8020004
:1043F00000F0C0008DF802009DF80200217A09B19A
:10440000012100E0002140EA41108DF802009DF8F2
:104410000200617A09B1012100E0002140EA0110A7
:104420008DF802009DF80200A17A09B1012100E097
:10443000002140EAC1008DF802009DF80200E17AF7
:1044400009B1012100E0002140EA41008DF802009D
:104450009DF80200217B09B1012100E0002140EA22
:1044600081008DF802009DF80200617B09B10121F5
:1044700000E0002108438DF802000DF10203012243
:104480004D21304600F024F805430021304600F06D
:104490000AF805436B4602226521304600F018F801
:1044A00005432846F8BD13B5044601AB0122762129
:1044B000204600F00DF81CBD70B5044604F2E7304C
:1044C0004FF47A71B0FBF1F5284601F008FD70BD9C
:1044D0002DE9F0410446884615461F462646706978
:1044E000A84203D26FF00400BDE8F0812B463A46A3
:1044F00041463046D6F808C0E04710B16FF00200E0
:10450000F2E70020F0E700002DE9F04107460C46F5
:1045100015461E461E210748FCF788FC1E2106484A
:10452000FCF762FCB2B229462046FDF7FDF90020F7
:10453000BDE8F081843A0020A23A00202DE9F04144
:1045400007460C4615461E461E210748FCF76EFC22
:104550001E210648FCF748FCB2B229782046FDF738
:10456000FDFA0020BDE8F081843A0020A23A002044
:1045700010B500231A461AA11A4801F0B7FA002410
:1045800000201949086019484860194888604FF4AC
:104590008060086148610120087600221548FFF715
:1045A0006FFD04460123144A11210F48FFF7C6FF8F
:1045B0000A2001F053FD0123104A75210A48FFF734
:1045C000A3FF0E4800786F2801D0002010BDFCF733
:1045D000F1FCFDF7B3F80120094908702046F5E722
:1045E00000000000C03A0020A03B0020094501085F
:1045F0003D450108F0310020F5000020C0000020FA
:10460000F400002010B503F059F903F01FF84FF43F
:104610007A7002F083FB02F087FF02F065FF02F080
:104620000FFE00231A464749474802F02FFF012199
:104630004548FEF7F3FF02F02FFE00231A464149DA
:104640004148143002F022FF01213F481430FEF7A8
:10465000E5FF02F053FE00231A463C493A48503029
:1046600002F014FF012138485030FEF7D7FF02F066
:1046700077FE00231A4635493348643002F006FFBE
:10468000012131486430FEF7C9FF02F09DFE00238E
:104690001A462F492F4802F0F9FE01212D48FEF756
:1046A000BDFF02F0C1FE00231A46294929481430F3
:1046B00002F0ECFE012127481430FEF7AFFF03F0B3
:1046C00067FA03F009F803F07FF802F0E3FE03F065
:1046D00059F903F0D9F903F007FA03F031FA012090
:1046E000FFF704F90120FFF7A9F800211648FEF7AB
:1046F00095FF002114481430FEF790FF0021124866
:104700005030FEF78BFF00210F486430FEF786FF24
:1047100000211048FEF782FF00210E481430FEF7FA
:104720007DFF0122D1030C48FFF783F9FFF720FF3B
:10473000FEF7B0F802F014FB0120084908700020D1
:1047400010BD000004100140086402400C3001401C
:104750000C38004044660240000002401400002073
:1047600010B5044600F0AAF9FFF74CFF10BD000099
:104770002DE9F0470B4614464FF0000C00BF2C4AC1
:104780001268C2F302211D4626460A46C2F10709F5
:10479000B9F1040F02D94FF0040901E0C2F1070991
:1047A000C84602F10409B9F1070F02D24FF000091F
:1047B00001E0A2F103094F464FF0010909FA08F997
:1047C000A9F1010909EA050909FA07F94FF0010AF7
:1047D0000AFA07FAAAF1010A0AEA060A49EA0A09E4
:1047E000CC4601466246002904DB15072E0E114D0A
:1047F0006E5407E015072F0E0D4D0C3501F00F0616
:10480000361FAF5500BF014600290DDB00BF00BFBA
:1048100001F01F050122AA404D09AD0005F1E02578
:10482000C5F8002100BF00BF00BFBDE8F087000051
:104830000CED00E000E400E000BF00F00702064BD2
:1048400019684FF6FF031940044B0B4343EA02215A
:10485000014B196000BF70470CED00E00000FA0545
:1048600030B51A4C436824681919884215D04B8812
:104870009BB9174B1B6899420FD0164B1B688B4294
:1048800001D1144B18604B684360104B1B68C31A6E
:104890000E4D4C682D682C44A3600C4C8368246832
:1048A0001A19824211D053887BB90A4B1B68834284
:1048B00001D1084B1A6043685360044B1B68D31A3C
:1048C000024D44682D682C44A36030BD20010020B7
:1048D00024010020280100202DE9F04F86B00D466C
:1048E0009C46DDE9106401960F9B04F04008B8F186
:1048F000000F02D0DFF8708101E0DFF87081CDF8A1
:10490000008004F01008B8F1000F01D024F0010479
:1049100004F00108B8F1000F02D04FF0300801E0B8
:104920004FF02008C246002704F00208B8F1000F3B
:1049300011D0002A02DA2D2752420CE004F00408BC
:10494000B8F1000F01D02B2705E004F00808B8F1FA
:10495000000F00D02027002142B94FF0300B8846CD
:10496000491C0DF1080909F808B01DE01AE0E146FC
:10497000B9F10A0F08D14FF00A0BB2FBFBFE0BFB9B
:104980001E28B2FBFBF202E002F00F08120900BF82
:10499000DDF8009019F808B08846491C0DF10809A7
:1049A00009F808B0002AE2D1B14200DD0E469B1B97
:1049B00004F01108B8F1000F10D117B1002B00DD81
:1049C0005B1E06E0A84203D84FF0200880F8008064
:1049D000401CB3F10008A3F10103F3DC27B1A842A6
:1049E00001D807705B1E401C04F01008B8F1000FDE
:1049F0000AD104E0A84201D880F800A0401CB3F11D
:104A00000008A3F10103F5DC06E0A84203D84FF04B
:104A1000300880F80080401CB046761E8845F4DCE3
:104A200008E0A84205D80DF1080818F8018080F8C0
:104A30000080401CB1F10008A1F1010104DDDDF8A6
:104A40000480B8F1000FECD106E0A84203D84FF083
:104A5000200880F80080401CB3F10008A3F1010396
:104A6000F3DC06B0BDE8F08FAD8801089C88010832
:104A70001CB514200A214FF480630022CDE90010F8
:104A8000044905A001F003FA0446204601F042FB68
:104A90001CBD0000614701086D61696E00000000E7
:104AA00010B5044C02E020688047241D024884426F
:104AB000F9D310BDC4880108C888010810B5044C9A
:104AC00002E020688047241D02488442F9D310BDCB
:104AD000C8880108CC88010810B5FCF72FF80446F7
:104AE00004480088401C00B2024908802046FCF7B8
:104AF00029F810BDBC01002010B5FCF71FF80446D2
:104B00000B480088401E00B2094908800846B0F9E9
:104B10000000002807DC002008802046FCF712F87F
:104B200000F03EFF02E02046FCF70CF810BD00004C
:104B3000BC01002070B5054605B970BD00BF224814
:104B4000006818B1284620490968884700BF1F48F7
:104B50000068854203D31E480068854200D3ECE715
:104B6000A5F110044FF0FF311A4800F0FBFF6088F8
:104B700018B12088B0F5F55F08D017A000F04AFA08
:104B80002388628821461BA000F044FA0020608040
:104B90004FF4F550208023480068844201D2214818
:104BA00004600A4960680968611A401A1E49096868
:104BB000081A1D4908602046FFF752FE054800F01C
:104BC000A9FF00BFB9E700001C0100202001002060
:104BD00024010020D03D0020746F2066726565209E
:104BE0006120626164206461746120626C6F636B38
:104BF0003A0A00006D656D3A203078253038782CFF
:104C0000207573656420666C61673A2025642C20EA
:104C10006D6167696320636F64653A203078253081
:104C200034780A0028010020300100200048704735
:104C3000F03E002000487047F056002070B5FEF7A7
:104C400055F90A4800684FF47A71B0FBF1F4204638
:104C5000FEF71EFAFFF724FFFFF7ECFF0446FFF70D
:104C6000E5FF0546214601F049F870BD1800002017
:104C7000704700002DE9F041054605F128062C1D7E
:104C80003148006840B130462F49096888470746D7
:104C90000FB9BDE8F08100BF2CA0216C00F0BAF97B
:104CA0002EA0616A00F0B6F930A0A16A00F0B2F956
:104CB00032A0E16A00F0AEF934A0216B00F0AAF94D
:104CC00036A0616800F0A6F938A0A16800F0A2F94A
:104CD0003AA0E16800F09EF93CA0216900F09AF941
:104CE0003EA0616900F096F940A0A16900F092F938
:104CF00042A0E16900F08EF944A0216A00F08AF92F
:104D000046A0616B00F086F948A0A16B00F082F923
:104D10004AA0E16B00F07EF9287800F0040038B179
:104D200001F0D0F90746394648A000F073F902E0D7
:104D30004EA000F06FF9287800F0100010B952A0D2
:104D400000F068F900BFFEE7040100207073723ABA
:104D5000203078253038780A000000007230303A70
:104D6000203078253038780A000000007230313A5F
:104D7000203078253038780A000000007230323A4E
:104D8000203078253038780A000000007230333A3D
:104D9000203078253038780A000000007230343A2C
:104DA000203078253038780A000000007230353A1B
:104DB000203078253038780A000000007230363A0A
:104DC000203078253038780A000000007230373AF9
:104DD000203078253038780A000000007230383AE8
:104DE000203078253038780A000000007230393AD7
:104DF000203078253038780A000000007231303ACF
:104E0000203078253038780A000000007231313ABD
:104E1000203078253038780A000000007231323AAC
:104E2000203078253038780A00000000206C723A73
:104E3000203078253038780A000000002070633A6E
:104E4000203078253038780A0000000068617264EC
:104E5000206661756C74206F6E2074687265616481
:104E60003A2025730D0A0D0A000000006861726483
:104E7000206661756C74206F6E2068616E646C656D
:104E8000720D0A0D0A0000004650552061637469D6
:104E90007665210D0A000000F0B504460D46164661
:104EA000301D20F0070044380146002203E00D4F7A
:104EB00041F82270521C112AF9D34D624FF0000CB8
:104EC000C1F828C0C1F82CC0C1F830C0C1F834C046
:104ED0008B63CC634FF0807CC1F840C000270F602B
:104EE000F0BD0000EFBEADDE10B5FBF727FE0446B7
:104EF00008480078401C0749087000BF0648006851
:104F000010B105480068804700BF2046FBF71AFE35
:104F100010BD0000140100200C01002010B5FBF7AB
:104F20000DFE044608480078401E0749087000BF7F
:104F30000648006810B105480068804700BF204659
:104F4000FBF700FE10BD000014010020100100203E
:104F500070B504462068A0F11405284601F088F8D1
:104F6000002070BD70B505460EE0FBF7E7FD064674
:104F70002868A0F114044FF0FF302063204601F0B0
:104F800077F83046FBF7DEFD284600F080F8002871
:104F9000EBD0002070BD2DE9F04105460C4690464F
:104FA000204601F0CDF8B8F1000F03D0B8F1010FA1
:104FB00023D105E004F11401284600F061F81CE05B
:104FC0002E680FE0A6F1140794F8350097F8351015
:104FD000884206DA04F1140107F1140000F050F8D9
:104FE00002E03668AE42EDD100BFAE4204D104F11A
:104FF0001401284600F044F800BF00BF0020BDE8BF
:10500000F08110B5044604F1140000F01BF80020F4
:1050100010BD00000FB438B505A800907F210848E6
:10502000009B049A01F06CFA04467F2C00D97F247F
:105030000348FFF71DFE0020009038BC5DF814FB0C
:10504000503D002040600060704740600060704745
:105050004060006070470268516002680A60016049
:10506000486070470268516002680A6001604860E9
:1050700070470268516002680A60016048607047CA
:105080004268116042684A604160086070470146AA
:105090000868884201D1012070470020FCE70146E2
:1050A0000868884201D1012070470020FCE7D0E960
:1050B00000215160D0E9001211604060006070472B
:1050C000D0E900215160D0E9001211604060006019
:1050D000704700002DE9F041054615B90020BDE8F4
:1050E000F081E81D20F0070554480068854201D989
:1050F0000020F4E7102D00D210254FF0FF3150486A
:1051000000F030FD4F4800684F490968461A8AE0B0
:105110004D4800688419608800287CD106F1100091
:105120006168081AA8427AD306F110006168091A6A
:1051300005F12000814230D306F1100000EB050894
:105140004148006800EB08074FF4F5503880002014
:10515000788060687860BE60C4F804800120608058
:105160003648796800681030814205D03649786841
:1051700009680844C0F808803448016805F1100047
:10518000084432490860324800680968884219D2E8
:105190002E4800682E49086014E0012060802A49EA
:1051A00060680968611A401A284909680844274953
:1051B0000860274800680968884203D223480068CD
:1051C000234908604FF4F55020801E48006884424F
:1051D00012D107E01B48006840681B490968084471
:1051E0001849086017480068408828B115480068C9
:1051F000184909688842EDD1114800F08BFC00BFC6
:105200001548006828B1294604F11000124A1268B6
:10521000904700BF00E002E004F110005FE70A4899
:1052200000683044466805480068401BB0423FF6BD
:105230006FAF034800F06EFC002050E72C01002007
:10524000D03D002028010020200100203001002056
:105250003401002024010020180100202DE9F04134
:1052600005460E4617462946042000F0E3FA044698
:1052700014B92046BDE8F08167722046FFF7C1FEF1
:105280002684218C8800FFF725FFE061E06920B9C2
:10529000204600F005FB0020ECE700206084A0849D
:1052A000E08404F12800FFF7CDFE2046E2E700008D
:1052B0002DE9F74304460E46002700F003FF05469C
:1052C00000BF4648006818B120464449096888472D
:1052D00000BFFBF733FC8046608C40B9029830B9C0
:1052E0004046FBF72FFC6FF00100BDE8FE833AE07B
:1052F00000202863029830B94046FBF723FC6FF08A
:1053000001002863F1E7627A294604F11400FFF7EF
:1053100042FE029800280CDD00F092FF074602AA28
:10532000002105F14C0000F0FDFF05F14C0001F0FB
:105330003DF84046FBF706FC00F032FB286B08B155
:10534000286BD2E7FBF7FAFB8046029800280ADDBB
:1053500000F076FFC71B0298C01B0290029800283D
:1053600001DA00200290608C0028C1D0E18CE06955
:1053700050F821003060E08C401CE084E08C218CEF
:10538000884201DB0020E084608C401E608404F1D0
:105390002800FFF77CFE98B904F12800FFF7D8FD3C
:1053A0004046FBF7CFFB00BF0D48006818B1204610
:1053B0000B490968884700BF00F0F2FA002094E723
:1053C0004046FBF7BFFB00BF0548006818B1204608
:1053D00003490968884700BF002086E7B001002024
:1053E000B401002070B504460D460022294620462F
:1053F00000F002F870BD00002DE9F74304460E46A8
:10540000002700F05FFE054600BF3E48006818B167
:1054100020463C490968884700BFFBF78FFB804660
:10542000608C218C884208D1029830B94046FBF745
:1054300089FB6FF00200BDE8FE8339E0002028639D
:10544000029828B94046FBF77DFB6FF00200F2E7B7
:10545000627A294604F12800FFF79DFD0298002892
:105460000CDD00F0EDFE074602AA002105F14C001C
:1054700000F058FF05F14C0000F098FF4046FBF7A4
:1054800061FB00F08DFA286B08B1286BD3E7FBF7BE
:1054900055FB8046029800280ADD00F0D1FEC71BAC
:1054A0000298C01B02900298002801DA00200290A6
:1054B000608C218C8842C1D0A18CE06940F82160C9
:1054C000A08C401CA084A08C218C884201DB002091
:1054D000A084608C401C608404F11400FFF7D7FDA9
:1054E00050B904F11400FFF733FD4046FBF72AFBE7
:1054F00000F056FA00209EE74046FBF723FB002011
:1055000099E70000B80100202DE9F0410F4616464A
:1055100004463D463346102B28D305F0030C04F017
:1055200003084CEA080CBCF1000F1FD121462A46A3
:1055300010E052F804CB41F804CB52F804CB41F808
:1055400004CB52F804CB41F804CB52F804CB41F819
:1055500004CB103B102BECD204E052F804CB41F802
:1055600004CB1B1F042BF8D20C46154603E015F89C
:1055700001CB04F801CBB3F1000CA3F10103F6D188
:10558000BDE8F081F0B50C460546E6B2042A15D315
:1055900000F0030797B9014646EA062343EA0343AE
:1055A00004E008C108C108C108C1103A102AF8D2A5
:1055B00001E008C1121F042AFBD20D4601E005F8E4
:1055C000016B171EA2F10102F9D1F0BD2DE9F047E0
:1055D0000746884691469A463946052000F02AF942
:1055E000044614B92046BDE8F08784F809A0204697
:1055F000FFF707FD08F1070020F007002084A4F85A
:105600002290218C091D628C01FB02F0FFF762FDE4
:10561000E061E06920B9204600F018F80020E2E7D8
:105620000020A062E0622063002508E0208C001DBD
:10563000E16905FB0016206B306026636D1C608CF1
:10564000A842F3DC0020A0842046CCE710B5044635
:1056500004F11400FFF786FCE069FFF76BFA2046BF
:1056600000F01EF9002010BD2DE9FF4704460F464B
:1056700090464FF0000900F025FD054600BF424866
:10568000006818B1204640490968884700BFFBF709
:1056900055FA8246A08C48B9039838B95046FBF7B2
:1056A00051FA6FF0010004B0BDE8F0873CE0002043
:1056B0002863039830B95046FBF744FA6FF00100B5
:1056C0002863F0E7627A294604F11400FFF763FCCF
:1056D000039800280CDD00F0B3FD814603AA0021E9
:1056E00005F14C0000F01EFE05F14C0000F05EFEDE
:1056F0005046FBF727FA00F053F9286B08B1286BE6
:10570000D1E7FBF71BFA8246039800280CDD00F076
:1057100097FDA0EB09090398A0EB090003900398FB
:10572000002801DA00200390A08C0028BFD0A66AD0
:105730003068A062E06AB04201D10020E062A08C33
:10574000401EA0845046FBF7FDF9208C404501D255
:10575000208C00E040460246311D3846FFF7D4FE5B
:10576000FBF7ECF98246206B306026635046FBF76E
:10577000E9F900BF0548006818B1204603490968E7
:10578000884700BF00208EE7B0010020B401002050
:105790002DE9F04104460F461646208CB04203D254
:1057A0004FF0FF30BDE8F08100BF2148006818B11C
:1057B00020461F490968884700BFFBF7BFF98046AC
:1057C000256B2DB94046FBF7BDF96FF00200E9E704
:1057D000286820634046FBF7B5F900202860324670
:1057E0003946281DFFF790FEFBF7A8F98046E06ACE
:1057F00008B1E06A0560E562A06A00B9A562A08C04
:10580000401CA08404F11400FFF741FC50B904F1DE
:105810001400FFF79DFB4046FBF794F900F0C0F839
:105820000020BFE74046FBF78DF90020BAE70000F3
:10583000B80100202DE9F04106460F46304600F041
:1058400067F80546E868FFF745FC044614B90020F0
:10585000BDE8F08100212046EA68FFF793FE26723A
:105860000020607208223946204600F02CFA00BF62
:105870000A48006818B1204608490968884700BFEF
:10588000FBF75CF9804604F10C01281DFFF7E3FBF0
:105890004046FBF757F92046DAE70000A801002050
:1058A00070B5044600BF0C48006818B120460A498C
:1058B0000968884700BF00202072FBF73FF90546C2
:1058C00004F10C00FFF7F3FB2846FBF73BF92046F9
:1058D000FFF730F970BD0000AC01002070B5044640
:1058E00000BF0A48006818B120460849096888477F
:1058F00000BF00202072FBF721F9054604F10C00DF
:10590000FFF7D5FB2846FBF71DF970BDAC01002061
:10591000024600210AE0074800EB0110007890429F
:1059200003D1044800EB01107047491C0729F2DB42
:105930000020F9E7380100202DE9F04104460D462A
:1059400016462846FFF7E4FF074645F08000207220
:1059500008223146204600F0B6F900BF0A48006828
:1059600018B1204608490968884700BFFBF7E6F8E8
:10597000804604F10C01381DFFF76DFB4046FBF734
:10598000E1F8BDE8F0810000A80100200146087A96
:1059900000F0800008B1012070470020FCE7000003
:1059A0002DE9F041FBF7CAF8074620480088002897
:1059B00037D11F480068FDF7A3FB461E1D4850F86D
:1059C0003600A0F114041C480068844225D01B490D
:1059D0000E7019480568046000BF1948006820B1BE
:1059E00021462846164A1268904700BF154800789D
:1059F00048B904F11C0105F11C00FBF7A6F8384674
:105A0000FBF7A0F80CE004F11C0105F11C00FBF70A
:105A10009CF83846FBF796F802E03846FBF792F818
:105A200002E03846FBF78EF8BDE8F081BC010020AB
:105A3000C8010020F03D0020C0010020C40100206A
:105A4000D40100201401002070B50446FBF776F85D
:105A5000054614F8340F20F00F0040F001002070CC
:105A60006278343C0A4B03EBC20004F11401426833
:105A7000116042684A604160086000BF0549A06B40
:105A800009680843034908602846FBF75BF870BDC6
:105A9000F03D0020C801002070B50446FBF74EF829
:105AA000054604F11400D0E900215160D0E900124C
:105AB00011604060006000BF94F83510094A02EBA5
:105AC000C1000168814201D1012100E0002129B11A
:105AD0000548A16B00688843034908602846FBF726
:105AE00031F870BDF03D0020C80100202DE9F041E3
:105AF00004460D4616461F462A4601212046FFF75A
:105B00001BFF2046FFF77DFAA68367720020BDE8E1
:105B1000F081000070B5044600BF1148006818B15C
:105B200020460F490968884700BF0025FBF706F8A3
:105B3000064604F11400FFF7AAFA28B904F114008C
:105B4000FFF706FA012502E0A08B401CA083304637
:105B5000FAF7F8FF012D01D1FFF722FF002070BDF9
:105B6000B801002073B5054600BF2448006818B18D
:105B7000284622490968884700BFFAF7DFFF064632
:105B8000A88B002806DDA88B401EA8833046FAF7B4
:105B9000D9FF28E0019828B93046FAF7D3FF6FF013
:105BA00001007CBD00F08EFA0446002020636A7A72
:105BB000214605F11400FFF7EEF90198002809DDF0
:105BC00001AA002104F14C0000F0ACFB04F14C00F0
:105BD00000F0ECFB3046FAF7B5FFFFF7E1FE206B73
:105BE00008B1206BDDE700BF0548006818B1284602
:105BF00003490968884700BF0020D2E7B0010020B0
:105C0000B401002008B509A0FFF704FA0AA0FFF7C5
:105C100001FA12A0022301220321009012A0FFF733
:105C2000F9F919A0FFF7F6F908BD00000A205C2079
:105C30007C202F0A000000002D205254202D20200F
:105C4000202020546872656164204F706572617411
:105C5000696E672053797374656D0A00417567201A
:105C60003139203230323600202F207C205C202039
:105C700020202025642E25642E2564206275696C01
:105C8000642025730A0000002032303036202D2099
:105C90003230313920436F707972696768742062DD
:105CA000792072742D746872656164207465616D09
:105CB0000A00000001460A4600E0521C1078002845
:105CC000FBD1501A704770B50346A2B118460C4676
:105CD00000BF14F8016B00F8016B3EB902E000252B
:105CE00000F8015B551E2A1EF9D102E0551E2A1E3E
:105CF000EFD100BF00BF184670BD00002DE9F04194
:105D000005460E46E81D20F0070726F00708B8F103
:105D1000200F09D9A8F12000B84205D3A8EB07004D
:105D200020381E49086006E0324629461CA0FFF7CD
:105D300071F9BDE8F0812948076004684FF4F55017
:105D4000208016480068103060600020A0606080ED
:105D50002249606809680844214908604FF4F550F9
:105D60000968088001201E49096848800B480068BE
:105D700010301B490968486008480068103018490D
:105D8000096888600023012216A11848FFF7AEFEBB
:105D9000124800681649086000BFCAE72C010020BD
:105DA0006D656D20696E69742C206572726F72204A
:105DB000626567696E206164647265737320307810
:105DC00025782C20616E6420656E642061646472A5
:105DD00065737320307825780A00000020010020C8
:105DE000240100206865617000000000D03D0020A3
:105DF0002801002010B500200B490880002405E090
:105E00000A4901EBC400FFF720F9641C202CF7DBE2
:105E10001F200749087000200649086006490860ED
:105E20000648FFF712F910BDBC010020F03D00202C
:105E3000C4010020C0010020C8010020CC010020C6
:105E400070B508480068FDF75BF9451E064850F834
:105E50003500A0F114040548046004F11C00FAF7B1
:105E6000BAFE70BDC8010020F03D0020C001002036
:105E700010B5002405E0044901EBC400FFF7E8F881
:105E8000641C002CF7D010BDE401002070472DE900
:105E9000FF5F06460F4690461D46DDE90EAB3146D4
:105EA0000020FFF7C7FC8146B9F1000F03D10020A5
:105EB00004B0BDE8F09F2846FFF70CF9044624B96A
:105EC0004846FFF7EDFC0020F2E743463A463146EC
:105ED00048468DE8300CFDF74FF94846E8E710B525
:105EE0000446204600F0F4F810BD000070B51248DA
:105EF0000468FAF723FE05462046FFF7CDFD04208F
:105F000084F8340004F14C0000F028FA2046FFF732
:105F10003DFD012805D1A06F18B92046FFF7DEFC32
:105F200004E004F114010548FFF79CF82846FAF74D
:105F300009FEFFF735FD70BDC0010020CC01002037
:105F40000FE0002408E0074850F8240018B1054984
:105F500051F824008047641C042CF4D300F004F8AA
:105F600000BFEEE7403D002070B537E0FAF7E6FDF0
:105F70000546FDF7F7F818B31B480068A0F11404B4
:105F800004F11400D0E900215160D0E90012116041
:105F90004060006000BFFEF79FFDA06F10B120467B
:105FA000A16F88472046FFF7F1FC012805D1FEF7D5
:105FB000A3FD2846FAF7C6FD70BDFEF79DFD03E080
:105FC0002846FAF7BFFDF7E72846FAF7BBFDA06AB7
:105FD000FEF7B0FD2046FFF763FC00BFFDF7C2F8F7
:105FE0000028C3D100BFE7E7CC0100201FB5202067
:105FF0001F21C200074BCDE90032CDE9021000237A
:10600000054A06A1074800F00FF8064800F082F89C
:106010001FBD0000403C0020415F01087469646CB2
:1060200065000000C03B00202DE9FF5F05460C46DF
:1060300016461F46DDE910ABDDE90E892246002138
:106040002846FFF779FC3B463246214628468DE834
:10605000000FFDF791F804B0BDE8F09F70B504465D
:10606000204600F0DDF80546284600F031F870BD06
:1060700070B5044694F8340000F00F00022802D0F6
:106080004FF0FF3070BDFAF759FD054604F11400DA
:10609000FFF716F804F14C0000F00EFA2846FAF764
:1060A00051FD2046FFF7D0FC00BF0548006818B13D
:1060B000204603490968884700BF0020E2E7000046
:1060C000DC0100200148006870470000C00100208A
:1060D00031B5FAF733FD05460D480468204600F057
:1060E0002FF86A46002104F14C0000F01BF904F17E
:1060F0004C0000F05BF92846FAF724FDFFF750FC4E
:10610000206B801C08B900202063002038BD0000EF
:10611000C001002010B504463434A0786070617866
:10612000012088406060022004F834092046FFF70F
:106130009FFFFFF7C7FF08B1FFF732FC002010BD3B
:1061400070B5044694F8340000F00F00012802D026
:106150004FF0FF3070BDFAF7F1FC054694F83400BB
:1061600020F00F0040F0020084F834002046FFF7D2
:1061700093FC04F14C0000F09FF92846FAF7E2FC8A
:1061800000BF0548006818B12046034909688847E0
:1061900000BF0020DEE70000D801002070B50446F3
:1061A00025466FF00100286305F11400FEF788FF13
:1061B0002846FFF749FCFFF7F3FB70BD70B5FAF70F
:1061C000BDFC05461448046894F8340000F00F0044
:1061D00001281CD1D4E90510814218D004F1140023
:1061E000FEF76EFF94F835200C4B03EBC20004F170
:1061F00014014268116042684A604160086000BF53
:106200002846FAF79FFCFFF7CBFB002070BD28461D
:10621000FAF798FC0020F9E7C0010020F03D0020CB
:106220000146002902DA4FF0FF3008E04FF47A729D
