:020000040800F2
:1000000038440020ED020008B90C00080F04000875
:10001000B50C0008D5050008A50F00080000000079
:10002000000000000000000000000000650D000856
:10003000A1060008000000005B030008D50E0008C0
:100040000703000807030008070300080703000868
:100050000703000807030008070300080703000858
:100060000703000807030008070300080703000848
:100070000703000807030008070300080703000838
:100080000703000807030008070300080703000828
:10009000070300080703000807030008A506000877
:1000A0000703000807030008070300080703000808
:1000B000790F00080703000807030008070300087A
:1000C00007030008070300080703000807030008E8
:1000D00007030008070300080703000807030008D8
:1000E00007030008070300080703000807030008C8
:1000F00007030008070300080703000807030008B8
:1001000007030008070300080703000807030008A7
:100110000703000807030008070300080703000897
:10012000D9050008DB0500080703000807030008DD
:10013000DD0500080703000807030008070300089F
:100140000703000807030008070300080703000867
:1001500075060008070300080000000007030008F8
:10016000070300080703000800000000000000006B
:100170000703000807030008070300080000000049
:100180000000000007030008070300080703000839
:10019000070300080000000000000000000000004D
:1001A000000000000000000000000000070300083D
:1001B000070300080000000007030008000000001B
:1001C000000000000000000000000000000000002F
:1001D00000000000000000000703000807030008FB
:1001E00007030008070300080703000807030008C7
:1001F00007030008070300080703000807030008B7
:1002000007030008070300080703000800F002F8CE
:1002100000F05CF80AA090E8000C82448344AAF144
:100220000107DA4501D100F051F8AFF2090EBAE842
:100230000F0013F0010F18BFFB1A43F0010318471A
:10024000F0450000104600000A444FF0000C10F882
:10025000013B13F0070408BF10F8014B1D1108BF44
:1002600010F8015B641E05D010F8016B641E01F8E4
:10027000016BF9D113F0080F1EBF10F8014BAD1C34
:100280000C1B09D16D1E58BF01F801CBFAD505E052
:1002900014F8016B01F8016B6D1EF9D59142D6D3AC
:1002A000704700000023002400250026103A28BFD4
:1002B00078C1FBD8520728BF30C148BF0B607047D8
:1002C0001FB504F0F9F91FBD10B510BD00F042F9DB
:1002D0001146FFF7F5FF00F076F900F060F903B47E
:1002E000FFF7F2FF03BC00F067F900000948804700
:1002F00009480047FEE7FEE7FEE7FEE7FEE7FEE708
:10030000FEE7FEE7FEE7FEE704480549054A064B1F
:1003100070470000E90E00080D020008383E00207A
:10032000384400203840002038400020EFF310808F
:1003300072B6704780F310887047434A1368012BE8
:1003400004D04FF001031360404A1060404A11602E
:1003500040484FF0805101607047EFF3108272B651
:100360003948016851B34FF0000101603748016816
:1003700091B1EFF309811EF0100F08BF21ED108B32
:1003800021E9F00F4FF000041EF0100F08BF012408
:1003900041F8044D006801602D490968096808C9E1
:1003A000B1E8F00F002B18BFB1EC108B81F3098876
:1003B0004EF0100E002B18BF2EF0100E82F3108896
:1003C0004EF0040E704722490860EFF3148222F0C9
:1003D000040282F314881D494FF0000008601A4996
:1003E0004FF0010008601C484FF47F01D0F8002056
:1003F00041EA0201016017484FF08051016017483F
:100400000068006880F3088861B662B670471EF025
:10041000040F0CBFEFF30880EFF3098020E9F00F21
:1004200040F804ED40F804ED1EF0040F0CBF80F31B
:10043000088880F3098800B501F0FAFC5DF804EB48
:100440004EF0040E704700004C00002044000020D5
:100450004800002004ED00E020ED00E008ED00E0A1
:1004600053EA020C00F069802DE9F04B4FF00006D2
:10047000002B1FBFB3FA83F503FA05F424FA05F63F
:100480005E4012BF1643B2FA82F502FA05F4C5F1D6
:1004900020051EBF22FA05FC44EA0C04203556EA6A
:1004A000044C4FEA144418BF641C4FF000084FF08E
:1004B0000009904271EB030C39D3002919BFB1FA3E
:1004C00081F701FA07F6B0FA80F700FA07F6C7F1EC
:1004D00020071EBF20FA07FC46EA0C062037B6FBB1
:1004E000F4FCA7EB0507103F07F01F0BCBF120062C
:1004F0000CFA0BFB2CFA06F644BFB3460026202F5D
:10050000A4BF5E464FF0000B5BEA060C08BF4FF03D
:10051000010B19EB0B09ABFB027C48EB0608C01B77
:1005200006FB02CC0BFB03CC71EB0C01C1E70B46C5
:10053000024641464846BDE8F08B13B54FF0000037
:100540004FF00001AFF30080BDE81C4070477047DA
:1005500070477047754600F02BF8AE4605006946B7
:10056000534620F00700854618B020B5FFF7CCFEB3
:10057000BDE820404FF000064FF000074FF00008A4
:100580004FF0000B21F00701AC46ACE8C009ACE825
:10059000C009ACE8C009ACE8C0098D46704710B589
:1005A0000446AFF300802046BDE81040FFF797BE39
:1005B00000487047D83D002001491820ABBEFEE737
:1005C00026000200704710B5FFF7B0FE03F06AFA8C
:1005D000002010BD00BFFEE77047704710B586B021
:1005E0001F480068C0F34040002837D001F05AFD92
:1005F0004FF4003000F0A4FF4FF4803000F0A0FF73
:100600001848446914B340690088012814D10122B4
:10061000C103154801F07EF80120ADF804000F2257
:1006200012490DF1060002F04DF8122201A91048FE
:10063000006802F08BF900BF00200A49486121469A
:10064000084803F0DBF90020064908760021044839
:10065000583000F063FF01F03FFD00BF06B010BD51
:10066000006402402815002000000240972200206C
:100670001400002010B509480068C0F3405060B174
:1006800001F010FD4FF4001000F05AFF0021034864
:100690006C3000F043FF01F01FFD10BD006402400C
:1006A0007047000010B501F0FDFC402000F0DEFFB7
:1006B00004480078012802D1034800F0ABFA01F0A9
:1006C0000BFD10BD000000202815002010B50448C7
:1006D000006800B910BD034802F0FAFA00BFF9E75C
:1006E0000C000020C809002004E04FF0FF31024850
:1006F00002F016FBF9E70000C809002008B5022245
:100700006946152000F000F99DF8000020F0200057
:1007100000909DF8000020F0400000909DF800003F
:1007200020F08000009002229DF80010152000F0BB
:1007300045F908BD1CB5022201A9102000F0E4F81B
:100740009DF8040020F0F00001909DF8040040F0B6
:100750008000019002229DF80410102000F02EF974
:1007600002226946112000F0CFF89DF8000020F029
:10077000F00000909DF8000040F080000090022200
:100780009DF80010112000F019F91CBD1CB50222C3
:1007900001A9102000F0B8F89DF8040020F00C002A
:1007A00001909DF8040040F00C00019002229DF899
:1007B0000410102000F002F902226946112000F016
:1007C000A3F89DF8000020F00F0000909DF80000B5
:1007D00040F00C00009002229DF80010112000F063
:1007E000EDF81CBD0EB5022202A9152000F08CF810
:1007F0009DF8080020F01000029002229DF80810D9
:10080000152000F0DBF8022201A9102000F07CF88E
:100810009DF8040020F00200019002229DF80410CF
:10082000102000F0CBF802226946172000F06CF887
:100830009DF8000020F0040000909DF8000020F0DA
:10084000080000909DF8000020F0100000909DF836
:10085000000020F0E000009002229DF80010172018
:1008600000F0ACF80EBD08B502226946132000F076
:100870004BF89DF8000020F00200009002229DF845
:100880000010132000F09AF808BD0EB5022202A94C
:10089000122000F039F89DF8080020F010000290B6
:1008A0009DF8080020F0200002909DF8080040F01C
:1008B0000400029002229DF80810122000F07EF839
:1008C000022201A90D2000F01FF801200190022250
:1008D0009DF804100D2000F071F8022201A90D20EE
:1008E00000F012F8022269460B2000F00DF89DF886
:1008F000000040F08000009002229DF800100B20C4
:1009000000F05CF80EBD00007CB506460C461546AE
:1009100046F08000124908700020487000224FF411
:100920000041104800F0F6FE0F480D4B0F4A1049E9
:10093000CDE900050E48143000F0F6F900BF0B4871
:100940000C388068C0F3C0100028F8D10122D10310
:10095000044800F0DFFE0448407820707CBD0000B1
:100960004000002000000240420000200C30014006
:100970005864024008B5022269461220FFF7C4FFFE
:100980009DF8000020F00800009002229DF8001061
:10099000122000F013F808BD08B5022269461220A3
:1009A000FFF7B2FF9DF8000040F0400000900222E7
:1009B0009DF80010122000F001F808BD7CB5044637
:1009C0000E46154604F07F00104908700846467030
:1009D00000224FF400410E4800F09CFE0D480B4BE6
:1009E0000D4A0E49CDE900050C48143000F09CF981
:1009F00000BF09480C388068C0F3C0100028F8D147
:100A00000122D103024800F085FE7CBD4000002099
:100A100000000240420000200C30014058640240B7
:100A200070B5044600BFEFF310800546012000F0CA
:100A300015FB204600F0A8F800EE100AB8EEC00A38
:100A4000DFED4D0A80EE201AB3EE090A31EE000AFE
:100A50004A4880ED1C0A04F1080000F095F800EE09
:100A6000100AB8EEC00ADFED460A20EE200A43481D
:100A700080ED1D0A04F10A0000F086F800EE100A6D
:100A8000B8EEC00ADFED3E0A20EE200A3B4880EDBA
:100A90001E0A04F10C0000F077F800EE100AB8EE20
:100AA000C00ADFED370A20EE200A344880ED1F0A25
:100AB000A01C00F069F800EE100AB8EEC00ADFEDE5
:100AC000310A20EE200A2D4880ED200A201D00F07A
:100AD0005BF800EE100AB8EEC00ADFED2A0A20EE3D
:100AE000200A264880ED210AA01D00F04DF800EEF6
:100AF000100AB8EEC00ADFED230A20EE200A1F48D4
:100B000080ED220AD0ED1D0AB0EE600A303000F010
:100B1000F4F81A48D0ED1E0AB0EE600A403000F03A
:100B2000ECF81648D0ED1F0AB0EE600A503000F025
:100B3000E4F81248D0ED200AB0EE600A00F0DDF8CB
:100B40000E48D0ED210AB0EE600A103000F0D5F862
:100B50000A48D0ED220AB0EE600A203000F0CDF84D
:100B60000648D0ED1C0AB0EE600A603000F0C5F80F
:100B7000284600F073FA70BD00008043E821002091
:100B800017B71C3B57A08B3A014648788A7840EA51
:100B9000022000B2704708B5022269461820FFF70C
:100BA000B3FE9DF8000040F00200009002229DF884
:100BB00000101820FFF702FF08BD000010B5022248
:100BC00001211220FFF7FAFE022210490F20FFF741
:100BD0009BFE0E4800786B2800D010BDFFF7DBFFAE
:100BE000FFF7C8FEFFF7D8FEFFF74FFEFFF786FDC1
:100BF000FFF7CCFDFFF79EFDFFF7F4FDFFF733FE97
:100C000001200349087000BFE7E700002000002032
:100C10002100002070B50546284602F0A9FE0446D2
:100C200004B970BD074860600020608021462846F6
:100C300002F01EFF29460448006801F0B1FC00BF25
:100C4000EFE700004D0C0008100000207CB50646C0
:100C50000C4600BFEFF310800546012000F0FEF9BE
:100C60000F2200210E4801F06BFD01202080A02002
:100C70000B49087000224FF400410A4800F04AFD79
:100C80000F200949064B094ACDE9001008490848D8
:100C9000143000F049F8284600F0E0F97CBD00006F
:100CA0008822002000000240972200200C300140E2
:100CB0005864024000BFFEE77047F0B503460C469B
:100CC00003F00701C1F10700042801D9042001E065
:100CD000C1F107000646081D072801D2002000E0E8
:100CE000C81E05460120B040401E2040A8400127F4
:100CF000AF407F1E17403843F0BD0168491C0160BA
:100D0000D0ED010A70EE800AC0ED010AD0ED020AB2
:100D1000F4EE400AF1EE10FA03D1C168491CC1603B
:100D200001E00021C16070472DE9F04780460C4684
:100D300015461E46DDE90897BBB2324629464046B5
:100D400003F05EFABBB24A462946204603F058FA41
:100D50000121404600F0E2FB0121204600F0DEFBCD
:100D6000BDE8F0877047000086B010E04FF0FF3319
:100D7000122201A90648006801F054FDBDF80400E4
:100D8000012803D10DF10600FFF74AFE00BFEDE791
:100D9000140000201FB5204A6421204802F006FEFE
:100DA0001F4AC8211F4802F001FE002208211EA090
:100DB00001F032FB20490860642005214FF40072E5
:100DC0001E4BCDE90032CDE9021000231C4A1DA1C3
:100DD000204802F001FA1F4802F048FA00233222AC
:100DE00012211DA001F0D0FC1F49086064200521DC
:100DF0004FF400721D4BCDE90032CDE90210002303
:100E00001B4A1CA11F4802F0E7F91E4802F02EFA07
:100E100001201D4908701FBD28150020E80E002084
:100E2000C82100204815002073656E736F725F73D0
:100E300071655F6D7100000010000020E80900205E
:100E40008D0E000853656E736F725F5371655F544A
:100E500061736B00E80B002073656E736F725F63E4
:100E600071655F6D7100000014000020680C0020A7
:100E7000690D000853656E736F725F4371655F544F
:100E800061736B00680E00201800002008B51DE09B
:100E90004FF0FF3269460E48006801F0E7FA009D06
:100EA000287E80B9284602F0C1FD044604B90DE051
:100EB000012028766C61214628466268904702F03E
:100EC0005BFAE86101E002F057FA00BFE0E70000DA
:100ED0001000002010B501F0E5F802F053FA01F01F
:100EE000FBF810BD704700001F48006840F4700018
:100EF0001D4908601D48006820F00100401C1B4986
:100F0000086000BF19480068C0F340000028F9D00D
:100F100016480830006820F00300144908310860C2
:100F200000BF124808300068C0F381000028F8D1E3
:100F30000E4800680E4908400C49086000200B4923
:100F4000083108600B48091F086000200749A031DC
:100F500008604FF41F0005490C3108604FF0006035
:100F6000014980390860704788ED00E00038024090
:100F7000FFFFF2FE0230030010B54FF08040006921
:100F800000F0010068B101F08DF8FFF79FFB4FF012
:100F90008040006920F001004FF08041086101F0BD
:100FA0009BF810BD00BFFEE70146481EB0F1807FF0
:100FB00001D301207047481E4FF0E0225061FF200E
:100FC000044A107000204FF0E02290610720106169
:100FD0000020EFE723ED00E002480068C0F30220A4
:100FE000704700000CED00E010B5002804DB0A0794
:100FF000130E054A135406E00A07140E034A00F0C4
:101000000F031B1FD45410BD00E400E018ED00E0F6
:10101000014609B900207047C8B220B1C8B20E4AD3
:10102000105C401CF7E701F47F4028B10A48C1F387
:101030000722805C0930EEE701F47F0028B1064802
:10104000C1F30742805C1130E5E7034800EB116013
:1010500000781930DFE70000FE46000880F31088B2
:101060007047000003490868884201D0012070479A
:101070000020FCE7180100202DE9FC5F04468B46A8
:1010800015461E46DDE90C9ADDE90E7804F11400E0
:101090004060006000BF1C346560A660C4F80C901E
:1010A000C4F810A02321D4E9030201F049FBD4E9DC
:1010B000033C63441A1F144BD4E9010100F0CAFF3A
:1010C0002060A77667760020E061C4F82880C4F825
:1010D0002C8060612076E06520661C3C00902346F1
:1010E0000A4A2146019004F14C0002F0E3F900BFE6
:1010F0000748006818B1204605490968884700BFBD
:101100000020BDE8FC9F00009D300008F53200087B
:101110002C0100202DE9F04704460E46174698465C
:10112000DDF8209084F80990607A20F00100607268
:10113000E66127620020A062C4F82480002506E052
:1011400004F1140101EBC50001F060F86D1C012DE4
:10115000F6DBBDE8F08710B50246002001460EE040
:1011600002F1140303EBC100D0E900436360D0E94E
:10117000003423604060006000BF481C0146012924
:10118000EEDB10BD0349096860F30711014A1160E5
:1011900070470000083802400349096860F38C2159
:1011A000014A11607047000008380240034909688D
:1011B00060F34F31014A1160704700000838024067
:1011C000012807D10749096821F030013031054A6B
:1011D000116005E00349096821F03001014A1160FE
:1011E00070470000A438024005282BD2DFE800F049
:1011F000030A11182100154A126861F30002134B0B
:101200001A6020E0114A126861F310420F4B1A6015
:1012100019E00E4A126861F318620C4B1A6012E072
:101220000A4A7032126861F30002084B70331A6088
:1012300009E0064A7432126861F30002034B74330A
:101240001A6000E000BF00BF704700000038024095
:101250002DE9FE4F04464FF00009CA46CB46002058
:10126000029001900025002600F050F900900098AF
:1012700020B1012812D002283FD112E03148006885
:10128000C0F3803038B12F480068C0F3003010B18F
:101290002D48206001E02D48206031E02C4820607E
:1012A0002EE028489C380068C0F380500290254802
:1012B0009C380068C0F3881922489C38006800F008
:1012C0000F0A20489C380068C0F30240214911F8F9
:1012D00000B0029810B91D48019001E01C4801902F
:1012E0000AFB0BFC0198A0FB097001466246002333
:1012F0003846FFF7B5F8206002E01448206000BFD0
:1013000000BF104898380068C0F303151248465DC6
:101310002068F04060600B4898380068C0F3822570
:101320000E48465D6068F040E06006489838006806
:10133000C0F342350A48465D6068F040A060BDE8F1
:10134000FE8F0000A0380240006CDC0200127A0020
:101350000024F400E2460008C2460008D246000815
:10136000DA46000810B501460020094B03EB114294
:10137000D2F8002801F01F040123A3401A4001F015
:101380001F040123A3409A4200D000E0012010BDB9
:101390000030024030B50024002500E0641C11201C
:1013A000FFF7E0FF012802D0B4F5405FF6D311202B
:1013B000FFF7D8FF012801D0002500E001252846CD
:1013C00030BD000010B501290FD1104B03EB1042C6
:1013D000D2F8002800F01F040123A3401A430B4C4D
:1013E00004EB1043C3F800280EE0084B03EB104257
:1013F000D2F8002800F01F040123A3409A43034CB5
:1014000004EB1043C3F8002810BD00000030024078
:1014100030B538B90F4C246824F4805404F5805456
:101420000C4D2C600B4C9C3C246860F39654094D89
:101430009C3D2C602C46246861F38E142C602C4655
:10144000246862F303042C602C46246863F312447E
:101450002C6030BDA03802401A48006820F001001E
:10146000401C1849086000BF16480068C0F34000DF
:101470000028F9D013480830006820F00300114913
:101480000831086000BF0F4808300068C0F38100D1
:101490000028F8D10B4800680B490840094908604A
:1014A00000200849083108600848091F086000202A
:1014B0000449A03108604FF41F0002490C31086054
:1014C0007047000000380240FFFFF2FE02300300C8
:1014D0000D49096860F301010B4A116000BF00BFAC
:1014E00000BF00BF00BF00BF00BF00BF00BF00BF04
:1014F00000BF00BF00BF00BF00BF00BF00BF00BFF4
:1015000000BF00BF70470000083802400248006872
:10151000C0F381007047000008380240026861F3A0
:101520000002026070470021016041600181418139
:10153000017341738173C17301744174704700007A
:10154000B0F1805F04D920F07041034A116001E0DE
:1015500002490860704700000466024004640240CB
:1015600002684BF6EF731A40026002680B891A4357
:1015700002604B7C026863F30D320260CB7B026831
:1015800063F38B2202608B7B026863F309220260A3
:101590004B7B026863F3C71202600B7B026863F344
:1015A000861202600B7C026863F3451202604B896D
:1015B000426863F30F0242600A6882604A68C26050
:1015C00070471AB103680B43036002E003688B4362
:1015D000036070470021026822F0010202600022CD
:1015E000026042608260C260014640F2FF620A40CF
:1015F000B2F5C16F0DD2CAB2083A1423B2FBF3F2AE
:1016000093000F229A400D4B1B681A430B4B1A6034
:1016100012E040F2FF620A40B2F5D16F0CD2CAB2BA
:10162000083A1423B2FBF3F293000F229A40044BC2
:101630001B681A43024B1A607047000004640240A2
:1016400004660240D0F8002161F30002C0F80021D6
:101650007047026861F30602026070470021417220
:10166000416001210172017070470000014908606A
:1016700070470000143C0140014600204868234A9E
:1016800012688243214B1A601A1D126882431B1D87
:101690001A604A7A0AB30A782AB91A1F12680243F2
:1016A0001B1F1A6006E0194A121D12680243174BED
:1016B0001B1D1A60154A083212688243134B083307
:1016C0001A601A1D126882431B1D1A600A7A2AB911
:1016D0001A1F126802431B1F1A6016E00A7A012AB9
:1016E00007D10A4A0C3212680243084B0C331A60C5
:1016F0000BE0064A083212680243044B08331A60B2
:101700001A1D126802431B1D1A607047003C0140FD
:10171000816270470AB1816100E0816270474FF6D3
:10172000FF71016000218171017141710121C1715D
:10173000704770B50A4600211488A3B233E003F065
:1017400001046CB304684E000325B540AC4304604B
:1017500094794D00AC4005682C4304604468012531
:101760008D40AC434460446815798D402C434460FF
:1017700084684E000325B540AC438460D4794D00A5
:10178000AC4085682C438460C4684E000325B54096
:10179000AC43C46054794D00AC40C5682C43C46070
:1017A0005B104C1CA1B2002BC9DC70BDF0B500234E
:1017B00000244D07ED0E02FA05F3CD105DB1456A28
:1017C0004E07F70E0F26BE40B5434562456A45EA0F
:1017D000030444620AE0056A4E07F70E0F26BE4076
:1017E000B5430562056A45EA03040462F0BD0000E2
:1017F0001FB5642009214FF400620D4BCDE9003282
:10180000CDE9021000230B4A0BA10E4801F0E4FCC5
:101810000C4801F02BFD00231A4609A10A4801F0EB
:1018200043FA0A480068401C084908601FBD0000D0
:1018300048010020E9060008496D755F5461736B2B
:101840000000000048090020C80900200C0000200A
:1018500002F044FE02F09EFD4FF47A7002F0FAFAB4
:1018600002F01AFD02F0FAFC02F00CFC00231A460A
:101870002649274802F0C4FC01212548FFF74EFE07
:1018800002F02CFC00231A4620492148143002F0B3
:10189000B7FC01211E481430FFF740FE02F04AFC5D
:1018A00000231A461B491A48503002F0A9FC0121B6
:1018B00017485030FFF732FE02F06EFC00231A4644
:1018C00014491348643002F09BFC01211048643035
:1018D000FFF724FE02F096FE02F088FD02F094FC71
:1018E00002F060FE00210A485030FFF717FE002189
:1018F00007486430FFF712FEFFF760F902F0CCFAF8
:1019000001200549087000BFFEE7000004100140F7
:10191000086402400C3001400000002010B504466D
:1019200000F0AAF9FFF794FF10BD00002DE9F04781
:101930000B4614464FF0000C00BF2C4A1268C2F34D
:1019400002211D4626460A46C2F10709B9F1040FD5
:1019500002D94FF0040901E0C2F10709C84602F1BB
:101960000409B9F1070F02D24FF0000901E0A2F11A
:1019700003094F464FF0010909FA08F9A9F10109D5
:1019800009EA050909FA07F94FF0010A0AFA07FA04
:10199000AAF1010A0AEA060A49EA0A09CC460146FE
:1019A0006246002904DB15072E0E114D6E5407E028
:1019B00015072F0E0D4D0C3501F00F06361FAF55D4
:1019C00000BF014600290DDB00BF00BF01F01F056D
:1019D0000122AA404D09AD0005F1E025C5F800211E
:1019E00000BF00BF00BFBDE8F08700000CED00E0C5
:1019F00000E400E000BF00F00702064B19684FF654
:101A0000FF031940044B0B4343EA0221014B1960C9
:101A100000BF70470CED00E00000FA0530B51A4C2D
:101A2000436824681919884215D04B889BB9174B15
:101A30001B6899420FD0164B1B688B4201D1144B87
:101A400018604B684360104B1B68C31A0E4D4C68FE
:101A50002D682C44A3600C4C836824681A198242B8
:101A600011D053887BB90A4B1B68834201D1084BC4
:101A70001A6043685360044B1B68D31A024D4468D4
:101A80002D682C44A36030BD6C0000207000002045
:101A9000740000202DE9F04F86B00D469C46DDE92C
:101AA000106401960F9B04F04008B8F1000F02D0BB
:101AB000DFF8708101E0DFF87081CDF8008004F07C
:101AC0001008B8F1000F01D024F0010404F001085F
:101AD000B8F1000F02D04FF0300801E04FF02008BD
:101AE000C246002704F00208B8F1000F11D0002A06
:101AF00002DA2D2752420CE004F00408B8F1000F7E
:101B000001D02B2705E004F00808B8F1000F00D041
:101B10002027002142B94FF0300B8846491C0DF1B7
:101B2000080909F808B01DE01AE0E146B9F10A0F0A
:101B300008D14FF00A0BB2FBFBFE0BFB1E28B2FBD9
:101B4000FBF202E002F00F08120900BFDDF800907E
:101B500019F808B08846491C0DF1080909F808B0C1
:101B6000002AE2D1B14200DD0E469B1B04F01108B1
:101B7000B8F1000F10D117B1002B00DD5B1E06E09D
:101B8000A84203D84FF0200880F80080401CB3F131
:101B90000008A3F10103F3DC27B1A84201D80770C4
:101BA0005B1E401C04F01008B8F1000F0AD104E0DD
:101BB000A84201D880F800A0401CB3F10008A3F1AE
:101BC0000103F5DC06E0A84203D84FF0300880F8A6
:101BD0000080401CB046761E8845F4DC08E0A84230
:101BE00005D80DF1080818F8018080F80080401C25
:101BF000B1F10008A1F1010104DDDDF80480B8F1C4
:101C0000000FECD106E0A84203D84FF0200880F87E
:101C10000080401CB3F10008A3F10103F3DC06B01F
:101C2000BDE8F08F0F480008FE4700081CB51420DF
:101C30000A214FF480630022CDE90010044905A079
:101C400001F003FA0446204601F010FB1CBD000021
:101C50001D1900086D61696E0000000010B5044C8C
:101C600002E020688047241D02488442F9D310BD59
:101C7000244800082848000810B5044C02E02068F9
:101C80008047241D02488442F9D310BD284800082B
:101C90002C48000810B5FEF749FB044604480088AC
:101CA000401C00B2024908802046FEF743FB10BDED
:101CB0000801002010B5FEF739FB04460B480088E8
:101CC000401E00B2094908800846B0F9000000280B
:101CD00007DC002008802046FEF72CFB00F03EFFCA
:101CE00002E02046FEF726FB10BD000008010020A0
:101CF00070B5054605B970BD00BF2248006818B12F
:101D0000284620490968884700BF1F480068854267
:101D100003D31E480068854200D3ECE7A5F1100408
:101D20004FF0FF311A4800F0FBFF608818B120889F
:101D3000B0F5F55F08D017A000F04AFA2388628852
:101D400021461BA000F044FA002060804FF4F550BB
:101D5000208023480068844201D2214804600A4957
:101D600060680968611A401A1E490968081A1D4905
:101D700008602046FFF752FE054800F0A9FF00BFAB
:101D8000B9E70000680000206C000020700000200F
:101D9000B8240020746F206672656520612062613E
:101DA00064206461746120626C6F636B3A0A0000A6
:101DB0006D656D3A203078253038782C2075736544
:101DC0006420666C61673A2025642C206D61676928
:101DD0006320636F64653A203078253034780A00D8
:101DE000740000207C00002000487047D8250020A7
:101DF00000487047D83D002070B5FFF773F80A48D7
:101E000000684FF47A71B0FBF1F42046FFF7CCF88C
:101E1000FFF724FFFFF7ECFF0446FFF7E5FF054659
:101E2000214601F049F870BD040000207047000011
:101E30002DE9F041054605F128062C1D31480068C2
:101E400040B130462F490968884707460FB9BDE8B9
:101E5000F08100BF2CA0216C00F0BAF92EA0616ABD
:101E600000F0B6F930A0A16A00F0B2F932A0E16A40
:101E700000F0AEF934A0216B00F0AAF936A0616839
:101E800000F0A6F938A0A16800F0A2F93AA0E16834
:101E900000F09EF93CA0216900F09AF93EA061692A
:101EA00000F096F940A0A16900F092F942A0E16922
:101EB00000F08EF944A0216A00F08AF946A0616B17
:101EC00000F086F948A0A16B00F082F94AA0E16B0E
:101ED00000F07EF9287800F0040038B101F0C0F974
:101EE0000746394648A000F073F902E04EA000F022
:101EF0006FF9287800F0100010B952A000F068F9CE
:101F000000BFFEE7500000207073723A2030782541
:101F10003038780A000000007230303A20307825DE
:101F20003038780A000000007230313A20307825CD
:101F30003038780A000000007230323A20307825BC
:101F40003038780A000000007230333A20307825AB
:101F50003038780A000000007230343A203078259A
:101F60003038780A000000007230353A2030782589
:101F70003038780A000000007230363A2030782578
:101F80003038780A000000007230373A2030782567
:101F90003038780A000000007230383A2030782556
:101FA0003038780A000000007230393A2030782545
:101FB0003038780A000000007231303A203078253D
:101FC0003038780A000000007231313A203078252C
:101FD0003038780A000000007231323A203078251B
:101FE0003038780A00000000206C723A20307825E2
:101FF0003038780A000000002070633A20307825DD
:102000003038780A000000006861726420666175EB
:102010006C74206F6E207468726561643A20257359
:102020000D0A0D0A00000000686172642066617587
:102030006C74206F6E2068616E646C65720D0A0DA1
:102040000A00000046505520616374697665210DD1
:102050000A000000F0B504460D461646301D20F07B
:10206000070044380146002203E00D4F41F822707A
:10207000521C112AF9D34D624FF0000CC1F828C050
:10208000C1F82CC0C1F830C0C1F834C08B63CC6338
:102090004FF0807CC1F840C000270F60F0BD000009
:1020A000EFBEADDE10B5FEF741F9044608480078F2
:1020B000401C0749087000BF0648006810B1054879
:1020C0000068804700BF2046FEF734F910BD0000CD
:1020D000600000205800002010B5FEF727F90446E4
:1020E00008480078401E0749087000BF064800688D
:1020F00010B105480068804700BF2046FEF71AF976
:1021000010BD0000600000205C00002070B5044697
:102110002068A0F11405284601F078F8002070BD71
:1021200070B505460EE0FEF701F906462868A0F1F5
:1021300014044FF0FF302063204601F067F830466A
:10214000FEF7F8F8284600F080F80028EBD00020D1
:1021500070BD2DE9F04105460C469046204601F041
:102160009BF8B8F1000F03D0B8F1010F23D105E0BF
:1021700004F11401284600F061F81CE02E680FE01D
:10218000A6F1140794F8350097F83510884206DA5E
:1021900004F1140107F1140000F050F802E0366871
:1021A000AE42EDD100BFAE4204D104F11401284685
:1021B00000F044F800BF00BF0020BDE8F08110B57A
:1021C000044604F1140000F01BF8002010BD0000CC
:1021D0000FB438B505A800907F210848009B049AE9
:1021E00001F02AFA04467F2C00D97F240348FFF728
:1021F0001DFE0020009038BC5DF814FB3824002040
:102200004060006070474060006070474060006060
:1022100070470268516002680A6001604860704758
:102220000268516002680A60016048607047026895
:10223000516002680A60016048607047426811603E
:1022400042684A60416008607047014608688842F9
:1022500001D1012070470020FCE701460868884250
:1022600001D1012070470020FCE7D0E90021516036
:10227000D0E900121160406000607047D0E9002191
:102280005160D0E9001211604060006070470000AA
:102290002DE9F041054615B90020BDE8F081E81DA3
:1022A00020F0070554480068854201D90020F4E772
:1022B000102D00D210254FF0FF31504800F030FDB6
:1022C0004F4800684F490968461A8AE04D4800683F
:1022D0008419608800287CD106F110006168081A12
:1022E000A8427AD306F110006168091A05F12000AE
:1022F000814230D306F1100000EB05084148006828
:1023000000EB08074FF4F5503880002078806068B3
:102310007860BE60C4F80480012060803648796827
:1023200000681030814205D0364978680968084451
:10233000C0F808803448016805F1100008443249AB
:102340000860324800680968884219D22E4800683F
:102350002E49086014E0012060802A4960680968FD
:10236000611A401A28490968084427490860274823
:1023700000680968884203D223480068234908603E
:102380004FF4F55020801E480068844212D107E0C7
:102390001B48006840681B490968084418490860E0
:1023A00017480068408828B115480068184909682E
:1023B0008842EDD1114800F08BFC00BF1548006841
:1023C00028B1294604F11000124A1268904700BF54
:1023D00000E002E004F110005FE70A4800683044C2
:1023E000466805480068401BB0423FF66FAF03489F
:1023F00000F06EFC002050E778000020B824002098
:10240000740000206C0000207C0000208000002070
:1024100070000020640000202DE9F04105460E46C2
:1024200017462946042000F0E3FA044614B9204672
:10243000BDE8F08167722046FFF7C1FE2684218C3B
:102440008800FFF725FFE061E06920B9204600F031
:1024500005FB0020ECE700206084A084E08404F108
:102460002800FFF7CDFE2046E2E700002DE9F74304
:1024700004460E46002700F0F3FE054600BF46481E
:10248000006818B1204644490968884700BFFDF735
:102490004DFF8046608C40B9029830B94046FDF748
:1024A00049FF6FF00100BDE8FE833AE00020286399
:1024B000029830B94046FDF73DFF6FF001002863F8
:1024C000F1E7627A294604F11400FFF742FE029810
:1024D00000280CDD00F050FF074602AA002105F19C
:1024E0004C0000F0BBFF05F14C0000F0FBFF404644
:1024F000FDF720FF00F032FB286B08B1286BD2E714
:10250000FDF714FF8046029800280ADD00F034FF32
:10251000C71B0298C01B02900298002801DA002015
:102520000290608C0028C1D0E18CE06950F8210055
:102530003060E08C401CE084E08C218C884201DB20
:102540000020E084608C401E608404F12800FFF7C6
:102550007CFE98B904F12800FFF7D8FD4046FDF74E
:10256000E9FE00BF0D48006818B120460B49096814
:10257000884700BF00F0F2FA002094E74046FDF7DC
:10258000D9FE00BF0548006818B120460349096814
:10259000884700BF002086E7FC00002000010020E3
:1025A00070B504460D4600222946204600F002F888
:1025B00070BD00002DE9F74304460E46002700F0E9
:1025C0004FFE054600BF3E48006818B120463C4912
:1025D0000968884700BFFDF7A9FE8046608C218C02
:1025E000884208D1029830B94046FDF7A3FE6FF04B
:1025F0000200BDE8FE8339E000202863029828B974
:102600004046FDF797FE6FF00200F2E7627A294636
:1026100004F12800FFF79DFD029800280CDD00F072
:10262000ABFE074602AA002105F14C0000F016FFA0
:1026300005F14C0000F056FF4046FDF77BFE00F030
:102640008DFA286B08B1286BD3E7FDF76FFE804643
:10265000029800280ADD00F08FFEC71B0298C01BFD
:1026600002900298002801DA00200290608C218CF0
:102670008842C1D0A18CE06940F82160A08C401C48
:10268000A084A08C218C884201DB0020A084608C77
:10269000401C608404F11400FFF7D7FD50B904F129
:1026A0001400FFF733FD4046FDF744FE00F056FAF4
:1026B00000209EE74046FDF73DFE002099E7000020
:1026C000040100202DE9F0410F46164604463D4620
:1026D0003346102B28D305F0030C04F003084CEA12
:1026E000080CBCF1000F1FD121462A4610E052F819
:1026F00004CB41F804CB52F804CB41F804CB52F898
:1027000004CB41F804CB52F804CB41F804CB103B86
:10271000102BECD204E052F804CB41F804CB1B1F81
:10272000042BF8D20C46154603E015F801CB04F84B
:1027300001CBB3F1000CA3F10103F6D1BDE8F081A8
:10274000F0B50C460546E6B2042A15D300F003079F
:1027500097B9014646EA062343EA034304E008C169
:1027600008C108C108C1103A102AF8D201E008C116
:10277000121F042AFBD20D4601E005F8016B171E5B
:10278000A2F10102F9D1F0BD2DE9F04707468846D4
:1027900091469A463946052000F02AF9044614B9B4
:1027A0002046BDE8F08784F809A02046FFF707FD22
:1027B00008F1070020F007002084A4F82290218C63
:1027C000091D628C01FB02F0FFF762FDE061E06928
:1027D00020B9204600F018F80020E2E70020A062AF
:1027E000E0622063002508E0208C001DE16905FB04
:1027F0000016206B306026636D1C608CA842F3DCF1
:102800000020A0842046CCE710B5044604F1140053
:10281000FFF786FCE069FFF76BFA204600F01EF92F
:10282000002010BD2DE9FF4704460F4690464FF0AB
:10283000000900F015FD054600BF4248006818B1C8
:10284000204640490968884700BFFDF76FFD824672
:10285000A08C48B9039838B95046FDF76BFD6FF06E
:10286000010004B0BDE8F0873CE000202863039835
:1028700030B95046FDF75EFD6FF001002863F0E7C8
:10288000627A294604F11400FFF763FC03980028DC
:102890000CDD00F071FD814603AA002105F14C001A
:1028A00000F0DCFD05F14C0000F01CFE5046FDF789
:1028B00041FD00F053F9286B08B1286BD1E7FDF713
:1028C00035FD8246039800280CDD00F055FDA0EB95
:1028D00009090398A0EB090003900398002801DA86
:1028E00000200390A08C0028BFD0A66A3068A062A8
:1028F000E06AB04201D10020E062A08C401EA084BA
:102900005046FDF717FD208C404501D2208C00E099
:1029100040460246311D3846FFF7D4FEFDF706FD5E
:102920008246206B306026635046FDF703FD00BFF2
:102930000548006818B1204603490968884700BF68
:1029400000208EE7FC000020000100202DE9F0416E
:1029500004460F461646208CB04203D24FF0FF309B
:10296000BDE8F08100BF2148006818B120461F492A
:102970000968884700BFFDF7D9FC8046256B2DB953
:102980004046FDF7D7FC6FF00200E9E728682063B6
:102990004046FDF7CFFC0020286032463946281D0E
:1029A000FFF790FEFDF7C2FC8046E06A08B1E06ADE
:1029B0000560E562A06A00B9A562A08C401CA084F5
:1029C00004F11400FFF741FC50B904F11400FFF7C3
:1029D0009DFB4046FDF7AEFC00F0C0F80020BFE7CD
:1029E0004046FDF7A7FC0020BAE7000004010020E4
:1029F0002DE9F04106460F46304600F067F80546DF
:102A0000E868FFF745FC044614B90020BDE8F081F2
:102A100000212046EA68FFF793FE267200206072CC
:102A200008223946204600F02CFA00BF0A48006808
:102A300018B1204608490968884700BFFDF776FCB1
:102A4000804604F10C01281DFFF7E3FB4046FDF72B
:102A500071FC2046DAE70000F400002070B504465F
:102A600000BF0C48006818B120460A490968884729
:102A700000BF00202072FDF759FC054604F10C0050
:102A8000FFF7F3FB2846FDF755FC2046FFF730F92A
:102A900070BD0000F800002070B5044600BF0A4871
:102AA000006818B1204608490968884700BF00201F
:102AB0002072FDF73BFC054604F10C00FFF7D5FB47
:102AC0002846FDF737FC70BDF800002002460021C3
:102AD0000AE0074800EB01100078904203D1044857
:102AE00000EB01107047491C0729F2DB0020F9E7D1
:102AF000840000202DE9F04104460D461646284684
:102B0000FFF7E4FF074645F08000207208223146B7
:102B1000204600F0B6F900BF0A48006818B1204608
:102B200008490968884700BFFDF700FC804604F1AA
:102B30000C01381DFFF76DFB4046FDF7FBFBBDE8C0
:102B4000F0810000F40000200146087A00F08000C7
:102B500008B1012070470020FCE700002DE9F0419A
:102B6000FDF7E4FB074620480088002837D11F48BE
:102B70000068FEF74DFA461E1D4850F83600A0F1D9
:102B800014041C480068844225D01B490E70194863
:102B90000568046000BF1948006820B12146284636
:102BA000164A1268904700BF1548007848B904F1EA
:102BB0001C0105F11C00FDF7C0FB3846FDF7BAFB10
:102BC0000CE004F11C0105F11C00FDF7B6FB3846D2
:102BD000FDF7B0FB02E03846FDF7ACFB02E03846FB
:102BE000FDF7A8FBBDE8F0810801002014010020DA
:102BF000D82400200C01002010010020200100201A
:102C00006000002070B50446FDF790FB054614F8FF
:102C1000340F20F00F0040F0010020706278343C47
:102C20000A4B03EBC20004F11401426811604268D0
:102C30004A604160086000BF0549A06B096808430D
:102C4000034908602846FDF775FB70BDD8240020B5
:102C50001401002070B50446FDF768FB054604F139
:102C60001400D0E900215160D0E9001211604060E9
:102C7000006000BF94F83510094A02EBC1000168FA
:102C8000814201D1012100E0002129B10548A16B59
:102C900000688843034908602846FDF74BFB70BD78
:102CA000D8240020140100202DE9F04104460D46EF
:102CB00016461F462A4601212046FFF71BFF2046E5
:102CC000FFF77DFAA68367720020BDE8F08100005F
:102CD00070B5044600BF1148006818B120460F497E
:102CE0000968884700BF0025FDF720FB064604F170
:102CF0001400FFF7AAFA28B904F11400FFF706FA46
:102D0000012502E0A08B401CA0833046FDF712FB9A
:102D1000012D01D1FFF722FF002070BD040100202A
:102D200073B5054600BF2448006818B128462249FB
:102D30000968884700BFFDF7F9FA0646A88B002806
:102D400006DDA88B401EA8833046FDF7F3FA28E085
:102D5000019828B93046FDF7EDFA6FF001007CBD0F
:102D600000F07EFA0446002020636A7A214605F1CD
:102D70001400FFF7EEF90198002809DD01AA0021EF
:102D800004F14C0000F06AFB04F14C0000F0AAFBD7
:102D90003046FDF7CFFAFFF7E1FE206B08B1206B5C
:102DA000DDE700BF0548006818B1284603490968F7
:102DB000884700BF0020D2E7FC000020000100206F
:102DC00008B509A0FFF704FA0AA0FFF701FA12A05C
:102DD000022301220321009012A0FFF7F9F919A0A4
:102DE000FFF7F6F908BD00000A205C207C202F0ABE
:102DF000000000002D205254202D2020202020549F
:102E00006872656164204F7065726174696E6720D5
:102E100053797374656D0A0041756720203720323D
:102E200030323600202F207C205C202020202025DE
:102E3000642E25642E2564206275696C64202573D8
:102E40000A0000002032303036202D203230313957
:102E500020436F7079726967687420627920727498
:102E60002D746872656164207465616D0A000000EC
:102E700001460A4600E0521C10780028FBD1501A87
:102E8000704770B50346A2B118460C4600BF14F84F
:102E9000016B00F8016B3EB902E0002500F8015B10
:102EA000551E2A1EF9D102E0551E2A1EEFD100BF81
:102EB00000BF184670BD00002DE9F04105460E46E2
:102EC000E81D20F0070726F00708B8F1200F09D900
:102ED000A8F12000B84205D3A8EB070020381E490E
:102EE000086006E0324629461CA0FFF771F9BDE8EC
:102EF000F0812948076004684FF4F5502080164897
:102F00000068103060600020A06060802249606826
:102F100009680844214908604FF4F55009680880A1
:102F200001201E49096848800B48006810301B4981
:102F300009684860084800681030184909688860C6
:102F40000023012216A11848FFF7AEFE12480068C0
:102F50001649086000BFCAE7780000206D656D2043
:102F6000696E69742C206572726F72206265676980
:102F70006E206164647265737320307825782C202C
:102F8000616E6420656E6420616464726573732091
:102F9000307825780A0000006C00002070000020C6
:102FA0006865617000000000B824002074000020F3
:102FB00010B500200B490880002405E00A4901EB08
:102FC000C400FFF720F9641C202CF7DB1F20074901
:102FD0000870002006490860064908600648FFF7A7
:102FE00012F910BD08010020D82400201001002093
:102FF0000C010020140100201801002070B50848C1
:103000000068FEF705F8451E064850F83500A0F1A7
:1030100014040548046004F11C00FDF7D4F970BDE8
:1030200014010020D82400200C01002010B5002439
:1030300005E0044901EBC400FFF7E8F8641C002C2C
:10304000F7D010BD3001002070472DE9FF5F064624
:103050000F4690461D46DDE90EAB31460020FFF7D6
:10306000C7FC8146B9F1000F03D1002004B0BDE8D0
:10307000F09F2846FFF70CF9044624B94846FFF7AD
:10308000EDFC0020F2E743463A46314648468DE8DB
:10309000300CFDF7F1FF4846E8E7000070B5124834
:1030A0000468FDF743F905462046FFF7D3FD0420E9
:1030B00084F8340004F14C0000F0ECF92046FFF7EE
:1030C00043FD012805D1A06F18B92046FFF7E4FCA5
:1030D00004E004F114010548FFF7A2F82846FDF7C3
:1030E00029F9FFF73BFD70BD0C01002018010020FD
:1030F0000FE0002408E0074850F8240018B1054903
:1031000051F824008047641C042CF4D300F004F828
:1031100000BFEEE72824002070B537E0FDF706F980
:103120000546FDF79FFF18B31B480068A0F1140483
:1031300004F11400D0E900215160D0E900121160BF
:103140004060006000BFFEF7A5FDA06F10B12046F3
:10315000A16F88472046FFF7F7FC012805D1FEF74D
:10316000A9FD2846FDF7E6F870BDFEF7A3FD03E0D4
:103170002846FDF7DFF8F7E72846FDF7DBF8A06AF9
:10318000FEF7B6FD2046FFF769FC00BFFDF76AFFBA
:103190000028C3D100BFE7E7180100201FB5202099
:1031A0001F21C200074BCDE90032CDE902100023F8
:1031B000054A06A1074800F00FF8064800F056F847
:1031C0001FBD000028230020F13000087469646CE2
:1031D00065000000A82200202DE9FF5F05460C468F
:1031E00016461F46DDE910ABDDE90E8922460021B7
:1031F0002846FFF77FFC3B463246214628468DE8AD
:10320000000FFDF739FF04B0BDE8F09F70B504462C
:1032100094F8340000F00F00022802D04FF0FF3085
:1032200070BDFDF783F8054604F11400FFF726F89A
:1032300004F14C0000F0DCF92846FDF77BF820464D
:10324000FFF7E0FC00BF0548006818B120460349BD
:103250000968884700BF0020E2E70000280100203D
:1032600001480068704700000C01002010B50446BA
:103270003434A0786070617801208840606002205A
:1032800004F834092046FFF7C1FFFFF7E9FF08B152
:10329000FFF764FC002010BD70B5044694F83400BC
:1032A00000F00F00012802D04FF0FF3070BDFDF795
:1032B0003DF8054694F8340020F00F0040F002007D
:1032C00084F834002046FFF7C5FC04F14C0000F000
:1032D0008FF92846FDF72EF800BF0548006818B1A1
:1032E000204603490968884700BF0020DEE7000048
:1032F0002401002070B5044625466FF001002863C4
:1033000005F11400FEF7BAFF2846FFF77BFCFFF734
:1033100025FC70BD70B5FDF709F805461448046832
:1033200094F8340000F00F0001281CD1D4E90510F6
:10333000814218D004F11400FEF7A0FF94F8352064
:103340000C4B03EBC20004F11401426811604268A7
:103350004A604160086000BF2846FCF7EBFFFFF7BA
:10336000FDFB002070BD2846FCF7E4FF0020F9E7D4
:103370000C010020D824002001480068704700009C
:103380005400002010B50A480068401C0849086035
:10339000FFF766FF0446A06C401EA064A06C18B93D
:1033A000606CA064FFF7B6FF00F004F810BD0000E9
:1033B0005400002070B5FFF7DFFF0546FCF7B6FFAD
:1033C00006463AE022480068A0F11404A06A281AD0
:1033D0006FF0004188422FD200BF1E48006818B12C
:1033E00020461C490968884700BF2046FDF7B3FE08
:1033F000D4E907108847FFF7BFFF054600BF16480E
:10340000006818B1204614490968884700BF607AEF
:1034100000F0020058B1607A00F0010038B1607A23
:1034200020F001006072204600F05CF805E0607A50
:1034300020F00100607200E004E00548FEF70DFF97
:103440000028BFD000BF3046FCF774FF70BD0000FD
:1034500030010020380100203C010020034649B122
:10346000012904D0022908D0032910D10AE0586AA2
:1034700010600CE01068586209E0587A20F00200F1
:10348000587204E0587A40F00200587200BF00BF42
:103490000020704770B50446FCF748FF05462046FB
:1034A000FDF759FE2846FCF745FF2046FFF7F4FAE2
:1034B000002070BD2DE9F84307460C4615461E4610
:1034C000DDE90889224609213846FFF713FB434608
:1034D000324629463846CDF80090FDF71BFEBDE880
:1034E000F88300002DE9F8430546FCF71FFF8046EE
:1034F0002846FDF730FE687A20F0010068724046E9
:10350000FCF718FF00BF3748006818B12846354956
:103510000968884700BFFFF72FFF696A0844A8625F
:10352000FCF704FF8046304E009600242AE019E0A4
:103530005DF824201168142202EBC402881A826A02
:10354000AB6AD21A00D108E0826AAB6AD21A6FF075
:1035500000439A4200D20CE000BF5DF824000068EE
:103560004DF824005DF8240006EBC4014968884248
:10357000DED100BF2CB15DF824000830611C4DF88D
:103580002100641C002CD2D018480068401C174948
:1035900008600846076805F114010098FEF747FE29
:1035A000022412E007F0030060B9C4F1010305F141
:1035B000140202EBC301C4F101025DF82200FEF720
:1035C00036FE00E003E0BF08641C012CEAD900BF0E
:1035D000687A40F0010068724046FCF7ABFE0020BC
:1035E000BDE8F883000100203001002040010020E8
:1035F00070B50446607A00F0010010B94FF0FF305A
:1036000070BD00BF0B48006818B120460949096821
:10361000884700BFFCF78AFE05462046FDF79BFD64
:103620002846FCF787FE607A20F0010060720020D7
:10363000E6E70000040100202DE9FF4F89B0804635
:1036400044460A984044461E464504D24FF0FF3691
:10365000A6EB08000A906FE10B980078252806D0A9
:10366000B44202D80B9800782070641C61E10025F8
:1036700026E00B98401C0B900B9800782D2802D167
:1036800045F010051CE00B9800782B2802D145F07E
:10369000040515E00B980078202802D145F00805B4
:1036A0000EE00B980078232802D145F0200507E0B2
:1036B0000B980078302802D145F0010500E000E0C9
:1036C000D7E700BF4FF0FF370B98007830380A2853
:1036D00004D20BA800F056FA07460EE00B980078CB
:1036E0002A280AD10B98401C0B900C9880C80C908B
:1036F000002F02DA7F4245F010054FF0FF390B989A
:1037000000782E281CD10B98401C0B900B98007849
:1037100030380A2804D20BA800F034FA81460AE0B7
:103720000B9800782A2806D10B98401C0B900C9817
:1037300050F8049B0C90B9F1000F01DA4FF000092A
:10374000002004900B980078682803D00B9800782C
:103750006C2805D10B98007804900B98401C0B90B6
:103760000A2005900B9800786F2875D00CDC632830
:1037700013D004DC252870D058286FD18DE0642840
:103780006DD06928F9D18FE070286AD0732825D0D0
:10379000752878D07828F0D182E005F0100040B983
:1037A00004E0B44201D820202070641C781E071E5B
:1037B000F7DC0C9810F8041B0C90C8B20790B442C8
:1037C00001D807982070641C04E0B44201D820207E
:1037D0002070641C781E071EF7DCAAE00C980068B5
:1037E00006900C98001D0C90069808B95AA00690F7
:1037F0000698FFF73DFB8346B9F1000F02DDCB458C
:1038000000DDCB4605F0100048B904E0B44201D811
:1038100020202070641C38467F1E5845F6DC0020AE
:1038200008900BE0B44202D8069800782070641C1F
:103830000698401C06900898401C08900898584527
:10384000F0DB04E0B44201D820202070641C38462C
:103850007F1E5845F6DC6CE01CE015E028E022E015
:10386000FFE7781C10B9082745F00105CDE900797C
:1038700002950C9804C8102331460C902046FEF7A0
:1038800009F9044655E012E0B44201D82520207021
:10389000641C4EE0082005901DE045F0400500BF87
:1038A0001020059017E000BF45F0020500BF12E0B0
:1038B000B44201D825202070641C0B98007830B1E8
:1038C000B44202D80B9800782070641C02E00B9878
:1038D000401E0B902DE000BF04986C2807D10C9877
:1038E00050F804AB0C9005F00200B8B116E0049853
:1038F00068280BD10C9830F8041B1FFA81FA0C9041
:1039000005F0020050B10FFA8AFA07E00C9850F85F
:1039100004AB0C9005F0020000B100BFCDE90079C6
:103920000295524631462046059BFEF7B3F8044601
:1039300000BF0B98401C0B900B98007800287FF478
:103940008BAEB44201D8207001E000203070A4EBAF
:1039500008000DB0BDE8F08F284E554C4C290000F2
:1039600000207047002070470020704700207047FB
:1039700070B505460DB9002070BDFCF7D7FC0646B2
:10398000286820B93046FCF7D5FC0020F4E72C6805
:10399000E06828600020E060012020720020606064
:1039A00060803046FCF7C6FC2046E5E730B50346AC
:1039B0000020106000BF18E0002403EB00156C80AD
:1039C00003EB0015EC6003EB00152C7203EB001504
:1039D0006C6018B903EB0014146005E003EB0015EC
:1039E000441E03EB0414E560401C8842E4DB002025
:1039F0001061D06090605060107630BD2DE9F041CC
:103A000005460C4605B10CB9BDE8F081FCF78EFC0B
:103A1000074600202072606060802E682C60286855
:103A2000C6603846FCF786FC00BFEDE770B504467B
:103A3000FCF77CFC064624B93046FCF77BFC0020F2
:103A400070BD606820B93046FCF774FC0020F7E7D1
:103A50006568E8686060606808B90020A0600020C0
:103A6000E860042028723046FCF764FC2846E7E74B
:103A700070B505460C4605B104B970BDFCF756FC9F
:103A800006460020E06002202072A86810B96C6031
:103A9000AC6002E0A868C460AC603046FCF74AFC49
:103AA00000BFEAE710B5FCF741FCFEF7A5F9FFF708
:103AB00087F9FFF7BBFAFFF77BFAFEF7B7F8FFF7D6
:103AC000C3FAFFF76BFBFFF799FA002010BD000067
:103AD00010B500228B071C0F0F2303FA04F28B1082
:103AE00033B1012B13D0022B23D0032B45D132E06D
:103AF000234B1B689343224C236023461B688C078F
:103B0000240F00FA04F423431D4C236036E01C4BC1
:103B10001B1D1B6893431A4C241D236023461B68FE
:103B20008C07240F00FA04F42343154C241D236052
:103B300024E0134B08331B689343114C0834236073
:103B400023461B688C07240F00FA04F423430C4C13
:103B50000834236012E00A4B0C331B689343084C73
:103B60000C34236023461B688C07240F00FA04F4EE
:103B70002343034C0C34236000E000BF00BF10BDA2
:103B8000083801400146002009E00B685A1C0A6011
:103B90001A7800EB800302EB4302A2F130000A68BE
:103BA0001278303A0A2AF0D3704700210170417030
:103BB0008170C1700171417181710121C1717047C2
:103BC000026861F3861202607047426861F3000286
:103BD00042607047426861F3410242607047C269C7
:103BE00022F40062C2610A7862B9026822F40042DB
:103BF0000260026822F480420260026822F480625D
:103C0000026036E00A78012A0ED1026822F40042EE
:103C10000260026822F480420260026822F480623C
:103C200002F58062026024E00A78022A0ED102685E
:103C300022F4004202F500420260026822F480424F
:103C40000260026822F48062026012E00A78032AAD
:103C50000FD1026822F4004202F5004202600268BD
:103C600022F4804202F580420260026822F48062FF
:103C70000260CB79026863F3492202604A78012A24
:103C800009D1CA79012A06D1026822F4807202F5AC
:103C90008072026003E0026822F4807202604B7856
:103CA000026863F3820202608A78072A0DDC4268A8
:103CB00022F400724260426822F4807242608B7883
:103CC000026863F3C502026020E08A780A2A0ED1F6
:103CD000426822F4007202F500724260426822F4E7
:103CE00080724260026822F0380202600EE0426890
:103CF00022F400724260426822F4807202F58072FF
:103D000042608A78036862F3C5030360CB78026877
:103D100063F3C71202600B79026863F3CB2202607F
:103D20004B79026863F3410202608B79026863F3A6
:103D300000020260704700002DE9FC5F00240025AE
:103D40000026A146A246A34600200190FDF7DEFB17
:103D50000090009820B1012814D0022841D115E02C
:103D60002B480068C0F3803040B129480068C0F398
:103D7000003018B127482849086002E02748264942
:103D8000086032E02648244908602EE020489C382C
:103D90000068C0F380591E489C380068C0F388143E
:103DA0001B489C38006800F00F0519489C380068D3
:103DB000C0F302401B490E5CB9F1000F02D1DFF8DD
:103DC0005CA001E0DFF858A005FB06FCAAFB04702C
:103DD0000146624600233846FCF742FB0E49086064
:103DE00003E00E480C49086000BF00BF084898383F
:103DF0000068C0F3031B0C4810F80B000190064844
:103E000000680199C84004490860BDE8FC9F0000B3
:103E1000A0380240006CDC020400002000127A008E
:103E20000024F400F8460008E8460008042808D1F9
:103E30004FF0E021096941F004014FF0E0221161E7
:103E400007E04FF0E021096921F004014FF0E02282
:103E5000116170477FB50446002600256846FDF7CE
:103E6000F7F90198C6080020FFF7E0FFB6FBF4F56C
:103E7000681EB0F1807F02D3002004B070BD681EC0
:103E80004FF0E0214861002088610846006940F059
:103E9000030008610120F0E710B572B6FDF7A8FC39
:103EA000FCF778FF62B610BDC1628262436923F0FD
:103EB00001035B1C43617047026861F309220260E1
:103EC0007047026861F3061202607047026861F38E
:103ED000000202607047026861F3C7120260704717
:103EE000426861F3061242607047826861F3C7124C
:103EF00082607047426961F386124261704742698D
:103F000061F3C71242617047C26861F34D32C2600B
:103F1000704741B9426922F480724261426922F4D9
:103F20000072426127E001290AD1426922F48072BD
:103F300002F580724261426922F4007242611AE025
:103F400002290AD1426922F480724261426922F454
:103F5000007202F5007242610DE003290BD1426943
:103F600022F4807202F580724261426922F400728A
:103F700002F50072426170472DE9FF47044688460A
:103F8000164699466846FDF763F92448844202D0F4
:103F90002348844201D1029F00E0039F07EB870082
:103FA0004000B0FBF8F50A20B5FBF0F100FB115022
:103FB000052803D20A20B5FBF0F503E00A20B5FB83
:103FC000F0F0451CA06865F30F00A06056B9E068EA
:103FD00020F0805000F18050E060E06820F48050D4
:103FE000E06014E0012E08D1E06820F08050E0602D
:103FF000E06820F48050E06009E0E06820F0805044
:10400000E060E06820F4805000F58050E0602069B6
:1040100069F30D302061BDE8FF870000001001400A
:104020000014014041B9C26822F40072C260C26843
:1040300022F48062C2601AE001290AD1C26822F427
:104040000072C260C26822F4806202F58062C260BF
:104050000DE002290BD1C26822F4007202F5007251
:10406000C260C26822F4806202F58062C26070475A
:10407000C26861F38202C2607047C26861F3C30222
:10408000C260704700B585B01348FDF7A3FA6846D3
:10409000FDF749FA0020ADF808008DF80F00012067
:1040A0008DF80D0000208DF80E008DF80C008DF8B5
:1040B00011008DF8100069460748FDF751FA0121FB
:1040C00005480838FDF7BEFA18210348FC30FDF713
:1040D000C0FA05B000BD00000864024000B585B01C
:1040E0001348FDF777FA6846FDF71DFA1020ADF882
:1040F000080000208DF80F0001208DF80D00002031
:104100008DF80E008DF80C008DF811008DF8100060
:1041100069460748FDF724FA012105481C38FDF7D8
:1041200091FA19210248EC30FDF793FA05B000BD71
:104130001C64024000B585B01648FDF74BFA68468E
:10414000FDF7F1F90020ADF808008DF80F0001200F
:104150008DF80D0000208DF80E008DF80C00032066
:104160008DF8110000208DF8100069460948FDF710
:10417000F7F9012107485838FDF764FA0A21054884
:10418000BC30FDF766FA012202210248FDF719FA58
:1041900005B000BD5864024000B585B01748FDF772
:1041A00019FA6846FDF7BFF91020ADF808000020A5
:1041B0008DF80F0001208DF80D0000208DF80E0005
:1041C0008DF80C0003208DF8110000208DF81000F0
:1041D00069460A48FDF7C4F9012108486C38FDF723
:1041E00031FA0B210548AC30FDF733FA01220221E8
:1041F0000248FDF7E6F905B000BD00006C6402401E
:1042000043608160C260704700B585B003A8FDF7C8
:1042100086FA00208DF812004020039000208DF8CF
:10422000110003A90C48FDF784FA06210020FFF7CE
:104230004FFC6846FDF712FA01208DF809000020B6
:104240008DF800004020019000208DF8080068469D
:10425000FDF712FA05B000BD000002401CB568462B
:10426000FDF75DFA4FF400410A48FDF751FA0220CC
:104270008DF8070000208DF8040001208DF806005D
:10428000C003009000208DF8050069460148FDF745
:1042900050FA1CBD0000024070B50320FDF7AAFBD8
:1042A000FCF79AFE054600221146FCF706FD04467F
:1042B00021466FF00B00FCF797FEFCF78DFE0546DC
:1042C00000221146FCF7F9FC044621466FF00A0073
:1042D000FCF78AFEFCF780FE054600221146FCF73B
:1042E000ECFC044621466FF00900FCF77DFEFCF76C
:1042F00073FE054600221146FCF7DFFC044621460A
:104300006FF00400FCF770FEFCF766FE0546002225
:104310001146FCF7D2FC044621466FF00300FCF77F
:1043200063FEFCF759FE054600220F21FCF7C5FC91
:10433000044621466FF00100FCF756FEFCF74CFEE8
:10434000054600221146FCF7B8FC044621464FF012
:10435000FF30FCF749FE002211461720FDF7E6FA70
:10436000002211461C20FDF7E1FA002211463820F8
:10437000FDF7DCFA002211463920FDF7D7FA0022BA
:1043800011463C20FDF7D2FA002211464420FDF7E9
:10439000CDFA70BD10B501214FF44010FDF712F8B1
:1043A00001211048FDF70EF801210E48801DFDF790
:1043B00009F801210B481530FDF704F801218805A3
:1043C000FDF700F801210848FCF7FCFF0121064831
:1043D0000830FCF7F7FF012103480A30FCF7F2FF31
:1043E00010BD000001003000040044001FB502A809
:1043F000FDF795F96846FFF7D8FB052203213548FC
:10440000FDF7D4F902208DF80F0000208DF80C0084
:1044100002208DF80E000820029000208DF80D007B
:1044200002A92C48FDF785F9052204212948FDF74A
:10443000BDF902208DF80F0000208DF80C0002203D
:104440008DF80E001020029000208DF80D0002A9BA
:104450002048FDF76EF9052211461E48FDF7A6F922
:1044600002208DF80F0000208DF80C0002208DF83E
:104470000E002020029000208DF80D0002A91548A2
:10448000FDF757F900208DF8000001208DF801009C
:1044900000208DF804008DF8030003208DF8020041
:1044A00000208DF805008DF8060001208DF807002A
:1044B00069460948FFF793FB01210748FFF78AFB8C
:1044C00001210548FFF781FB01210348FFF778FB35
:1044D0001FBD0000000402400030014010B5FCF791
:1044E000BBFF01212B48FCF76DFF2B48006920F032
:1044F0000700401C284908612848006820F0030094
:10450000401C2649086001210420FCF76DFE00BF15
:104510002348FCF727FF0128FAD101210846FCF7C0
:1045200063FE00BFFCF736FF0028FBD0012100200E
:10453000FCF75AFE00BF0120FCF714FF0128FAD156
:104540000223012290210020FCF762FF01210220BA
:10455000FCF74AFE00BF1920FCF704FF0128FAD13E
:104560000020FCF70FFE0420FCF720FE0420FCF7DF
:1045700013FE0120FCF724FE0220FCF7A9FF00BF78
:10458000FCF7C4FF0228FBD10020FCF719FEFFF75F
:10459000D3FB10BD1C00400000700040603C024096
:1045A0000100740010B500214FF08040FFF789FC36
:1045B00000214FF08040FFF77FFC00214FF080404A
:1045C000FFF789FC40F21F1240F6C3114FF0804004
:1045D000FFF76AFC00214FF08040FFF786FC0021C6
:1045E0004FF08040FFF77CFC01218807FFF76EFC4D
:1045F0004FF08040C06820F00100401C4FF0804127
:10460000C86010BD1CB56846FDF789F8072209216E
:104610002748FDF7CBF802208DF8070000208DF821
:10462000040002208DF806000002009000208DF8A2
:10463000050069461E48FDF77CF807220A211C4840
:10464000FDF7B4F802208DF8070000208DF8040073
:1046500002208DF806004002009000208DF8050031
:1046600069461348FDF765F8002301224FF46121E4
:104670001048FFF781FC01210E48FFF7FEFC0121E5
:104680000C48FFF7F5FC00210A48FFF7CBFC01219D
:104690000848FFF734FC01210648FFF72BFC0021F6
:1046A0000448FFF736FC01210248FFF72DFC1CBD32
:1046B00000000240001001404FF04070E1EE100A8F
:1046C000704700000000000000000102030406071C
:1046D00008090000000001020304000000000102BC
:1046E0000304010204081020000000000000000084
:1046F0000102030406070809010204081020000053
:10470000010002000100030001000200010004009A
:104710000100020001000300010002000100050089
:10472000010002000100030001000200010004007A
:104730000100020001000300010002000100060068
:10474000010002000100030001000200010004005A
:104750000100020001000300010002000100050049
:10476000010002000100030001000200010004003A
:104770000100020001000300010002000100070027
:10478000010002000100030001000200010004001A
:104790000100020001000300010002000100050009
:1047A00001000200010003000100020001000400FA
:1047B00001000200010003000100020001000600E8
:1047C00001000200010003000100020001000400DA
:1047D00001000200010003000100020001000500C9
:1047E00001000200010003000100020001000400BA
:1047F000010002000100030001000200010030314D
:104800003233343536373839616263646566003077
:104810003132333435363738394142434445460026
:104820006D390008653900086139000869390008E8
:104830005048000800000020440100004802000821
:104840009448000844010020F4420000A40200083B
:10485000510381127A22882A2004328032011A9868
:104860000C2904322032021AA80C29043224320303
:104870001AB80C2904292032041AC80C2904323031
:1048800032051AD80C2904323432091AE80C2904EA
:0448900002532C00A3
:040000050800020DE0
:00000001FF
