:020000040801F1
:1000000000000000000000000000000000000000F0
:1000100000000000000000000000000000000000E0
:1000200000000000000000000000000000000000D0
:1000300000000000000000000000000000000000C0
:1004000000000000000000000000060100000000E5
:1004100000000000000000000000070001000000D4
:1004200000000000000000000000000000000000CC
:1004300000000000000000000000000000000000BC
:1004400000000000000000000000000000000000AC
:10045000000000000000000000000000000000009C
:020000040801F1
:10080000105F0020ED0A0108B11A01081F0C010851
:10081000AD1A0108050E0108391F0108000000008B
:10082000000000000000000000000000A51C0108FE
:10083000C10F0108000000006B0B0108151E010824
:100840000F0B01080F0B01080F0B01080F0B01081C
:100850000F0B01080F0B01080F0B01080F0B01080C
:100860000F0B01080F0B01080F0B01080F0B0108FC
:100870000F0B01080F0B01080F0B01080F0B0108EC
:100880000F0B01080F0B01080F0B01080F0B0108DC
:100890000F0B01080F0B01080F0B0108C50F010812
:1008A0000F0B01080F0B01080F0B01080F0B0108BC
:1008B000BD1E01080F0B01080F0B01080F0B0108EB
:1008C0000F0B01080F0B01080F0B01080F0B01089C
:1008D0000F0B01080F0B01080F0B01080F0B01088C
:1008E0000F0B01080F0B01080F0B01080F0B01087C
:1008F0000F0B01080F0B01080F0B01080F0B01086C
:100900000F0B01080F0B0108E91E01080F0B01086E
:100910000F0B01080F0B01080F0B01080F0B01084B
:10092000950E0108990E01080F0B01080F0B010825
:10093000FD0E01080F0B01080F0B01080F0B01083A
:100940000F0B01080F0B01080F0B01080F0B01081B
:10095000950F01080F0B0108000000000F0B0108A4
:100960000F0B01080F0B0108000000000000000041
:100970000F0B01080F0B01080F0B0108000000000E
:10098000000000000F0B01080F0B01080F0B0108FE
:100990000F0B010800000000000000000000000034
:1009A0000000000000000000000000000F0B010824
:1009B0000F0B0108000000000F0B010800000000F1
:1009C0000000000000000000000000000000000027
:1009D00000000000000000000F0B01080F0B0108D1
:1009E0000F0B01080F0B01080F0B01080F0B01087B
:1009F0000F0B01080F0B01080F0B01080F0B01086B
:100A00000F0B01080F0B01080F0B010800F002F893
:100A100000F05CF80AA090E8000C82448344AAF13C
:100A20000107DA4501D100F051F8AFF2090EBAE83A
:100A30000F0013F0010F18BFFB1A43F00103184712
:100A4000445D0000645D00000A444FF0000C10F8A3
:100A5000013B13F0070408BF10F8014B1D1108BF3C
:100A600010F8015B641E05D010F8016B641E01F8DC
:100A7000016BF9D113F0080F1EBF10F8014BAD1C2C
:100A80000C1B09D16D1E58BF01F801CBFAD505E04A
:100A900014F8016B01F8016B6D1EF9D59142D6D3A4
:100AA000704700000023002400250026103A28BFCC
:100AB00078C1FBD8520728BF30C148BF0B607047D0
:100AC0001FB505F021F81FBD10B510BD00F05EF98F
:100AD0001146FFF7F5FF00F08EF900F07CF903B442
:100AE000FFF7F2FF03BC00F07FF900000B488546DA
:100AF0000B4880470B4880470B480047FEE7FEE75E
:100B0000FEE7FEE7FEE7FEE7FEE7FEE7FEE7FEE7BD
:100B100006480749074A084B7047000000000420B8
:100B200019120108291E01080D0A01081059002098
:100B3000105F0020105B0020105B0020EFF310809E
:100B400072B6704780F310887047434A1368012BD0
:100B500004D04FF001031360404A1060404A116016
:100B600040484FF0805101607047EFF3108272B639
:100B70003948016851B34FF00001016037480168FE
:100B800091B1EFF309811EF0100F08BF21ED108B1A
:100B900021E9F00F4FF000041EF0100F08BF0124F0
:100BA00041F8044D006801602D490968096808C9C9
:100BB000B1E8F00F002B18BFB1EC108B81F309885E
:100BC0004EF0100E002B18BF2EF0100E82F310887E
:100BD0004EF0040E704722490860EFF3148222F0B1
:100BE000040282F314881D494FF0000008601A497E
:100BF0004FF0010008601C484FF47F01D0F800203E
:100C000041EA0201016017484FF080510160174826
:100C10000068006880F3088861B662B670471EF00D
:100C2000040F0CBFEFF30880EFF3098020E9F00F09
:100C300040F804ED40F804ED1EF0040F0CBF80F303
:100C4000088880F3098800B502F0A8FA5DF804EB83
:100C50004EF0040E704700006C000020640000207D
:100C60006800002004ED00E020ED00E008ED00E069
:100C700053EA020C00F069802DE9F04B4FF00006BA
:100C8000002B1FBFB3FA83F503FA05F424FA05F627
:100C90005E4012BF1643B2FA82F502FA05F4C5F1BE
:100CA00020051EBF22FA05FC44EA0C04203556EA52
:100CB000044C4FEA144418BF641C4FF000084FF076
:100CC0000009904271EB030C39D3002919BFB1FA26
:100CD00081F701FA07F6B0FA80F700FA07F6C7F1D4
:100CE00020071EBF20FA07FC46EA0C062037B6FB99
:100CF000F4FCA7EB0507103F07F01F0BCBF1200614
:100D00000CFA0BFB2CFA06F644BFB3460026202F44
:100D1000A4BF5E464FF0000B5BEA060C08BF4FF025
:100D2000010B19EB0B09ABFB027C48EB0608C01B5F
:100D300006FB02CC0BFB03CC71EB0C01C1E70B46AD
:100D4000024641464846BDE8F08B13B54FF000001F
:100D50004FF00001AFF30080BDE81C4070477047C2
:100D60007047704710B500F009F8006810BD10B565
:100D7000044600F003F8046010BD0000004870470E
:100D8000B058002000487047B05800207546FFF763
:100D9000F9FFAE4605006946534620F00700854638
:100DA00018B020B5FFF7B4FEBDE820404FF00006B4
:100DB0004FF000074FF000084FF0000B21F0070143
:100DC000AC46ACE8C009ACE8C009ACE8C009ACE886
:100DD000C0098D46704710B50446AFF30080204629
:100DE000BDE81040FFF77BBE01491820ABBEFEE70F
:100DF00026000200704710B5FFF7A0FE04F030F89F
:100E0000002010BD00BFFEE770B502460B46002073
:100E100000210AE0545C84EA2025EDB2044E36F845
:100E2000155085EA0025A8B2491C9942F2DB70BD35
:100E3000505C010870B502460023002005E0145CF8
:100E400083EA0405034E735D401C8842F7DB1846B5
:100E500070BD0000505B01080CB515E00B48006840
:100E600001900B480068009008480068019988428A
:100E700000D209E000210B46DDE90002114340EAFF
:100E80000302084611460CBDE8E70000240C0040B0
:100E9000000000207047000070B513480068C0F3E0
:100EA000401000B302F0B4FA202001F0FBFB002157
:100EB0000D481C3001F0E4FBFFF7CEFF04460D4661
:100EC0000A48D0E90010611A65EB0000084AC2E93F
:100ED0000010064A30C20020064908600649086032
:100EE00002F0B0FA00BF70BD0064024010000020A4
:100EF00008000020200000202400002010B586B04B
:100F00001F480068C0F34040002837D002F080FA44
:100F10004FF4003001F0C6FB4FF4803001F0C2FB0B
:100F20001848446914B340690088012814D101228B
:100F3000C103154801F092FD0120ADF804000F2215
:100F400012490DF1060002F073FD122201A91048AA
:100F5000006802F0B1FE00BF00200A494861214646
:100F6000084803F029FF00200649087600210448BC
:100F7000583001F085FB02F065FA00BF06B010BDE5
:100F80000064024000300020000002406F3D00205D
:100F90003400002010B509480068C0F3405060B12B
:100FA00002F036FA4FF4001001F07CFB00210348F8
:100FB0006C3001F065FB02F045FA10BD00640240A0
:100FC0007047000010B502F023FA402001F000FC49
:100FD00004480078012802D1034800F017FD02F010
:100FE00031FA10BD18000020003000207FB500F05D
:100FF0003DF90546154C16482168C0F86C13616828
:10100000C0F87013A168C0F87413C0F878534FF497
:10101000007200F1180100F06CFD642009214FF40A
:1010200000620C4BCDE90032CDE9021000230A4AE0
:101030000AA10D4803F08CFA0B4803F0F5FA0023DF
:101040001A460AA10A4802F0E5FF7FBDE8F7FF1F34
:1010500068010020E00700207510010853657269DF
:10106000616C5F5461736B00E00F002000000000B2
:10107000C007002031E04FF0FF31184803F006F8B8
:101080004FF4C8721649A1F55F7000F06FFD044679
:10109000002C21DD0FE0012003F0B5F911480168B3
:1010A0000068401C0F4A106041F28830814202DB28
:1010B00000200D4908600C4800680028EBD1012091
:1010C00009490860A3B2064A0849094804F08CFAA5
:1010D0000121074801F0D4FA00BFCCE7C007002087
:1010E000E40400202400002020000020041001401F
:1010F0001C64024038B504460D46254890ED000AB0
:10110000244880EDD10A224890ED010A214880ED63
:10111000D20A1F4890ED020A1E4880EDD30A1C48EF
:1011200090ED030A1B4880EDCE0A194890ED040AA1
:10113000184880EDCF0A164890ED050A154880ED55
:10114000D00A9FED150A80EDD40A9FED130A80EDB9
:10115000D50A9FED110A80EDD60A0D4890ED060ADA
:101160000C4880EDD70A00F54E70C0E90B454420CD
:101170000A4BF3220A4900900A4800F017F84C2263
:101180000849044800F0BDFC074802F057FF38BD8D
:10119000601100206801002000000000A004002071
:1011A0007806002060100020C00700202DE9F05FC5
:1011B00004460E46904699460A9DFC20207084F80D
:1011C0000180A57096F82010306A401C3062E170F2
:1011D00004212046FFF72EFE834684F804B015B99B
:1011E0000520BDE8F09F04F1070A002004E019F88B
:1011F00000100AF80010401CA842F8DBE9B2504683
:10120000FFF702FE074638126071A771FD21E81D45
:101210002154401CE5E7000010B51148008A00F099
:101220000704042C1AD001F0B3FB01F0C3FB042027
:1012300001F02AFB01F062FB00BFBFF34F8F0948AA
:10124000006800F4E06008490843001D0549086093
:10125000BFF34F8F00BF00BF00BFFDE710BD000010
:1012600000C0FF1F0CED00E00000FA0502480088F6
:10127000C0F30B0070470000002004E010B50448E4
:10128000006800B910BD034802F0D8FE00BFF9E7BE
:101290002C000020A02400202DED048B96B024E12A
:1012A0004FF0FF31914802F0F1FE00BFEFF31080E4
:1012B0000646012080F3108800BF8D4800F0B6FC80
:1012C0008DED130A8A48103000F0B0FC8DED140A41
:1012D0008748203000F0AAFC8DED150A844830388C
:1012E00000F0A4FC8DED100A8148203800F09EFC2F
:1012F0008DED110A7E48103800F098FC8DED120A31
:101300007B48303000F092FCF0EE409A3221784871
:1013100000F06CFC0D9032217548103000F066FC36
:101320000E9032217248203000F060FC0F90322184
:101330006F48303800F05AFC0A9032216C4820384F
:1013400000F054FC0B9032216948103800F04EFC3C
:101350000C9032216648303000F048FC0746304699
:1013600080F3108800BF00BF9DED140AB1EE400A63
:10137000604880ED000A9DED130AB1EE400A80ED51
:10138000010A9DED150AB1EE400A80ED020A00BF88
:1013900000BF9DED110AB1EE400A80ED030A9DEDFC
:1013A000100AB1EE400A80ED040A9DED120AB1EE7A
:1013B000400A80ED050A00BF00BF0E98404200EED3
:1013C000100AB8EEC00A8DED070A0D98404200EEF3
:1013D000100AB8EEC00A8DED080A0F98404200EEE0
:1013E000100AB8EEC00A8DED090A00BF00BF0B98C5
:1013F000404200EE100AB8EEC00A8DED040A0A98C9
:10140000404200EE100AB8EEC00A8DED050A0C98B5
:10141000404200EE100AB8EEC00A8DED060A00BF89
:10142000002033E007A901EB800191ED000AB5EE41
:10143000C00AF1EE10FA01D1012200E000222D498C
:101440001C3141F8202004A901EB800191ED000A34
:10145000B5EEC00AF1EE10FA01D1012200E000223F
:101460002449283141F8202001A901EB800191EDA8
:10147000000AB5EEC00AF1EE10FA01D1012200E037
:1014800000221C49B43141F82020401C0328C9DB4C
:101490001848C0ED069A0FB9012000E00020154958
:1014A00048630846D0ED068A90ED499A9FED120AEE
:1014B00028EE800ADFED110AB0EE408A00EE898A3C
:1014C00080ED498AB0EE480AD1F8200100F0DBFE39
:1014D000FFF7C2FC04460D46064901F5847130C190
:1014E00020462946FFF706FE00BFD9E6A0240020CB
:1014F000F03C002060110020A323393C711B7D3F8C
:1015000008B502226946152000F000F99DF8000098
:1015100020F0200000909DF8000020F04000009096
:101520009DF8000020F08000009002229DF800103D
:10153000152000F045F908BD1CB5022201A91020B4
:1015400000F0E4F89DF8040020F0F00001909DF810
:10155000040040F08000019002229DF80410102049
:1015600000F02EF902226946112000F0CFF89DF814
:10157000000020F0F00000909DF8000040F0800096
:10158000009002229DF80010112000F019F91CBDF6
:101590001CB5022201A9102000F0B8F89DF8040043
:1015A00020F00C0001909DF8040040F00C00019028
:1015B00002229DF80410102000F002F90222694670
:1015C000112000F0A3F89DF8000020F00F0000901B
:1015D0009DF8000040F00C00009002229DF80010E1
:1015E000112000F0EDF81CBD0EB5022202A9152055
:1015F00000F08CF89DF8080020F010000290022204
:101600009DF80810152000F0DBF8022201A9102037
:1016100000F07CF89DF8040020F002000190022206
:101620009DF80410102000F0CBF802226946172024
:1016300000F06CF89DF8000020F0040000909DF888
:10164000000020F0080000909DF8000020F010003D
:1016500000909DF8000020F0E000009002229DF82C
:101660000010172000F0ACF80EBD08B50222694644
:10167000132000F04BF89DF8000020F002000090CD
:1016800002229DF80010132000F09AF808BD0EB554
:10169000022202A9122000F039F89DF8080020F07B
:1016A000100002909DF8080020F0200002909DF8A4
:1016B000080040F00400029002229DF80810122059
:1016C00000F07EF8022201A90D2000F01FF8012091
:1016D000019002229DF804100D2000F071F8022202
:1016E00001A90D2000F012F8022269460B2000F03B
:1016F0000DF89DF8000040F08000009002229DF857
:1017000000100B2000F05CF80EBD00007CB5064612
:101710000C46154646F080001249087000204870BB
:1017200000224FF40041104801F098F90F480D4B8A
:101730000F4A1049CDE900050E48143000F094FA24
:1017400000BF0B480C388068C0F3C0100028F8D1E7
:101750000122D103044801F081F904484078207047
:101760007CBD0000600000200000024062000020FC
:101770000C3001405864024008B50222694612202C
:10178000FFF7C4FF9DF8000020F00800009002223F
:101790009DF80010122000F013F808BD08B50222D1
:1017A00069461220FFF7B2FF9DF8000040F04000AC
:1017B000009002229DF80010122000F001F808BDF0
:1017C0007CB504460E46154604F07F0010490870AB
:1017D0000846467000224FF400410E4801F03EF9E1
:1017E0000D480B4B0D4A0E49CDE900050C4814304D
:1017F00000F03AFA00BF09480C388068C0F3C01006
:101800000028F8D10122D103024801F027F97CBD5C
:101810006000002000000240620000200C30014007
:101820005864024070B5044600BFEFF310800546CF
:10183000012000F0FBFB204600F0A8F800EE100AA3
:10184000B8EEC00ADFED4D0A80EE201AB3EE090AA9
:1018500031EE000A4A4880ED1C0A04F1080000F04D
:1018600095F800EE100AB8EEC00ADFED460A20EE49
:10187000200A434880ED1D0A04F10A0000F086F8B2
:1018800000EE100AB8EEC00ADFED3E0A20EE200A94
:101890003B4880ED1E0A04F10C0000F077F800EEE2
:1018A000100AB8EEC00ADFED370A20EE200A3448ED
:1018B00080ED1F0AA01C00F069F800EE100AB8EED7
:1018C000C00ADFED310A20EE200A2D4880ED200A03
:1018D000201D00F05BF800EE100AB8EEC00ADFED44
:1018E0002A0A20EE200A264880ED210AA01D00F0D9
:1018F0004DF800EE100AB8EEC00ADFED230A20EE24
:10190000200A1F4880ED220AD0ED1D0AB0EE600AC1
:10191000303000F073F91A48D0ED1E0AB0EE600ABC
:10192000403000F06BF91648D0ED1F0AB0EE600AA7
:10193000503000F063F91248D0ED200AB0EE600A92
:1019400000F05CF90E48D0ED210AB0EE600A1030CC
:1019500000F054F90A48D0ED220AB0EE600A2030B7
:1019600000F04CF90648D0ED1C0AB0EE600A603079
:1019700000F044F9284600F059FB70BD0000804398
:10198000C03C002017B71C3B57A08B3A0146487853
:101990008A7840EA022000B2704708B50222694600
:1019A0001820FFF7B3FE9DF8000040F00200009001
:1019B00002229DF800101820FFF702FF08BD00006A
:1019C00010B5022201211220FFF7FAFE02220D4972
:1019D0000F20FFF79BFEFFF7E0FFFFF7CDFEFFF7BD
:1019E000DDFEFFF754FEFFF78BFDFFF7D1FDFFF79C
:1019F000A3FDFFF7F9FDFFF738FE0120024908704B
:101A000010BD0000400000204100002070B50546D8
:101A1000284603F08BF9044604B970BD074860609E
:101A2000002060802146284603F000FA2946044839
:101A3000006801F06BFF00BFEFE70000451A0108E6
:101A4000300000207CB506460C4600BFEFF3108046
:101A50000546012000F0EAFA0F2200210E4802F0AC
:101A600025F801202080A0200B49087000224FF4A7
:101A700000410A4800F0F2FF0F200949064B094ACD
:101A8000CDE9001008490848143000F0EDF8284668
:101A900000F0CCFA7CBD0000603D00200000024058
:101AA0006F3D00200C3001405864024000BFFEE74B
:101AB0007047F0B503460C4603F00701C1F107007B
:101AC000042801D9042001E0C1F107000646081DE1
:101AD000072801D2002000E0C81E05460120B040C2
:101AE000401E2040A8400127AF407F1E17403843CA
:101AF000F0BD01610260002343608360C360436105
:101B000070472DE9F04104460E46154600BFEFF33D
:101B100010800746012000F08CFAE0682844216814
:101B2000884209DD606928446061384600F081FA26
:101B30004FF0FF30BDE8F081E0682844E06000200D
:101B40000DE0315C63682269D1546268521C2368DD
:101B500092FBF3FC03FB1C22626000BF401CA84206
:101B6000EFDB384600F065FA0020E3E72DE9F047A7
:101B700007468846144600BFEFF3108081460120D7
:101B800000F057FAFD68484600F053FAA54200DD20
:101B90002546002605E0384600F008F808F806005B
:101BA000761CAE42F7DB2846BDE8F08770B50446E8
:101BB0004FF0FF3500BFEFF310800646012000F024
:101BC00038FAE06868B1A1682069455CA068401CEB
:101BD000216890FBF1F201FB1200A060E068401E5A
:101BE000E060304600F025FA284670BD0246D06815
:101BF000884201DD012070470020FCE70168491C94
:101C00000160D0ED010A70EE800AC0ED010AD0ED4E
:101C1000020AF4EE400AF1EE10FA03D1C168491C41
:101C2000C16001E00021C160704700000168002927
:101C300012DD90ED011AD0ED000AF8EEE00AC1EED7
:101C4000201AB0EE610ADFED070AC0ED010A00219B
:101C5000016080ED020A7047C168491CC16090EDC7
:101C6000020AF8E7000000002DE9F04780460C4624
:101C700015461E46DDE90897BBB232462946404666
:101C800003F0B2FCBBB24A462946204603F0ACFC46
:101C90000121404600F0F4FC0121204600F0F0FC58
:101CA000BDE8F0877047000086B010E04FF0FF33CA
:101CB000122201A90648006801F06AFFBDF804007D
:101CC000012803D10DF10600FFF7ACFD00BFEDE7E1
:101CD000340000201FB5204A6421204803F044F856
:101CE0001F4AC8211F4803F03FF8002208211EA008
:101CF00001F048FD20490860642005214FF400727E
:101D00001E4BCDE90032CDE9021000231C4A1DA173
:101D1000204802F01DFC1F4802F086FC00233222FE
:101D200012211DA001F0E6FE1F4908606420052174
:101D30004FF400721D4BCDE90032CDE902100023B3
:101D40001B4A1CA11F4802F003FC1E4802F06CFC59
:101D500001201D4908701FBD00300020C02900204F
:101D6000A03C00202030002073656E736F725F739B
:101D700071655F6D7100000030000020C0240020FC
:101D8000CD1D010853656E736F725F5371655F54AB
:101D900061736B00C026002073656E736F725F63A2
:101DA00071655F6D71000000340000204027002045
:101DB000A91C010853656E736F725F4371655F54B0
:101DC00061736B00402900203800002008B51DE039
:101DD0004FF0FF3269460E48006801F0FDFC009D9F
:101DE000287E80B9284602F0FFFF044604B90DE0C2
:101DF000012028766C61214628466268904702F0EF
:101E000099FCE86101E002F095FC00BFE0E700000A
:101E10003000002010B501F0FBFA02F091FC01F057
:101E200011FB10BD704700001F48006840F47000AF
:101E30001D4908601D48006820F00100401C1B4936
:101E4000086000BF19480068C0F340000028F9D0BE
:101E500016480830006820F0030014490831086073
:101E600000BF124808300068C0F381000028F8D194
:101E70000E4800680E4908400C49086000200B49D4
:101E8000083108600B48091F086000200749A0318D
:101E900008604FF41F0005490C31086006480249EC
:101EA000803908607047000088ED00E0003802408B
:101EB000FFFFF2FE023003000008010810B54FF0EA
:101EC0008040006900F0010068B101F0A1FAFFF75D
:101ED000D5F94FF08040006920F001004FF08041BB
:101EE000086101F0AFFA10BD10B51048006800F0AD
:101EF0000100C8B101F08CFA0D480068401C0C4983
:101F000008600C48007838B901200A490870084870
:101F10000068401E064908600448006820F001007F
:101F20000249086001F08EFA10BD0000100C00405C
:101F3000000000200400002000BFFEE70146481E0C
:101F4000B0F1807F01D301207047481E4FF0E0229E
:101F50005061FF20044A107000204FF0E022906191
:101F6000072010610020EFE723ED00E00248006841
:101F7000C0F30220704700000CED00E010B500280F
:101F800004DB0A07130E054A135406E00A07140E71
:101F9000034A00F00F031B1FD45410BD00E400E0FF
:101FA00018ED00E010B52DED028BB1EEC08A18EEF1
:101FB000100A20F00040C0F1FF40C00F0AD010EE20
:101FC000100A20F00040C0F1FF40C00F04BF012004
:101FD000FEF7CDFEB0EE480ABDEC028B10BD00004E
:101FE000014609B900207047C8B220B1C8B20E4AF4
:101FF000105C401CF7E701F47F4028B10A48C1F3A8
:102000000722805C0930EEE701F47F0028B1064822
:10201000C1F30742805C1130E5E7034800EB116033
:1020200000781930DFE700005066010880F310885F
:10203000704780F31088704703490868884201D0D0
:10204000012070470020FCE7380100202DE9FC5FEB
:1020500004468B4615461E46DDE90C9ADDE90E78EE
:1020600004F114004060006000BF1C346560A6608D
:10207000C4F80C90C4F810A02321D4E9030201F0A5
:1020800015FDD4E9033C63441A1F144BD4E9010144
:1020900001F096F92060A77667760020E061C4F829
:1020A0002880C4F82C8060612076E06520661C3CA6
:1020B000009023460A4A2146019004F14C0002F0A8
:1020C000D7FB00BF0748006818B1204605490968DA
:1020D000884700BF0020BDE8FC9F000015440108B0
:1020E000B14601084C0100202DE9F04704460E4698
:1020F00017469846DDF8209084F80990607A20F021
:1021000001006072E66127620020A062C4F82480AA
:10211000002506E004F1140101EBC50001F02CFAE2
:102120006D1C012DF6DBBDE8F08710B502460020DE
:1021300001460EE002F1140303EBC100D0E90043B5
:102140006360D0E9003423604060006000BF481C39
:1021500001460129EEDB10BD10B52DED0E8BB0EE62
:1021600040BAF0EE60BAB0EE419AB0EE61AA2AEE43
:102170000A0A20EE090AB0EE408A2AEE2B0AF0EE97
:1021800040AA3BEE2A0AF0EE408AF0EEE80AB2EEF0
:10219000001AB0EE480A01EE200A20EE080AB0EE5E
:1021A00040EAFFF7FFFEF0EE40CAB0EE680A00F02A
:1021B0005DF87CEEC80A60EE200AB6EE001AB0EEBA
:1021C0006A0A00EE810AB0EE40CA78EE880AB0EEE4
:1021D000600A00F04BF8B0EE40EA78EEC80AB0EEC4
:1021E000600A00F043F83EEE400AF6EE000A20EEE8
:1021F000200AB0EE40DA3AEEA80A70EE4C0AB0EED1
:102200004C0A00EE8D0AF0EE409A79EE880AB0EEA4
:10221000600A00F02BF8B0EE40EA79EEC80AB0EEA2
:10222000600A00F023F83EEE400AF6EE000A20EEC7
:10223000200AF0EE40DA89EE88EAB0EE690A00F092
:1022400015F83EEE400AF1EE490A20EE200A20EE93
:102250002DEAB0EE690A00F009F8F0EE400AB0EE9F
:102260004E0A09EE600ABDEC0E8B10BDF0EE400A7E
:10227000F5EEC00AF1EE10FA02DBB7EE000A704785
:10228000BFEE000AFBE710B52DED028B0446B0EE61
:10229000408A94ED042AF0EE421A94ED022AB0EE40
:1022A000421A94ED012AF0EE420A94ED002A32EE31
:1022B000482AB0EE420AFFF74FFFF0EE408A94ED55
:1022C000000AD4ED030A94ED011A00EE810A84EDB0
:1022D000000A94ED010AD4ED030A00EEA80A84ED89
:1022E000010ABDEC028B10BD0349096860F30711B8
:1022F000014A11607047000008380240034909682C
:1023000060F38C21014A11607047000008380240D8
:102310000349096860F34F31014A116070470000BA
:1023200008380240012807D10749096821F0300127
:102330003031054A116005E00349096821F0300198
:10234000014A116070470000A438024005282BD2D2
:10235000DFE800F0030A11182100154A126861F342
:102360000002134B1A6020E0114A126861F3104218
:102370000F4B1A6019E00E4A126861F318620C4B99
:102380001A6012E00A4A7032126861F30002084BC8
:1023900070331A6009E0064A7432126861F3000271
:1023A000034B74331A6000E000BF00BF70470000A9
:1023B000003802402DE9FE4F04464FF00009CA469E
:1023C000CB460020029001900025002600F050F935
:1023D0000090009820B1012812D002283FD112E0CD
:1023E00031480068C0F3803038B12F480068C0F32E
:1023F000003010B12D48206001E02D48206031E010
:102400002C4820602EE028489C380068C0F380509B
:10241000029025489C380068C0F3881922489C38EF
:10242000006800F00F0A20489C380068C0F30240A2
:10243000214911F800B0029810B91D48019001E03F
:102440001C4801900AFB0BFC0198A0FB0970014697
:10245000624600233846FEF70BFC206002E0144879
:10246000206000BF00BF104898380068C0F3031513
:102470001248465D2068F04060600B48983800685C
:10248000C0F382250E48465D6068F040E060064873
:1024900098380068C0F342350A48465D6068F040ED
:1024A000A060BDE8FE8F0000A0380240006CDC0296
:1024B00000127A000024F400325B0108125B01086C
:1024C000225B01082A5B010810B501460020094B78
:1024D00003EB1142D2F8002801F01F040123A340AE
:1024E0001A4001F01F040123A3409A4200D000E0EB
:1024F000012010BD0030024030B50024002500E06E
:10250000641C1120FFF7E0FF012802D0B4F5405F02
:10251000F6D31120FFF7D8FF012801D0002500E0F5
:102520000125284630BD000010B501290FD1104B00
:1025300003EB1042D2F8002800F01F040123A3404F
:102540001A430B4C04EB1043C3F800280EE0084B71
:1025500003EB1042D2F8002800F01F040123A3402F
:102560009A43034C04EB1043C3F8002810BD00004D
:102570000030024030B538B90F4C246824F4805440
:1025800004F580540C4D2C600B4C9C3C246860F38B
:102590009654094D9C3D2C602C46246861F38E14A2
:1025A0002C602C46246862F303042C602C462468BB
:1025B00063F312442C6030BDA03802401A48006812
:1025C00020F00100401C1849086000BF1648006850
:1025D000C0F340000028F9D013480830006820F00C
:1025E000030011490831086000BF0F480830006837
:1025F000C0F381000028F8D10B4800680B4908405F
:102600000949086000200849083108600848091F86
:10261000086000200449A03108604FF41F000249FF
:102620000C3108607047000000380240FFFFF2FEE6
:10263000023003000D49096860F301010B4A116083
:1026400000BF00BF00BF00BF00BF00BF00BF00BF92
:1026500000BF00BF00BF00BF00BF00BF00BF00BF82
:1026600000BF00BF00BF00BF704700000838024035
:1026700002480068C0F3810070470000083802403B
:10268000026861F30002026070470021016041604E
:1026900001814181017341738173C173017441747C
:1026A00070470000B0F1805F04D920F07041034A08
:1026B000116001E0024908607047000004660240B2
:1026C0000464024002684BF6EF731A40026002682D
:1026D0000B891A4302604B7C026863F30D3202607F
:1026E000CB7B026863F38B2202608B7B026863F30F
:1026F000092202604B7B026863F3C71202600B7B06
:10270000026863F3861202600B7C026863F3451271
:1027100002604B89426863F30F0242600A6882607C
:102720004A68C26070471AB103680B43036002E055
:1027300003688B43036070470021026822F00102A6
:1027400002600022026042608260C260014640F284
:10275000FF620A40B2F5C16F0DD2CAB2083A142323
:10276000B2FBF3F293000F229A400D4B1B681A4301
:102770000B4B1A6012E040F2FF620A40B2F5D16FD3
:102780000CD2CAB2083A1423B2FBF3F293000F2220
:102790009A40044B1B681A43024B1A6070470000B2
:1027A0000464024004660240D0F8002161F3000294
:1027B000C0F800217047026861F3060202607047AA
:1027C00000214172416001210172017070470000D7
:1027D0000149086070470000143C01400146002098
:1027E0004868234A12688243214B1A601A1D1268F6
:1027F00082431B1D1A604A7A0AB30A782AB91A1F43
:10280000126802431B1F1A6006E0194A121D126863
:102810000243174B1B1D1A60154A08321268824387
:10282000134B08331A601A1D126882431B1D1A606D
:102830000A7A2AB91A1F126802431B1F1A6016E08F
:102840000A7A012A07D10A4A0C3212680243084B5D
:102850000C331A600BE0064A083212680243044B3C
:1028600008331A601A1D126802431B1D1A60704754
:10287000003C01400349096860F3DF71014A1160BF
:1028800070470000583C024030B504460325134809
:10289000134908601348086000BF114808300068F9
:1028A000C0F340200028F8D00D480830006820F020
:1028B000100010300A49083108600B4804824FF4B8
:1028C000801000F053F8054605480830006820F0F5
:1028D0001000034908310860284630BD23016745D0
:1028E000083C0240AB89EFCD00C0FF1F02480068E2
:1028F000C0F34000704700001C3C024008480068DC
:1029000020F08000803006490860054840300068AB
:1029100020F080008030024940310860704700009C
:10292000103C02400349096860F30C31014A116010
:1029300070470000003C024003200B49096801F089
:10294000010109B100200EE007490968C1F38001C7
:1029500009B1012007E004490968C1F3001109B178
:10296000022000E0032070470C3C024000B5024604
:102970000323FFF7E1FF034603E0FFF7DDFF034614
:10298000521E0BB9002AF8D102B90423184600BD23
:102990000548064908600648086003480349403175
:1029A000086003480860704723016745043C024003
:1029B000AB89EFCD30B50324A525FFF797FF00B114
:1029C00000252148214908602148086000BF1F48B0
:1029D00008300068C0F340200028F8D01B480830B9
:1029E000006820F0200020301849083108600846AF
:1029F000006820F0400040300860C806FFF7B6FFCE
:102A0000044612480830006820F020000F490831C1
:102A10000860032C16D1A52D14D10846006820F0BB
:102A20001000103008600B4805804FF48010FFF74D
:102A30009DFF044605480830006820F01000034957
:102A400008310860204630BD23016745083C02403C
:102A5000AB89EFCD00C0FF1F816270470AB1816171
:102A600000E0816270474FF6FF71016000218171C3
:102A7000017141710121C171704770B50A46002191
:102A80001488A3B233E003F001046CB304684E0071
:102A90000325B540AC43046094794D00AC40056813
:102AA0002C430460446801258D40AC434460446875
:102AB00015798D402C43446084684E000325B54051
:102AC000AC438460D4794D00AC4085682C4384606D
:102AD000C4684E000325B540AC43C46054794D0032
:102AE000AC40C5682C43C4605B104C1CA1B2002BE9
:102AF000C9DC70BDF0B5002300244D07ED0E02FACD
:102B000005F3CD105DB1456A4E07F70E0F26BE40A6
:102B1000B5434562456A45EA030444620AE0056A32
:102B20004E07F70E0F26BE40B5430562056A45EA1B
:102B300003040462F0BD00001FB5642009214FF4B6
:102B400000620D4BCDE90032CDE9021000230B4AA3
:102B50000BA10E4801F0FCFC0C4801F065FD0023C0
:102B60001A4609A10A4801F055FA0A480068401CB3
:102B7000084908601FBD0000201C002099120108B0
:102B8000496D755F5461736B0000000020240020C4
:102B9000A02400202C00002010B502F09FFE02F0BF
:102BA000F3FD4FF47A7002F033FB02F069FD02F09E
:102BB00049FD02F055FC00231A462F492F4802F028
:102BC00013FD01212D48FFF75BFD02F075FC00238A
:102BD0001A4629492948143002F006FD01212748E8
:102BE0001430FFF74DFD02F099FC00231A462449EA
:102BF0002248503002F0F8FC012120485030FFF705
:102C00003FFD02F0BDFC00231A461D491B486430FD
:102C100002F0EAFC012119486430FFF731FD02F0AF
:102C200019FF02F0E3FD02F0E3FC02F0BBFE02F04C
:102C3000E9FE00211148FFF723FD00210F48143061
:102C4000FFF71EFD00210D485030FFF719FD002150
:102C50000A486430FFF714FD0120FFF763FE0120EE
:102C6000FFF708FEFEF7ACFE02F0F4FA012005497A
:102C70000870002010BD00000410014008640240EC
:102C80000C3001401800002010B5044600F0AAF9ED
:102C9000FFF782FF10BD00002DE9F0470B461446F8
:102CA0004FF0000C00BF2C4A1268C2F302211D46EF
:102CB00026460A46C2F10709B9F1040F02D94FF0BE
:102CC000040901E0C2F10709C84602F10409B9F19B
:102CD000070F02D24FF0000901E0A2F103094F46AD
:102CE0004FF0010909FA08F9A9F1010909EA0509F2
:102CF00009FA07F94FF0010A0AFA07FAAAF1010ADC
:102D00000AEA060A49EA0A09CC460146624600294F
:102D100004DB15072E0E114D6E5407E015072F0E1C
:102D20000D4D0C3501F00F06361FAF5500BF0146A3
:102D300000290DDB00BF00BF01F01F050122AA40E2
:102D40004D09AD0005F1E025C5F8002100BF00BF29
:102D500000BFBDE8F08700000CED00E000E400E0FB
:102D600000BF00F00702064B19684FF6FF03194039
:102D7000044B0B4343EA0221014B196000BF70472B
:102D80000CED00E00000FA0530B51A4C43682468E9
:102D90001919884215D04B889BB9174B1B6899426B
:102DA0000FD0164B1B688B4201D1144B18604B6837
:102DB0004360104B1B68C31A0E4D4C682D682C44A1
:102DC000A3600C4C836824681A19824211D053887E
:102DD0007BB90A4B1B68834201D1084B1A604368D8
:102DE0005360044B1B68D31A024D44682D682C4471
:102DF000A36030BD8C0000209000002094000020D3
:102E00002DE9F04F86B00D469C46DDE91064019631
:102E10000F9B04F04008B8F1000F02D0DFF870817A
:102E200001E0DFF87081CDF8008004F01008B8F1FF
:102E3000000F01D024F0010404F00108B8F1000FE4
:102E400002D04FF0300801E04FF02008C2460027C2
:102E500004F00208B8F1000F11D0002A02DA2D2781
:102E600052420CE004F00408B8F1000F01D02B2707
:102E700005E004F00808B8F1000F00D02027002179
:102E800042B94FF0300B8846491C0DF1080909F88A
:102E900008B01DE01AE0E146B9F10A0F08D14FF081
:102EA0000A0BB2FBFBFE0BFB1E28B2FBFBF202E09F
:102EB00002F00F08120900BFDDF8009019F808B001
:102EC0008846491C0DF1080909F808B0002AE2D12A
:102ED000B14200DD0E469B1B04F01108B8F1000F53
:102EE00010D117B1002B00DD5B1E06E0A84203D80D
:102EF0004FF0200880F80080401CB3F10008A3F1D7
:102F00000103F3DC27B1A84201D807705B1E401C07
:102F100004F01008B8F1000F0AD104E0A84201D86B
:102F200080F800A0401CB3F10008A3F10103F5DC18
:102F300006E0A84203D84FF0300880F80080401C1B
:102F4000B046761E8845F4DC08E0A84205D80DF1AD
:102F5000080818F8018080F80080401CB1F10008D2
:102F6000A1F1010104DDDDF80480B8F1000FECD11E
:102F700006E0A84203D84FF0200880F80080401CEB
:102F8000B3F10008A3F10103F3DC06B0BDE8F08F54
:102F900061670108506701081CB514200A214FF42D
:102FA00080630022CDE90010044905A001F003FA76
:102FB0000446204601F038FB1CBD0000892C0108A6
:102FC0006D61696E0000000010B5044C02E02068DD
:102FD0008047241D02488442F9D310BD7867010858
:102FE0007C67010810B5044C02E020688047241D6E
:102FF00002488442F9D310BD7C670108806701084C
:1030000010B5FDF79BFD044604480088401C00B243
:10301000024908802046FDF795FD10BD28010020DB
:1030200010B5FDF78BFD04460B480088401E00B22A
:10303000094908800846B0F90000002807DC002094
:1030400008802046FDF77EFD00F03EFF02E02046AE
:10305000FDF778FD10BD00002801002070B5054681
:1030600005B970BD00BF2248006818B12846204944
:103070000968884700BF1F480068854203D31E487F
:103080000068854200D3ECE7A5F110044FF0FF3152
:103090001A4800F0FBFF608818B12088B0F5F55F92
:1030A00008D017A000F04AFA2388628821461BA0A6
:1030B00000F044FA002060804FF4F550208023484F
:1030C0000068844201D2214804600A4960680968A6
:1030D000611A401A1E490968081A1D4908602046ED
:1030E000FFF752FE054800F0A9FF00BFB9E7000056
:1030F000880000208C00002090000020903F0020DD
:10310000746F20667265652061206261642064616D
:10311000746120626C6F636B3A0A00006D656D3AF2
:10312000203078253038782C207573656420666CE3
:1031300061673A2025642C206D6167696320636FA5
:1031400064653A203078253034780A0094000020F5
:103150009C00002000487047B040002000487047A5
:10316000B058002070B5FEF75DFE0A4800684FF4C5
:103170007A71B0FBF1F42046FEF7E0FEFFF724FF82
:10318000FFF7ECFF0446FFF7E5FF0546214601F097
:1031900049F870BD1C000020704700002DE9F04187
:1031A000054605F128062C1D3148006840B130461F
:1031B0002F490968884707460FB9BDE8F08100BF6D
:1031C0002CA0216C00F0BAF92EA0616A00F0B6F9CB
:1031D00030A0A16A00F0B2F932A0E16A00F0AEF9C5
:1031E00034A0216B00F0AAF936A0616800F0A6F9BE
:1031F00038A0A16800F0A2F93AA0E16800F09EF9B9
:103200003CA0216900F09AF93EA0616900F096F9AE
:1032100040A0A16900F092F942A0E16900F08EF9A6
:1032200044A0216A00F08AF946A0616B00F086F99B
:1032300048A0A16B00F082F94AA0E16B00F07EF992
:10324000287800F0040038B101F0C6F90746394685
:1032500048A000F073F902E04EA000F06FF9287862
:1032600000F0100010B952A000F068F900BFFEE7AE
:10327000700000207073723A203078253038780A58
:10328000000000007230303A203078253038780A5B
:10329000000000007230313A203078253038780A4A
:1032A000000000007230323A203078253038780A39
:1032B000000000007230333A203078253038780A28
:1032C000000000007230343A203078253038780A17
:1032D000000000007230353A203078253038780A06
:1032E000000000007230363A203078253038780AF5
:1032F000000000007230373A203078253038780AE4
:10330000000000007230383A203078253038780AD2
:10331000000000007230393A203078253038780AC1
:10332000000000007231303A203078253038780AB9
:10333000000000007231313A203078253038780AA8
:10334000000000007231323A203078253038780A97
:1033500000000000206C723A203078253038780A5E
:10336000000000002070633A203078253038780A59
:103370000000000068617264206661756C74206FE3
:103380006E207468726561643A2025730D0A0D0A17
:103390000000000068617264206661756C74206FC3
:1033A0006E2068616E646C65720D0A0D0A00000083
:1033B00046505520616374697665210D0A0000004E
:1033C000F0B504460D461646301D20F0070044387F
:1033D0000146002203E00D4F41F82270521C112AD1
:1033E000F9D34D624FF0000CC1F828C0C1F82CC0D1
:1033F000C1F830C0C1F834C08B63CC634FF0807C1F
:10340000C1F840C000270F60F0BD0000EFBEADDE88
:1034100010B5FDF793FB044608480078401C0749A7
:10342000087000BF0648006810B105480068804772
:1034300000BF2046FDF786FB10BD00008000002085
:103440007800002010B5FDF779FB044608480078A5
:10345000401E0749087000BF0648006810B10548C3
:103460000068804700BF2046FDF76CFB10BD0000E0
:10347000800000207C00002070B504462068A0F188
:103480001405284601F07EF8002070BD70B5054691
:103490000EE0FDF753FB06462868A0F114044FF038
:1034A000FF302063204601F06DF83046FDF74AFBFF
:1034B000284600F080F80028EBD0002070BD2DE9F0
:1034C000F04105460C469046204601F0C3F8B8F19D
:1034D000000F03D0B8F1010F23D105E004F114016E
:1034E000284600F061F81CE02E680FE0A6F11407F2
:1034F00094F8350097F83510884206DA04F1140183
:1035000007F1140000F050F802E03668AE42EDD149
:1035100000BFAE4204D104F11401284600F044F883
:1035200000BF00BF0020BDE8F08110B5044604F1E3
:10353000140000F01BF8002010BD00000FB438B5D7
:1035400005A800907F210848009B049A01F052FAD8
:1035500004467F2C00D97F240348FFF71DFE00207E
:10356000009038BC5DF814FB103F00204060006004
:1035700070474060006070474060006070470268BC
:10358000516002680A6001604860704702685160DB
:1035900002680A6001604860704702685160026812
:1035A0000A600160486070474268116042684A6082
:1035B00041600860704701460868884201D10120D7
:1035C00070470020FCE701460868884201D10120CD
:1035D00070470020FCE7D0E900215160D0E90012DB
:1035E0001160406000607047D0E900215160D0E96F
:1035F0000012116040600060704700002DE9F0414A
:10360000054615B90020BDE8F081E81D20F007054A
:1036100054480068854201D90020F4E7102D00D2FB
:1036200010254FF0FF31504800F030FD4F48006842
:103630004F490968461A8AE04D4800688419608835
:1036400000287CD106F110006168081AA8427AD3DC
:1036500006F110006168091A05F12000814230D39B
:1036600006F1100000EB05084148006800EB080770
:103670004FF4F55038800020788060687860BE6034
:10368000C4F80480012060803648796800681030F2
:10369000814205D03649786809680844C0F8088036
:1036A0003448016805F11000084432490860324886
:1036B00000680968884219D22E4800682E490860BF
:1036C00014E0012060802A4960680968611A401A84
:1036D000284909680844274908602748006809689C
:1036E000884203D223480068234908604FF4F5500C
:1036F00020801E480068844212D107E01B48006801
:1037000040681B4909680844184908601748006860
:10371000408828B115480068184909688842EDD1E9
:10372000114800F08BFC00BF1548006828B12946FD
:1037300004F11000124A1268904700BF00E002E056
:1037400004F110005FE70A48006830444668054805
:103750000068401BB0423FF66FAF034800F06EFCBC
:10376000002050E798000020903F002094000020A7
:103770008C0000209C000020A00000209000002071
:10378000840000202DE9F04105460E4617462946E3
:10379000042000F0E3FA044614B92046BDE8F081A5
:1037A00067722046FFF7C1FE2684218C8800FFF750
:1037B00025FFE061E06920B9204600F005FB00200C
:1037C000ECE700206084A084E08404F12800FFF787
:1037D000CDFE2046E2E700002DE9F74304460E4601
:1037E000002700F0F9FE054600BF4648006818B102
:1037F000204644490968884700BFFDF79FF9804685
:10380000608C40B9029830B94046FDF79BF96FF0E3
:103810000100BDE8FE833AE000202863029830B939
:103820004046FDF78FF96FF001002863F1E7627AF7
:10383000294604F11400FFF742FE029800280CDD2F
:1038400000F078FF074602AA002105F14C0000F0C5
:10385000E3FF05F14C0001F023F84046FDF772F953
:1038600000F032FB286B08B1286BD2E7FDF766F950
:103870008046029800280ADD00F05CFFC71B029812
:10388000C01B02900298002801DA00200290608C90
:103890000028C1D0E18CE06950F821003060E08C54
:1038A000401CE084E08C218C884201DB0020E08415
:1038B000608C401E608404F12800FFF77CFE98B9FC
:1038C00004F12800FFF7D8FD4046FDF73BF900BFA3
:1038D0000D48006818B120460B490968884700BFA9
:1038E00000F0F2FA002094E74046FDF72BF900BF04
:1038F0000548006818B1204603490968884700BF99
:10390000002086E71C0100202001002070B504463D
:103910000D4600222946204600F002F870BD000046
:103920002DE9F74304460E46002700F055FE0546F4
:1039300000BF3E48006818B120463C4909688847E6
:1039400000BFFDF7FBF88046608C218C884208D1CF
:10395000029830B94046FDF7F5F86FF00200BDE877
:10396000FE8339E000202863029828B94046FDF71D
:10397000E9F86FF00200F2E7627A294604F12800C4
:10398000FFF79DFD029800280CDD00F0D3FE0746EE
:1039900002AA002105F14C0000F03EFF05F14C00A9
:1039A00000F07EFF4046FDF7CDF800F08DFA286B61
:1039B00008B1286BD3E7FDF7C1F8804602980028CC
:1039C0000ADD00F0B7FEC71B0298C01B02900298E8
:1039D000002801DA00200290608C218C8842C1D03E
:1039E000A18CE06940F82160A08C401CA084A08CD0
:1039F000218C884201DB0020A084608C401C608404
:103A000004F11400FFF7D7FD50B904F11400FFF7DB
:103A100033FD4046FDF796F800F056FA00209EE789
:103A20004046FDF78FF8002099E7000024010020B0
:103A30002DE9F0410F46164604463D463346102B0D
:103A400028D305F0030C04F003084CEA080CBCF181
:103A5000000F1FD121462A4610E052F804CB41F84E
:103A600004CB52F804CB41F804CB52F804CB41F814
:103A700004CB52F804CB41F804CB103B102BECD212
:103A800004E052F804CB41F804CB1B1F042BF8D2FE
:103A90000C46154603E015F801CB04F801CBB3F151
:103AA000000CA3F10103F6D1BDE8F081F0B50C469E
:103AB0000546E6B2042A15D300F0030797B901467C
:103AC00046EA062343EA034304E008C108C108C1EB
:103AD00008C1103A102AF8D201E008C1121F042AC6
:103AE000FBD20D4601E005F8016B171EA2F10102A1
:103AF000F9D1F0BD2DE9F0470746884691469A4630
:103B00003946052000F02AF9044614B92046BDE8DC
:103B1000F08784F809A02046FFF707FD08F10700A9
:103B200020F007002084A4F82290218C091D628CCB
:103B300001FB02F0FFF762FDE061E06920B9204679
:103B400000F018F80020E2E70020A062E0622063A5
:103B5000002508E0208C001DE16905FB0016206BA4
:103B6000306026636D1C608CA842F3DC0020A084CA
:103B70002046CCE710B5044604F11400FFF786FC9C
:103B8000E069FFF76BFA204600F01EF9002010BD37
:103B90002DE9FF4704460F4690464FF0000900F01C
:103BA0001BFD054600BF4248006818B12046404949
:103BB0000968884700BFFCF7C1FF8246A08C48B95E
:103BC000039838B95046FCF7BDFF6FF0010004B010
:103BD000BDE8F0873CE000202863039830B95046E8
:103BE000FCF7B0FF6FF001002863F0E7627A294626
:103BF00004F11400FFF763FC039800280CDD00F0CB
:103C000099FD814603AA002105F14C0000F004FE55
:103C100005F14C0000F044FE5046FCF793FF00F025
:103C200053F9286B08B1286BD1E7FCF787FF824670
:103C3000039800280CDD00F07DFDA0EB0909039836
:103C4000A0EB090003900398002801DA00200390FC
:103C5000A08C0028BFD0A66A3068A062E06AB0429B
:103C600001D10020E062A08C401EA0845046FCF7E9
:103C700069FF208C404501D2208C00E0404602467E
:103C8000311D3846FFF7D4FEFCF758FF8246206B03
:103C9000306026635046FCF755FF00BF05480068BA
:103CA00018B1204603490968884700BF00208EE705
:103CB0001C010020200100202DE9F04104460F46A0
:103CC0001646208CB04203D24FF0FF30BDE8F081A1
:103CD00000BF2148006818B120461F49096888477D
:103CE00000BFFCF72BFF8046256B2DB94046FCF743
:103CF00029FF6FF00200E9E7286820634046FCF7DF
:103D000021FF0020286032463946281DFFF790FE2B
:103D1000FCF714FF8046E06A08B1E06A0560E562DE
:103D2000A06A00B9A562A08C401CA08404F1140014
:103D3000FFF741FC50B904F11400FFF79DFB40462A
:103D4000FCF700FF00F0C0F80020BFE74046FCF79A
:103D5000F9FE0020BAE70000240100202DE9F0411F
:103D600006460F46304600F067F80546E868FFF75C
:103D700045FC044614B90020BDE8F081002120462E
:103D8000EA68FFF793FE2672002060720822394627
:103D9000204600F02CFA00BF0A48006818B12046FF
:103DA00008490968884700BFFCF7C8FE804604F14F
:103DB0000C01281DFFF7E3FB4046FCF7C3FE20463D
:103DC000DAE700001401002070B5044600BF0C487B
:103DD000006818B120460A490968884700BF0020DA
:103DE0002072FCF7ABFE054604F10C00FFF7F3FB75
:103DF0002846FCF7A7FE2046FFF730F970BD00000B
:103E00001801002070B5044600BF0A48006818B1C8
:103E1000204608490968884700BF00202072FCF747
:103E20008DFE054604F10C00FFF7D5FB2846FCF794
:103E300089FE70BD18010020024600210AE00748F3
:103E400000EB01100078904203D1044800EB011010
:103E50007047491C0729F2DB0020F9E7A400002085
:103E60002DE9F04104460D4616462846FFF7E4FFCB
:103E7000074645F08000207208223146204600F0B7
:103E8000B6F900BF0A48006818B120460849096819
:103E9000884700BFFCF752FE804604F10C01381D34
:103EA000FFF76DFB4046FCF74DFEBDE8F0810000DA
:103EB000140100200146087A00F0800008B10120BA
:103EC00070470020FCE700002DE9F041FCF736FECA
:103ED000074620480088002837D11F480068FEF7B1
:103EE0007FF8461E1D4850F83600A0F114041C4807
:103EF0000068844225D01B490E701948056804608B
:103F000000BF1948006820B121462846164A1268A9
:103F1000904700BF1548007848B904F11C0105F12D
:103F20001C00FCF712FE3846FCF70CFE0CE004F116
:103F30001C0105F11C00FCF708FE3846FCF702FEE8
:103F400002E03846FCF7FEFD02E03846FCF7FAFDD9
:103F5000BDE8F0812801002034010020B03F00209E
:103F60002C010020300100204001002080000020B2
:103F700070B50446FCF7E2FD054614F8340F20F056
:103F80000F0040F0010020706278343C0A4B03EBD4
:103F9000C20004F114014268116042684A60416045
:103FA000086000BF0549A06B096808430349086021
:103FB0002846FCF7C7FD70BDB03F0020340100204B
:103FC00070B50446FCF7BAFD054604F11400D0E9CB
:103FD00000215160D0E9001211604060006000BF14
:103FE00094F83510094A02EBC1000168814201D101
:103FF000012100E0002129B10548A16B0068884338
:10400000034908602846FCF79DFD70BDB03F0020C5
:10401000340100202DE9F04104460D4616461F46A6
:104020002A4601212046FFF71BFF2046FFF77DFAB5
:10403000A68367720020BDE8F081000070B50446D9
:1040400000BF1148006818B120460F490968884729
:1040500000BF0025FCF772FD064604F11400FFF7CF
:10406000AAFA28B904F11400FFF706FA012502E0C4
:10407000A08B401CA0833046FCF764FD012D01D1CC
:10408000FFF722FF002070BD2401002073B5054614
:1040900000BF2448006818B12846224909688847AB
:1040A00000BFFCF74BFD0646A88B002806DDA88B59
:1040B000401EA8833046FCF745FD28E0019828B94A
:1040C0003046FCF73FFD6FF001007CBD00F084FA44
:1040D0000446002020636A7A214605F11400FFF7A8
:1040E000EEF90198002809DD01AA002104F14C0035
:1040F00000F092FB04F14C0000F0D2FB3046FCF7DC
:1041000021FDFFF7E1FE206B08B1206BDDE700BF6A
:104110000548006818B1284603490968884700BF68
:104120000020D2E71C0100202001002008B509A0D2
:10413000FFF704FA0AA0FFF701FA12A002230122F6
:104140000321009012A0FFF7F9F919A0FFF7F6F983
:1041500008BD00000A205C207C202F0A000000001F
:104160002D205254202D202020202054687265617B
:1041700064204F7065726174696E6720537973743F
:10418000656D0A00417567203130203230323600CB
:10419000202F207C205C202020202025642E2564D8
:1041A0002E2564206275696C642025730A00000066
:1041B0002032303036202D203230313920436F709C
:1041C0007972696768742062792072742D746872DC
:1041D000656164207465616D0A00000001460A464D
:1041E00000E0521C10780028FBD1501A704770B5BF
:1041F0000346A2B118460C4600BF14F8016B00F844
:10420000016B3EB902E0002500F8015B551E2A1E35
:10421000F9D102E0551E2A1EEFD100BF00BF18469B
:1042200070BD00002DE9F04105460E46E81D20F066
:10423000070726F00708B8F1200F09D9A8F12000D8
:10424000B84205D3A8EB070020381E49086006E0F5
:10425000324629461CA0FFF771F9BDE8F0812948D4
:10426000076004684FF4F55020801648006810304D
:1042700060600020A060608022496068096808448E
:10428000214908604FF4F5500968088001201E4953
:10429000096848800B48006810301B49096848606D
:1042A0000848006810301849096888600023012216
:1042B00016A11848FFF7AEFE1248006816490860BC
:1042C00000BFCAE7980000206D656D20696E6974B3
:1042D0002C206572726F7220626567696E2061645E
:1042E000647265737320307825782C20616E6420A9
:1042F000656E64206164647265737320307825781C
:104300000A0000008C0000209000002068656170A9
:1043100000000000903F00209400002010B5002015
:104320000B490880002405E00A4901EBC400FFF7AF
:1043300020F9641C202CF7DB1F200749087000209F
:1043400006490860064908600648FFF712F910BDE3
:1043500028010020B03F0020300100202C01002067
:10436000340100203801002070B508480068FDF7CE
:1043700037FE451E064850F83500A0F114040548E4
:10438000046004F11C00FCF726FC70BD3401002021
:10439000B03F00202C01002010B5002405E00449A6
:1043A00001EBC400FFF7E8F8641C002CF7D010BD47
:1043B0005001002070472DE9FF5F06460F469046EA
:1043C0001D46DDE90EAB31460020FFF7C7FC8146F4
:1043D000B9F1000F03D1002004B0BDE8F09F2846DA
:1043E000FFF70CF9044624B94846FFF7EDFC00201E
:1043F000F2E743463A46314648468DE8300CFDF731
:1044000025FE4846E8E710B50446204600F0EAF8E5
:1044100010BD000070B512480468FCF78FFB05461C
:104420002046FFF7CDFD042084F8340004F14C0051
:1044300000F00EFA2046FFF73DFD012805D1A06FE0
:1044400018B92046FFF7DEFC04E004F1140105482A
:10445000FFF79CF82846FCF775FBFFF735FD70BDAC
:104460002C010020380100200FE0002408E007485C
:1044700050F8240018B1054951F824008047641C05
:10448000042CF4D300F004F800BFEEE7003F002056
:1044900070B537E0FCF752FB0546FDF7CDFD18B3CC
:1044A0001B480068A0F1140404F11400D0E90021B5
:1044B0005160D0E9001211604060006000BFFEF75B
:1044C0009FFDA06F10B12046A16F88472046FFF7DF
:1044D000F1FC012805D1FEF7A3FD2846FCF732FBCD
:1044E00070BDFEF79DFD03E02846FCF72BFBF7E7C8
:1044F0002846FCF727FBA06AFEF7B0FD2046FFF731
:1045000063FC00BFFDF798FD0028C3D100BFE7E7BB
:10451000380100201FB520201F21C200074BCDE924
:104520000032CDE902100023054A06A1074800F039
:104530000FF8064800F078F81FBD0000003E00208C
:10454000694401087469646C65000000803D0020C6
:104550002DE9FF5F05460C4616461F46DDE910AB08
:10456000DDE90E89224600212846FFF779FC3B460B
:104570003246214628468DE8000FFDF767FD04B05E
:10458000BDE8F09F70B5044694F8340000F00F00C9
:10459000022802D04FF0FF3070BDFCF7CFFA05467D
:1045A00004F11400FFF720F804F14C0000F0FEF9CC
:1045B0002846FCF7C7FA2046FFF7DAFC00BF05489B
:1045C000006818B1204603490968884700BF0020E9
:1045D000E2E7000048010020014800687047000041
:1045E0002C01002031B5FCF7A9FA05460D480468F6
:1045F000204600F02FF86A46002104F14C0000F03C
:104600000BF904F14C0000F04BF92846FCF79AFA3C
:10461000FFF75AFC206B801C08B9002020630020A3
:1046200038BD00002C01002010B504463434A078B9
:1046300060706178012088406060022004F83409CD
:104640002046FFF79FFFFFF7C7FF08B1FFF73CFCCD
:10465000002010BD70B5044694F8340000F00F003F
:10466000012802D04FF0FF3070BDFCF767FA054615
:1046700094F8340020F00F0040F0020084F8340079
:104680002046FFF79DFC04F14C0000F08FF928460E
:10469000FCF758FA00BF0548006818B120460349E6
:1046A0000968884700BF0020DEE7000044010020C1
:1046B00070B5044625466FF00100286305F114002B
:1046C000FEF792FF2846FFF753FCFFF7FDFB70BD96
:1046D00070B5FCF733FA05461448046894F83400C2
:1046E00000F00F0001281CD1D4E90510814218D038
:1046F00004F11400FEF778FF94F835200C4B03EB1F
:10470000C20004F114014268116042684A604160CD
:10471000086000BF2846FCF715FAFFF7D5FB00201C
:1047200070BD2846FCF70EFA0020F9E72C010020A6
:10473000B03F00200148006870470000740000206E
:1047400010B50A480068401C08490860FFF744FF9C
:104750000446A06C401EA064A06C18B9606CA064F4
:10476000FFF7B6FF00F004F810BD00007400002051
:1047700070B5FFF7DFFF0546FCF7E0F906463AE0C3
:1047800022480068A0F11404A06A281A6FF00041C2
:1047900088422FD200BF1E48006818B120461C492D
:1047A0000968884700BF2046FDF7BFFCD4E9071021
:1047B0008847FFF7BFFF054600BF1648006818B1DD
:1047C000204614490968884700BF607A00F002005B
:1047D00058B1607A00F0010038B1607A20F0010031
:1047E0006072204600F05CF805E0607A20F001007D
:1047F000607200E004E00548FEF7E5FE0028BFD047
:1048000000BF3046FCF79EF970BD0000500100204B
:10481000580100205C010020034649B1012904D061
:10482000022908D0032910D10AE0586A10600CE070
:104830001068586209E0587A20F00200587204E0CB
:10484000587A40F00200587200BF00BF0020704745
:1048500070B50446FCF772F905462046FDF765FC85
:104860002846FCF76FF92046FFF7CCFA002070BD10
:104870002DE9F84307460C4615461E46DDE9088932
:10488000224609213846FFF7EBFA434632462946CD
:104890003846CDF80090FDF727FCBDE8F88300000E
:1048A0002DE9F8430546FCF749F980462846FDF70F
:1048B0003CFC687A20F0010068724046FCF742F93F
:1048C00000BF3748006818B128463549096888474D
:1048D00000BFFFF72FFF696A0844A862FCF72EF9B2
:1048E0008046304E009600242AE019E05DF824202E
:1048F0001168142202EBC402881A826AAB6AD21AC7
:1049000000D108E0826AAB6AD21A6FF000439A4283
:1049100000D20CE000BF5DF8240000684DF82400D0
:104920005DF8240006EBC40149688842DED100BF6F
:104930002CB15DF824000830611C4DF82100641C86
:10494000002CD2D018480068401C1749086008465F
:10495000076805F114010098FEF71FFE022412E01B
:1049600007F0030060B9C4F1010305F1140202EB82
:10497000C301C4F101025DF82200FEF70EFE00E063
:1049800003E0BF08641C012CEAD900BF687A40F03C
:10499000010068724046FCF7D5F80020BDE8F883B6
:1049A00020010020500100206001002070B5044665
:1049B000607A00F0010010B94FF0FF3070BD00BF09
:1049C0000B48006818B1204609490968884700BFAC
:1049D000FCF7B4F805462046FDF7A7FB2846FCF790
:1049E000B1F8607A20F0010060720020E6E7000074
:1049F000240100202DE9FF4F89B0804644460A98E3
:104A00004044461E464504D24FF0FF36A6EB080050
:104A10000A906FE10B980078252806D0B44202D89E
:104A20000B9800782070641C61E1002526E00B984B
:104A3000401C0B900B9800782D2802D145F01005F2
:104A40001CE00B9800782B2802D145F0040515E0F6
:104A50000B980078202802D145F008050EE00B984D
:104A60000078232802D145F0200507E00B98007854
:104A7000302802D145F0010500E000E0D7E700BF93
:104A80004FF0FF370B98007830380A2804D20BA873
:104A900000F056FA07460EE00B9800782A280AD153
:104AA0000B98401C0B900C9880C80C90002F02DAD9
:104AB0007F4245F010054FF0FF390B9800782E2803
:104AC0001CD10B98401C0B900B98007830380A28AA
:104AD00004D20BA800F034FA81460AE00B98007863
:104AE0002A2806D10B98401C0B900C9850F8049B78
:104AF0000C90B9F1000F01DA4FF00009002004908A
:104B00000B980078682803D00B9800786C2805D1A2
:104B10000B98007804900B98401C0B900A2005908D
:104B20000B9800786F2875D00CDC632813D004DC58
:104B3000252870D058286FD18DE064286DD0692861
:104B4000F9D18FE070286AD0732825D0752878D0E5
:104B50007828F0D182E005F0100040B904E0B442BA
:104B600001D820202070641C781E071EF7DC0C98EA
:104B700010F8041B0C90C8B20790B44201D80798F3
:104B80002070641C04E0B44201D820202070641C12
:104B9000781E071EF7DCAAE00C98006806900C98B7
:104BA000001D0C90069808B95AA006900698FFF7C9
:104BB00015FB8346B9F1000F02DDCB4500DDCB4686
:104BC00005F0100048B904E0B44201D8202020705C
:104BD000641C38467F1E5845F6DC002008900BE028
:104BE000B44202D8069800782070641C0698401CD5
:104BF00006900898401C089008985845F0DB04E09F
:104C0000B44201D820202070641C38467F1E5845CD
:104C1000F6DC6CE01CE015E028E022E0FFE7781C01
:104C200010B9082745F00105CDE9007902950C98E7
:104C300004C8102331460C902046FEF7E1F80446E4
:104C400055E012E0B44201D825202070641C4EE0EB
:104C5000082005901DE045F0400500BF102005909C
:104C600017E000BF45F0020500BF12E0B44201D8D2
:104C700025202070641C0B98007830B1B44202D813
:104C80000B9800782070641C02E00B98401E0B907B
:104C90002DE000BF04986C2807D10C9850F804ABA5
:104CA0000C9005F00200B8B116E0049868280BD10A
:104CB0000C9830F8041B1FFA81FA0C9005F00200E2
:104CC00050B10FFA8AFA07E00C9850F804AB0C9038
:104CD00005F0020000B100BFCDE90079029552460F
:104CE00031462046059BFEF78BF8044600BF0B9823
:104CF000401C0B900B98007800287FF48BAEB442D8
:104D000001D8207001E000203070A4EB08000DB045
:104D1000BDE8F08F284E554C4C290000002070470C
:104D200000207047002070470020704770B505468E
:104D30000DB9002070BDFBF701FF0646286820B9B9
:104D40003046FBF7FFFE0020F4E72C68E06828609F
:104D50000020E0600120207200206060608030460A
:104D6000FBF7F0FE2046E5E730B503460020106073
:104D700000BF18E0002403EB00156C8003EB001566
:104D8000EC6003EB00152C7203EB00156C6018B996
:104D900003EB0014146005E003EB0015441E03EB65
:104DA0000414E560401C8842E4DB00201061D06000
:104DB00090605060107630BD2DE9F04105460C46FC
:104DC00005B10CB9BDE8F081FBF7B8FE074600203D
:104DD0002072606060802E682C602868C66038464B
:104DE000FBF7B0FE00BFEDE770B50446FBF7A6FE8B
:104DF000064624B93046FBF7A5FE002070BD60686A
:104E000020B93046FBF79EFE0020F7E76568E868AA
:104E10006060606808B90020A0600020E86004209D
:104E200028723046FBF78EFE2846E7E770B5054648
:104E30000C4605B104B970BDFBF780FE06460020A4
:104E4000E06002202072A86810B96C60AC6002E0DB
:104E5000A868C460AC603046FBF774FE00BFEAE7A8
:104E600010B5FBF76BFEFEF77DF9FFF75FF9FFF773
:104E700093FAFFF753FAFEF78FF8FFF79BFAFFF765
:104E800049FBFFF771FA002010BD000010B50022A9
:104E90008B071C0F0F2303FA04F28B1033B1012B85
:104EA00013D0022B23D0032B45D132E0234B1B68B8
:104EB0009343224C236023461B688C07240F00FA7F
:104EC00004F423431D4C236036E01C4B1B1D1B6860
:104ED00093431A4C241D236023461B688C07240F20
:104EE00000FA04F42343154C241D236024E0134BE3
:104EF00008331B689343114C0834236023461B6816
:104F00008C07240F00FA04F423430C4C083423606C
:104F100012E00A4B0C331B689343084C0C3423609B
:104F200023461B688C07240F00FA04F42343034C28
:104F30000C34236000E000BF00BF10BD0838014002
:104F40000146002009E00B685A1C0A601A7800EB41
:104F5000800302EB4302A2F130000A681278303A73
:104F60000A2AF0D370470021017041708170C1702E
:104F70000171417181710121C1717047026861F352
:104F8000861202607047426861F300024260704717
:104F9000426861F3410242607047C26922F40062D4
:104FA000C2610A7862B9026822F4004202600268B3
:104FB00022F480420260026822F48062026036E0DD
:104FC0000A78012A0ED1026822F4004202600268C7
:104FD00022F480420260026822F4806202F580625C
:104FE000026024E00A78022A0ED1026822F400420C
:104FF00002F500420260026822F480420260026808
:1050000022F48062026012E00A78032A0FD102685B
:1050100022F4004202F500420260026822F480425B
:1050200002F580420260026822F480620260CB795D
:10503000026863F3492202604A78012A09D1CA79D9
:10504000012A06D1026822F4807202F580720260A1
:1050500003E0026822F4807202604B78026863F316
:10506000820202608A78072A0DDC426822F400720C
:105070004260426822F4807242608B78026863F377
:10508000C502026020E08A780A2A0ED1426822F422
:10509000007202F500724260426822F4807242603F
:1050A000026822F0380202600EE0426822F40072C8
:1050B0004260426822F4807202F5807242608A780F
:1050C000036862F3C5030360CB78026863F3C71219
:1050D00002600B79026863F3CB2202604B790268AD
:1050E00063F3410202608B79026863F3000202609D
:1050F000704700002DE9FC5F002400250026A14632
:10510000A246A34600200190FDF7B2FA0090009855
:1051100020B1012814D0022841D115E02B480068A5
:10512000C0F3803040B129480068C0F3003018B1A6
:1051300027482849086002E027482649086032E0ED
:105140002648244908602EE020489C380068C0F3B7
:1051500080591E489C380068C0F388141B489C384E
:10516000006800F00F0519489C380068C0F3024041
:105170001B490E5CB9F1000F02D1DFF85CA001E021
:10518000DFF858A005FB06FCAAFB04700146624646
:1051900000233846FBF76CFD0E49086003E00E481B
:1051A0000C49086000BF00BF084898380068C0F389
:1051B000031B0C4810F80B00019006480068019989
:1051C000C84004490860BDE8FC9F0000A0380240C8
:1051D000006CDC021C00002000127A000024F400A5
:1051E000485B0108385B0108042808D14FF0E02132
:1051F000096941F004014FF0E022116107E04FF02E
:10520000E021096921F004014FF0E02211617047AB
:105210007FB50446002600256846FDF7CBF80198C7
:10522000C6080020FFF7E0FFB6FBF4F5681EB0F1FA
:10523000807F02D3002004B070BD681E4FF0E021D3
:105240004861002088610846006940F00300086159
:105250000120F0E710B572B6FDF76EFCFCF73AFDE1
:10526000FBF7C4FE62B610BDB0F1804F02D0044A15
:10527000904203D1026861F38A2202607047000005
:10528000000C0040C1628262436923F001035B1C91
:1052900043617047026861F3092202607047026847
:1052A00061F3061202607047026861F30002026057
:1052B0007047026861F3C71202607047426861F389
:1052C000061242607047826861F3C71282607047BD
:1052D000426961F3861242617047426961F3C71205
:1052E00042617047C26861F34D32C260704741B994
:1052F000426922F480724261426922F40072426182
:1053000027E001290AD1426922F4807202F58072F5
:105310004261426922F4007242611AE002290AD114
:10532000426922F480724261426922F4007202F5FD
:10533000007242610DE003290BD1426922F48072B0
:1053400002F580724261426922F4007202F5007235
:10535000426170472DE9FF47044688461646994644
:105360006846FDF727F82448844202D02348844247
:1053700001D1029F00E0039F07EB87004000B0FBD4
:10538000F8F50A20B5FBF0F100FB1150052803D217
:105390000A20B5FBF0F503E00A20B5FBF0F0451C50
:1053A000A06865F30F00A06056B9E06820F0805057
:1053B00000F18050E060E06820F48050E06014E08C
:1053C000012E08D1E06820F08050E060E06820F411
:1053D0008050E06009E0E06820F08050E060E06824
:1053E00020F4805000F58050E060206969F30D30B2
:1053F0002061BDE8FF87000000100140001401405B
:1054000041B9C26822F40072C260C26822F48062AC
:10541000C2601AE001290AD1C26822F40072C26097
:10542000C26822F4806202F58062C2600DE0022947
:105430000BD1C26822F4007202F50072C260C26829
:1054400022F4806202F58062C2607047C26861F334
:105450008202C2607047C26861F3C302C2607047D3
:1054600000B585B01348FDF767F96846FDF70DF9FB
:105470000020ADF808008DF80F0001208DF80D0018
:1054800000208DF80E008DF80C008DF811008DF8BD
:10549000100069460748FDF715F90121054808384D
:1054A000FDF782F918210348FC30FDF784F905B0B7
:1054B00000BD00000864024000B585B01648FDF745
:1054C0003BF96846FDF7E1F81020ADF80800002030
:1054D0008DF80F0001208DF80D0000208DF80E00D2
:1054E0008DF80C008DF811008DF8100069460A48FF
:1054F000FDF7E8F8012108481C38FDF755F9192196
:105500000548EC30FDF757F9012202210248FDF76A
:105510000AF905B000BD00001C64024000B585B06A
:105520001648FDF709F96846FDF7AFF80020ADF819
:1055300008008DF80F0001208DF80D0000208DF877
:105540000E008DF80C0003208DF8110000208DF85E
:10555000100069460948FDF7B5F801210748583899
:10556000FDF722F90A210548BC30FDF724F9012294
:1055700002210248FDF7D7F805B000BD586402408B
:1055800000B585B01748FDF7D7F86846FDF77DF8F8
:105590001020ADF8080000208DF80F0001208DF8D4
:1055A0000D0000208DF80E008DF80C0003208DF802
:1055B000110000208DF8100069460A48FDF782F8B6
:1055C000012108486C38FDF7EFF80B210548AC3095
:1055D000FDF7F1F8012202210248FDF7A4F805B019
:1055E00000BD00006C64024043608160C26070478F
:1055F00000B585B003A8FDF736FA00208DF812003B
:105600004020039000208DF8110003A90C48FDF7FD
:1056100034FA06210020FFF739FC6846FDF7D0F880
:1056200001208DF8090000208DF800004020019035
:1056300000208DF808006846FDF7D0F805B000BDE1
:10564000000002401CB56846FDF70DFA4FF400411A
:105650000A48FDF701FA02208DF8070000208DF8B6
:10566000040001208DF80600C003009000208DF892
:10567000050069460148FDF700FA1CBD0000024024
:1056800070B50320FDF76CFBFCF770FC05460022AB
:105690001146FCF70EFA044621466FF00B00FCF7AA
:1056A0006DFCFCF763FC054600221146FCF701FA8D
:1056B000044621466FF00A00FCF760FCFCF756FC3C
:1056C000054600221146FCF7F4F9044621466FF026
:1056D0000900FCF753FCFCF749FC05460022114683
:1056E000FCF7E7F9044621466FF00400FCF746FC9E
:1056F000FCF73CFC054600221146FCF7DAF90446AB
:1057000021466FF00300FCF739FCFCF72FFC05463F
:1057100000220F21FCF7CDF9044621466FF001006D
:10572000FCF72CFCFCF722FC054600221146FCF796
:10573000C0F9044621464FF0FF30FCF71FFC002261
:1057400011461720FDF7A8FA002211461C20FDF78C
:10575000A3FA002211463220FDF79EFA00221146DC
:105760003820FDF799FA002211463920FDF794FA06
:10577000002211463C20FDF78FFA002211464420FA
:10578000FDF78AFA70BD000010B501214FF44010FA
:10579000FCF7CAFE01211248FCF7C6FE01211048A1
:1057A000801DFCF7C1FE01210D481530FCF7BCFE41
:1057B00001218805FCF7B8FE01210A48FCF7B4FE78
:1057C00001210948FCF7B0FE012107480830FCF729
:1057D000ABFE012104480A30FCF7A6FE10BD000014
:1057E0000100300003004000040044001FB502A87F
:1057F000FDF739F96846FFF7B6FB05220321354866
:10580000FDF778F902208DF80F0000208DF80C00CC
:1058100002208DF80E000820029000208DF80D0067
:1058200002A92C48FDF729F9052204212948FDF792
:1058300061F902208DF80F0000208DF80C00022085
:105840008DF80E001020029000208DF80D0002A9A6
:105850002048FDF712F9052211461E48FDF74AF9C6
:1058600002208DF80F0000208DF80C0002208DF82A
:105870000E002020029000208DF80D0002A915488E
:10588000FDF7FBF800208DF8000001208DF80100E5
:1058900000208DF804008DF8030003208DF802002D
:1058A00000208DF805008DF8060001208DF8070016
:1058B00069460948FFF771FB01210748FFF768FBBC
:1058C00001210548FFF75FFB01210348FFF756FB65
:1058D0001FBD0000000402400030014010B5FCF77D
:1058E0006DFE01212B48FCF71FFE2B48006920F0BC
:1058F0000700401C284908612848006820F0030080
:10590000401C2649086001210420FCF71FFD00BF50
:105910002348FCF7D9FD0128FAD101210846FCF7FC
:1059200015FD00BFFCF7E8FD0028FBD00121002099
:10593000FCF70CFD00BF0120FCF7C6FD0128FAD1E1
:105940000223012290210020FCF714FE01210220F5
:10595000FCF7FCFC00BF1920FCF7B6FD0128FAD1CA
:105960000020FCF7C1FC0420FCF7D2FC0420FCF76B
:10597000C5FC0120FCF7D6FC0220FCF75BFE00BF53
:10598000FCF776FE0228FBD10020FCF7CBFCFFF7EA
:10599000B1FB10BD1C00400000700040603C0240A4
:1059A0000100740010B500214FF08040FFF777FC34
:1059B00000214FF08040FFF76DFC00214FF0804048
:1059C000FFF777FC40F21F1240F6C3114FF0804002
:1059D000FFF758FC00214FF08040FFF774FC0021D6
:1059E0004FF08040FFF76AFC01218807FFF75CFC5D
:1059F0004FF08040C06820F00100401C4FF0804113
:105A0000C86010BD10B501211148FFF72DFC002121
:105A10000F48FFF744FC00210D48FFF73BFC002135
:105A20000B48FFF746FC40F21F124FF0FF310848C9
:105A3000FFF728FC00210648FFF745FC0021044839
:105A4000FFF73CFC01210248FFF72EFC10BD0000CF
:105A5000000C00401CB56846FDF705F8072206213A
:105A60002748FDF747F802208DF8070000208DF841
:105A7000040002208DF806004020009000208DF8E0
:105A8000050069461E48FCF7F8FF072211461C482E
:105A9000FDF730F802208DF8070000208DF8040093
:105AA00002208DF806008020009000208DF805006F
:105AB00069461348FCF7E1FF002301224FF46121FE
:105AC0001048FFF747FC01210E48FFF7C4FC0121F5
:105AD0000C48FFF7BBFC00210A48FFF791FC0121AD
:105AE0000848FFF7FAFB01210648FFF7F1FB002108
:105AF0000448FFF7FCFB01210248FFF7F3FB1CBD44
:105B000000040240001001404FF04070E1EE100A26
:105B100070470000000000000000010203040607B7
:105B20000809000000000102030400000000010257
:105B3000030401020408102000000000000000001F
:105B400001020304060708090102040810200000EE
:105B5000005EBCE2613FDD83C29C7E20A3FD1F414D
:105B60009DC3217FFCA2401E5F01E3BD3E6082DC3D
:105B7000237D9FC1421CFEA0E1BF5D0380DE3C622D
:105B8000BEE0025CDF81633D7C22C09E1D43A1FF1D
:105B90004618FAA427799BC584DA3866E5BB59070D
:105BA000DB856739BAE406581947A5FB7826C49AFD
:105BB000653BD987045AB8E6A7F91B45C6987A24ED
:105BC000F8A6441A99C7257B3A6486D85B05E7B9DD
:105BD0008CD2306EEDB3510F4E10F2AC2F7193CDCD
:105BE000114FADF3702ECC92D38D6F31B2EC0E50BD
:105BF000AFF1134DCE90722C6D33D18F0C52B0EEAD
:105C0000326C8ED0530DEFB1F0AE4C1291CF2D739C
:105C1000CA947628ABF517490856B4EA6937D58B8C
:105C20005709EBB536688AD495CB2977F4AA48167C
:105C3000E9B7550B88D6346A2B7597C94A14F6A86C
:105C4000742AC896154BA9F7B6E80A54D7896B355C
:105C500000002110422063308440A550C660E770E8
:105C6000088129914AA16BB18CC1ADD1CEE1EFF190
:105C70003112100273325222B5529442F772D66238
:105C8000399318837BB35AA3BDD39CC3FFF3DEE3E0
:105C90006224433420040114E664C774A444855488
:105CA0006AA54BB528850995EEE5CFF5ACC58DD530
:105CB0005336722611163006D776F6669556B446D8
:105CC0005BB77AA719973887DFF7FEE79DD7BCC780
:105CD000C448E5588668A778400861180228233828
:105CE000CCC9EDD98EE9AFF9488969990AA92BB9D0
:105CF000F55AD44AB77A966A711A500A333A122A78
:105D0000FDDBDCCBBFFB9EEB799B588B3BBB1AAB1F
:105D1000A66C877CE44CC55C222C033C600C411CC7
:105D2000AEED8FFDECCDCDDD2AAD0BBD688D499D6F
:105D3000977EB66ED55EF44E133E322E511E700E17
:105D40009FFFBEEFDDDFFCCF1BBF3AAF599F788FBF
:105D50008891A981CAB1EBA10CD12DC14EF16FE19F
:105D60008010A100C230E3200450254046706760D7
:105D7000B9839893FBA3DAB33DC31CD37FE35EF3EF
:105D8000B1029012F322D232354214527762567227
:105D9000EAB5CBA5A89589856EF54FE52CD50DC53F
:105DA000E234C324A0148104667447642454054477
:105DB000DBA7FAB79987B8975FE77EF71DC73CD78F
:105DC000D326F2369106B0165766767615463456C7
:105DD0004CD96DC90EF92FE9C899E9898AB9ABA9DF
:105DE0004458654806782768C018E1088238A32817
:105DF0007DCB5CDB3FEB1EFBF98BD89BBBAB9ABB2F
:105E0000754A545A376A167AF10AD01AB32A923A66
:105E10002EFD0FED6CDD4DCDAABD8BADE89DC98D7E
:105E2000267C076C645C454CA23C832CE01CC10CB6
:105E30001FEF3EFF5DCF7CDF9BAFBABFD98FF89FCE
:105E4000176E367E554E745E932EB23ED10EF01E06
:105E500000000000963007772C610EEEBA510999C8
:105E600019C46D078FF46A7035A563E9A395649E24
:105E70003288DB0EA4B8DC791EE9D5E088D9D29748
:105E80002B4CB609BD7CB17E072DB8E7911DBF90A4
:105E90006410B71DF220B06A4871B9F3DE41BE84C8
:105EA0007DD4DA1AEBE4DD6D51B5D4F4C785D38324
:105EB00056986C13C0A86B647AF962FDECC9658AC8
:105EC0004F5C0114D96C0663633D0FFAF50D088D24
:105ED000C8206E3B5E10694CE44160D5727167A2C8
:105EE000D1E4033C47D4044BFD850DD26BB50AA524
:105EF000FAA8B5356C98B242D6C9BBDB40F9BCAC48
:105F0000E36CD832755CDF45CF0DD6DC593DD1ABA3
:105F1000AC30D9263A00DE518051D7C81661D0BFC7
:105F2000B5F4B42123C4B3569995BACF0FA5BDB823
:105F30009EB802280888055FB2D90CC624E90BB1C7
:105F4000877C6F2F114C6858AB1D61C13D2D66B623
:105F50009041DC760671DB01BC20D2982A10D5EF87
:105F60008985B1711FB5B606A5E4BF9F33D4B8E8E3
:105F7000A2C9077834F9000F8EA8099618980EE187
:105F8000BB0D6A7F2D3D6D08976C6491015C63E6E3
:105F9000F4516B6B62616C1CD83065854E0062F207
:105FA000ED95066C7BA5011BC1F4088257C40FF563
:105FB000C6D9B06550E9B712EAB8BE8B7C88B9FC87
:105FC000DF1DDD62492DDA15F37CD38C654CD4FBE3
:105FD0005861B24DCE51B53A7400BCA3E230BBD487
:105FE00041A5DF4AD795D83D6DC4D1A4FBF4D6D3E3
:105FF0006AE96943FCD96E34468867ADD0B860DA87
:10600000732D0444E51D03335F4C0AAAC97C0DDDE2
:106010003C710550AA41022710100BBE86200CC906
:1060200025B56857B3856F2009D466B99FE461CE62
:106030000EF9DE5E98C9D9292298D0B0B4A8D7C786
:10604000173DB359810DB42E3B5CBDB7AD6CBAC0E2
:106050002083B8EDB6B3BF9A0CE2B6039AD2B174FE
:106060003947D5EAAF77D29D1526DB048316DC735A
:10607000120B63E3843B64943E6A6D0DA85A6A7AFE
:106080000BCF0EE49DFF099327AE000AB19E077D5A
:1060900044930FF0D2A3088768F2011EFEC206697E
:1060A0005D5762F7CB67658071366C19E7066B6EDA
:1060B000761BD4FEE02BD3895A7ADA10CC4ADD67FE
:1060C0006FDFB9F9F9EFBE8E43BEB717D58EB0605A
:1060D000E8A3D6D67E93D1A1C4C2D83852F2DF4FFE
:1060E000F167BBD16757BCA6DD06B53F4B36B2485A
:1060F000DA2B0DD84C1B0AAFF64A0336607A0441FE
:10610000C3EF60DF55DF67A8EF8E6E3179BE694659
:106110008CB361CB1A8366BCA0D26F2536E268527D
:1061200095770CCC03470BBBB91602222F260555D9
:10613000BE3BBAC5280BBDB2925AB42B046AB35CFD
:10614000A7FFD7C231CFD0B58B9ED92C1DAEDE5B59
:10615000B0C2649B26F263EC9CA36A750A936D023D
:10616000A906099C3F360EEB856707721357000599
:10617000824ABF95147AB8E2AE2BB17B381BB60CBD
:106180009B8ED2920DBED5E5B7EFDC7C21DFDB0B19
:10619000D4D2D38642E2D4F1F8B3DD686E83DA1F3D
:1061A000CD16BE815B26B9F6E177B06F7747B71899
:1061B000E65A0888706A0FFFCA3B06665C0B01113D
:1061C000FF9E658F69AE62F8D3FF6B6145CF6C1699
:1061D00078E20AA0EED20DD75483044EC2B303393D
:1061E000612667A7F71660D04D476949DB776E3E99
:1061F0004A6AD1AEDC5AD6D9660BDF40F03BD837BD
:1062000053AEBCA9C59EBBDE7FCFB247E9FFB53018
:106210001CF2BDBD8AC2BACA3093B353A6A3B4243C
:106220000536D0BA9306D7CD2957DE54BF67D92398
